{
  "_format": "hh-sol-artifact-1",
  "contractName": "PublishingHouseMagnet",
  "sourceName": "contracts/PublishingHouseMagnet.sol",
  "abi": [
    {
      "inputs": [
        {
          "internalType": "address",
          "name": "publicationMagnetAddress",
          "type": "address"
        }
      ],
      "stateMutability": "nonpayable",
      "type": "constructor"
    },
    {
      "anonymous": false,
      "inputs": [
        {
          "indexed": true,
          "internalType": "address",
          "name": "sender",
          "type": "address"
        },
        {
          "indexed": false,
          "internalType": "uint256",
          "name": "idPub",
          "type": "uint256"
        }
      ],
      "name": "Bought",
      "type": "event"
    },
    {
      "anonymous": false,
      "inputs": [
        {
          "indexed": false,
          "internalType": "uint256",
          "name": "idPub",
          "type": "uint256"
        },
        {
          "indexed": false,
          "internalType": "uint256",
          "name": "price",
          "type": "uint256"
        }
      ],
      "name": "PriceSet",
      "type": "event"
    },
    {
      "anonymous": false,
      "inputs": [
        {
          "indexed": true,
          "internalType": "bytes32",
          "name": "role",
          "type": "bytes32"
        },
        {
          "indexed": true,
          "internalType": "bytes32",
          "name": "previousAdminRole",
          "type": "bytes32"
        },
        {
          "indexed": true,
          "internalType": "bytes32",
          "name": "newAdminRole",
          "type": "bytes32"
        }
      ],
      "name": "RoleAdminChanged",
      "type": "event"
    },
    {
      "anonymous": false,
      "inputs": [
        {
          "indexed": true,
          "internalType": "bytes32",
          "name": "role",
          "type": "bytes32"
        },
        {
          "indexed": true,
          "internalType": "address",
          "name": "account",
          "type": "address"
        },
        {
          "indexed": true,
          "internalType": "address",
          "name": "sender",
          "type": "address"
        }
      ],
      "name": "RoleGranted",
      "type": "event"
    },
    {
      "anonymous": false,
      "inputs": [
        {
          "indexed": true,
          "internalType": "bytes32",
          "name": "role",
          "type": "bytes32"
        },
        {
          "indexed": true,
          "internalType": "address",
          "name": "account",
          "type": "address"
        },
        {
          "indexed": true,
          "internalType": "address",
          "name": "sender",
          "type": "address"
        }
      ],
      "name": "RoleRevoked",
      "type": "event"
    },
    {
      "inputs": [],
      "name": "ADMIN",
      "outputs": [
        {
          "internalType": "bytes32",
          "name": "",
          "type": "bytes32"
        }
      ],
      "stateMutability": "view",
      "type": "function"
    },
    {
      "inputs": [],
      "name": "DEFAULT_ADMIN_ROLE",
      "outputs": [
        {
          "internalType": "bytes32",
          "name": "",
          "type": "bytes32"
        }
      ],
      "stateMutability": "view",
      "type": "function"
    },
    {
      "inputs": [
        {
          "internalType": "uint256",
          "name": "idPub",
          "type": "uint256"
        }
      ],
      "name": "buy",
      "outputs": [],
      "stateMutability": "payable",
      "type": "function"
    },
    {
      "inputs": [
        {
          "internalType": "uint256",
          "name": "idPub",
          "type": "uint256"
        }
      ],
      "name": "getPriceById",
      "outputs": [
        {
          "internalType": "uint256",
          "name": "",
          "type": "uint256"
        }
      ],
      "stateMutability": "view",
      "type": "function"
    },
    {
      "inputs": [
        {
          "internalType": "bytes32",
          "name": "role",
          "type": "bytes32"
        }
      ],
      "name": "getRoleAdmin",
      "outputs": [
        {
          "internalType": "bytes32",
          "name": "",
          "type": "bytes32"
        }
      ],
      "stateMutability": "view",
      "type": "function"
    },
    {
      "inputs": [
        {
          "internalType": "bytes32",
          "name": "role",
          "type": "bytes32"
        },
        {
          "internalType": "address",
          "name": "account",
          "type": "address"
        }
      ],
      "name": "grantRole",
      "outputs": [],
      "stateMutability": "nonpayable",
      "type": "function"
    },
    {
      "inputs": [
        {
          "internalType": "bytes32",
          "name": "role",
          "type": "bytes32"
        },
        {
          "internalType": "address",
          "name": "account",
          "type": "address"
        }
      ],
      "name": "hasRole",
      "outputs": [
        {
          "internalType": "bool",
          "name": "",
          "type": "bool"
        }
      ],
      "stateMutability": "view",
      "type": "function"
    },
    {
      "inputs": [],
      "name": "publicationMagnet",
      "outputs": [
        {
          "internalType": "contract PublicationMagnet",
          "name": "",
          "type": "address"
        }
      ],
      "stateMutability": "view",
      "type": "function"
    },
    {
      "inputs": [
        {
          "internalType": "bytes32",
          "name": "role",
          "type": "bytes32"
        },
        {
          "internalType": "address",
          "name": "account",
          "type": "address"
        }
      ],
      "name": "renounceRole",
      "outputs": [],
      "stateMutability": "nonpayable",
      "type": "function"
    },
    {
      "inputs": [
        {
          "internalType": "bytes32",
          "name": "role",
          "type": "bytes32"
        },
        {
          "internalType": "address",
          "name": "account",
          "type": "address"
        }
      ],
      "name": "revokeRole",
      "outputs": [],
      "stateMutability": "nonpayable",
      "type": "function"
    },
    {
      "inputs": [
        {
          "internalType": "uint256",
          "name": "idPub",
          "type": "uint256"
        },
        {
          "internalType": "uint256",
          "name": "price",
          "type": "uint256"
        }
      ],
      "name": "setPrice",
      "outputs": [],
      "stateMutability": "nonpayable",
      "type": "function"
    },
    {
      "inputs": [
        {
          "internalType": "bytes4",
          "name": "interfaceId",
          "type": "bytes4"
        }
      ],
      "name": "supportsInterface",
      "outputs": [
        {
          "internalType": "bool",
          "name": "",
          "type": "bool"
        }
      ],
      "stateMutability": "view",
      "type": "function"
    }
  ],
  "bytecode": "0x60806040523480156200001157600080fd5b5060405162001fa538038062001fa58339818101604052810190620000379190620002ef565b620000697fdf8b4c520ffe197c5343c6f5aec59570151ef9a492f2c624fd45ddde6135ec4280620000e360201b60201c565b6200009b7fdf8b4c520ffe197c5343c6f5aec59570151ef9a492f2c624fd45ddde6135ec42336200014060201b60201c565b80600260006101000a81548173ffffffffffffffffffffffffffffffffffffffff021916908373ffffffffffffffffffffffffffffffffffffffff1602179055505062000369565b80620000f5836200015660201b60201c565b837fbd79b86ffe0ab8e8776151514217cd7cacd52c909f66475c3af44e129f0b00ff60405160405180910390a480600080848152602001908152602001600020600101819055505050565b6200015282826200017560201b60201c565b5050565b6000806000838152602001908152602001600020600101549050919050565b6200018782826200026660201b60201c565b6200026257600160008084815260200190815260200160002060000160008373ffffffffffffffffffffffffffffffffffffffff1673ffffffffffffffffffffffffffffffffffffffff16815260200190815260200160002060006101000a81548160ff02191690831515021790555062000207620002d060201b60201c565b73ffffffffffffffffffffffffffffffffffffffff168173ffffffffffffffffffffffffffffffffffffffff16837f2f8788117e7eff1d82e926ec794901d17c78024a50270940304540a733656f0d60405160405180910390a45b5050565b600080600084815260200190815260200160002060000160008373ffffffffffffffffffffffffffffffffffffffff1673ffffffffffffffffffffffffffffffffffffffff16815260200190815260200160002060009054906101000a900460ff16905092915050565b600033905090565b600081519050620002e9816200034f565b92915050565b6000602082840312156200030257600080fd5b60006200031284828501620002d8565b91505092915050565b600062000328826200032f565b9050919050565b600073ffffffffffffffffffffffffffffffffffffffff82169050919050565b6200035a816200031b565b81146200036657600080fd5b50565b611c2c80620003796000396000f3fe6080604052600436106100a75760003560e01c8063a217fddf11610064578063a217fddf146101e0578063b9256b1b1461020b578063d547741f14610248578063d96a094a14610271578063f7d975771461028d578063f8338842146102b6576100a7565b806301ffc9a7146100ac578063248a9ca3146100e95780632a0acc6a146101265780632f2ff15d1461015157806336568abe1461017a57806391d14854146101a3575b600080fd5b3480156100b857600080fd5b506100d360048036038101906100ce91906111d1565b6102e1565b6040516100e0919061151b565b60405180910390f35b3480156100f557600080fd5b50610110600480360381019061010b919061116c565b61035b565b60405161011d9190611536565b60405180910390f35b34801561013257600080fd5b5061013b61037a565b6040516101489190611536565b60405180910390f35b34801561015d57600080fd5b5061017860048036038101906101739190611195565b61039e565b005b34801561018657600080fd5b506101a1600480360381019061019c9190611195565b6103c7565b005b3480156101af57600080fd5b506101ca60048036038101906101c59190611195565b61044a565b6040516101d7919061151b565b60405180910390f35b3480156101ec57600080fd5b506101f56104b4565b6040516102029190611536565b60405180910390f35b34801561021757600080fd5b50610232600480360381019061022d91906111fa565b6104bb565b60405161023f919061168e565b60405180910390f35b34801561025457600080fd5b5061026f600480360381019061026a9190611195565b6104d8565b005b61028b600480360381019061028691906111fa565b610501565b005b34801561029957600080fd5b506102b460048036038101906102af9190611223565b610883565b005b3480156102c257600080fd5b506102cb6109f2565b6040516102d89190611551565b60405180910390f35b60007f7965db0b000000000000000000000000000000000000000000000000000000007bffffffffffffffffffffffffffffffffffffffffffffffffffffffff1916827bffffffffffffffffffffffffffffffffffffffffffffffffffffffff19161480610354575061035382610a1c565b5b9050919050565b6000806000838152602001908152602001600020600101549050919050565b7fdf8b4c520ffe197c5343c6f5aec59570151ef9a492f2c624fd45ddde6135ec4281565b6103a78261035b565b6103b8816103b3610a86565b610a8e565b6103c28383610b2b565b505050565b6103cf610a86565b73ffffffffffffffffffffffffffffffffffffffff168173ffffffffffffffffffffffffffffffffffffffff161461043c576040517f08c379a00000000000000000000000000000000000000000000000000000000081526004016104339061166e565b60405180910390fd5b6104468282610c0b565b5050565b600080600084815260200190815260200160002060000160008373ffffffffffffffffffffffffffffffffffffffff1673ffffffffffffffffffffffffffffffffffffffff16815260200190815260200160002060009054906101000a900460ff16905092915050565b6000801b81565b600060036000838152602001908152602001600020549050919050565b6104e18261035b565b6104f2816104ed610a86565b610a8e565b6104fc8383610c0b565b505050565b803373ffffffffffffffffffffffffffffffffffffffff16600260009054906101000a900473ffffffffffffffffffffffffffffffffffffffff1673ffffffffffffffffffffffffffffffffffffffff16636352211e836040518263ffffffff1660e01b8152600401610574919061168e565b60206040518083038186803b15801561058c57600080fd5b505afa1580156105a0573d6000803e3d6000fd5b505050506040513d601f19601f820116820180604052508101906105c49190611143565b73ffffffffffffffffffffffffffffffffffffffff16141561061b576040517f08c379a0000000000000000000000000000000000000000000000000000000008152600401610612906115ae565b60405180910390fd5b60036000838152602001908152602001600020543414610670576040517f08c379a00000000000000000000000000000000000000000000000000000000081526004016106679061162e565b60405180910390fd5b6000600360008481526020019081526020016000205414156106c7576040517f08c379a00000000000000000000000000000000000000000000000000000000081526004016106be9061164e565b60405180910390fd5b6000600260009054906101000a900473ffffffffffffffffffffffffffffffffffffffff1673ffffffffffffffffffffffffffffffffffffffff16636352211e846040518263ffffffff1660e01b8152600401610724919061168e565b60206040518083038186803b15801561073c57600080fd5b505afa158015610750573d6000803e3d6000fd5b505050506040513d601f19601f820116820180604052508101906107749190611143565b9050600260009054906101000a900473ffffffffffffffffffffffffffffffffffffffff1673ffffffffffffffffffffffffffffffffffffffff166323b872dd8233866040518463ffffffff1660e01b81526004016107d5939291906114e4565b600060405180830381600087803b1580156107ef57600080fd5b505af1158015610803573d6000803e3d6000fd5b50505050610830348273ffffffffffffffffffffffffffffffffffffffff16610cec90919063ffffffff16565b3373ffffffffffffffffffffffffffffffffffffffff167fc55650ccda1011e1cdc769b1fbf546ebb8c97800b6072b49e06cd560305b1d6784604051610876919061168e565b60405180910390a2505050565b813373ffffffffffffffffffffffffffffffffffffffff16600260009054906101000a900473ffffffffffffffffffffffffffffffffffffffff1673ffffffffffffffffffffffffffffffffffffffff16636352211e836040518263ffffffff1660e01b81526004016108f6919061168e565b60206040518083038186803b15801561090e57600080fd5b505afa158015610922573d6000803e3d6000fd5b505050506040513d601f19601f820116820180604052508101906109469190611143565b73ffffffffffffffffffffffffffffffffffffffff161461099c576040517f08c379a0000000000000000000000000000000000000000000000000000000008152600401610993906115ce565b60405180910390fd5b8160036000858152602001908152602001600020819055507fa0f1665b7b659537b52deec61ea64d134a3bccda74c7f4e79f2246e7a8187a8a83836040516109e59291906116a9565b60405180910390a1505050565b6000600260009054906101000a900473ffffffffffffffffffffffffffffffffffffffff16905090565b60007f01ffc9a7000000000000000000000000000000000000000000000000000000007bffffffffffffffffffffffffffffffffffffffffffffffffffffffff1916827bffffffffffffffffffffffffffffffffffffffffffffffffffffffff1916149050919050565b600033905090565b610a98828261044a565b610b2757610abd8173ffffffffffffffffffffffffffffffffffffffff166014610de0565b610acb8360001c6020610de0565b604051602001610adc9291906114aa565b6040516020818303038152906040526040517f08c379a0000000000000000000000000000000000000000000000000000000008152600401610b1e919061156c565b60405180910390fd5b5050565b610b35828261044a565b610c0757600160008084815260200190815260200160002060000160008373ffffffffffffffffffffffffffffffffffffffff1673ffffffffffffffffffffffffffffffffffffffff16815260200190815260200160002060006101000a81548160ff021916908315150217905550610bac610a86565b73ffffffffffffffffffffffffffffffffffffffff168173ffffffffffffffffffffffffffffffffffffffff16837f2f8788117e7eff1d82e926ec794901d17c78024a50270940304540a733656f0d60405160405180910390a45b5050565b610c15828261044a565b15610ce857600080600084815260200190815260200160002060000160008373ffffffffffffffffffffffffffffffffffffffff1673ffffffffffffffffffffffffffffffffffffffff16815260200190815260200160002060006101000a81548160ff021916908315150217905550610c8d610a86565b73ffffffffffffffffffffffffffffffffffffffff168173ffffffffffffffffffffffffffffffffffffffff16837ff6391f5c32d9c69d2a47ea670b442974b53935d1edc7fd64eb21e047a839171b60405160405180910390a45b5050565b80471015610d2f576040517f08c379a0000000000000000000000000000000000000000000000000000000008152600401610d269061160e565b60405180910390fd5b60008273ffffffffffffffffffffffffffffffffffffffff1682604051610d5590611495565b60006040518083038185875af1925050503d8060008114610d92576040519150601f19603f3d011682016040523d82523d6000602084013e610d97565b606091505b5050905080610ddb576040517f08c379a0000000000000000000000000000000000000000000000000000000008152600401610dd2906115ee565b60405180910390fd5b505050565b606060006002836002610df3919061175a565b610dfd9190611704565b67ffffffffffffffff811115610e3c577f4e487b7100000000000000000000000000000000000000000000000000000000600052604160045260246000fd5b6040519080825280601f01601f191660200182016040528015610e6e5781602001600182028036833780820191505090505b5090507f300000000000000000000000000000000000000000000000000000000000000081600081518110610ecc577f4e487b7100000000000000000000000000000000000000000000000000000000600052603260045260246000fd5b60200101907effffffffffffffffffffffffffffffffffffffffffffffffffffffffffffff1916908160001a9053507f780000000000000000000000000000000000000000000000000000000000000081600181518110610f56577f4e487b7100000000000000000000000000000000000000000000000000000000600052603260045260246000fd5b60200101907effffffffffffffffffffffffffffffffffffffffffffffffffffffffffffff1916908160001a90535060006001846002610f96919061175a565b610fa09190611704565b90505b600181111561108c577f3031323334353637383961626364656600000000000000000000000000000000600f861660108110611008577f4e487b7100000000000000000000000000000000000000000000000000000000600052603260045260246000fd5b1a60f81b828281518110611045577f4e487b7100000000000000000000000000000000000000000000000000000000600052603260045260246000fd5b60200101907effffffffffffffffffffffffffffffffffffffffffffffffffffffffffffff1916908160001a905350600485901c94508061108590611889565b9050610fa3565b50600084146110d0576040517f08c379a00000000000000000000000000000000000000000000000000000000081526004016110c79061158e565b60405180910390fd5b8091505092915050565b6000813590506110e981611b9a565b92915050565b6000815190506110fe81611b9a565b92915050565b60008135905061111381611bb1565b92915050565b60008135905061112881611bc8565b92915050565b60008135905061113d81611bdf565b92915050565b60006020828403121561115557600080fd5b6000611163848285016110ef565b91505092915050565b60006020828403121561117e57600080fd5b600061118c84828501611104565b91505092915050565b600080604083850312156111a857600080fd5b60006111b685828601611104565b92505060206111c7858286016110da565b9150509250929050565b6000602082840312156111e357600080fd5b60006111f184828501611119565b91505092915050565b60006020828403121561120c57600080fd5b600061121a8482850161112e565b91505092915050565b6000806040838503121561123657600080fd5b60006112448582860161112e565b92505060206112558582860161112e565b9150509250929050565b611268816117b4565b82525050565b611277816117c6565b82525050565b611286816117d2565b82525050565b61129581611832565b82525050565b60006112a6826116d2565b6112b081856116e8565b93506112c0818560208601611856565b6112c9816118e2565b840191505092915050565b60006112df826116d2565b6112e981856116f9565b93506112f9818560208601611856565b80840191505092915050565b60006113126020836116e8565b915061131d826118f3565b602082019050919050565b60006113356038836116e8565b91506113408261191c565b604082019050919050565b60006113586036836116e8565b91506113638261196b565b604082019050919050565b600061137b603a836116e8565b9150611386826119ba565b604082019050919050565b600061139e601d836116e8565b91506113a982611a09565b602082019050919050565b60006113c16000836116dd565b91506113cc82611a32565b600082019050919050565b60006113e46017836116f9565b91506113ef82611a35565b601782019050919050565b60006114076047836116e8565b915061141282611a5e565b606082019050919050565b600061142a602e836116e8565b915061143582611ad3565b604082019050919050565b600061144d6011836116f9565b915061145882611b22565b601182019050919050565b6000611470602f836116e8565b915061147b82611b4b565b604082019050919050565b61148f81611828565b82525050565b60006114a0826113b4565b9150819050919050565b60006114b5826113d7565b91506114c182856112d4565b91506114cc82611440565b91506114d882846112d4565b91508190509392505050565b60006060820190506114f9600083018661125f565b611506602083018561125f565b6115136040830184611486565b949350505050565b6000602082019050611530600083018461126e565b92915050565b600060208201905061154b600083018461127d565b92915050565b6000602082019050611566600083018461128c565b92915050565b60006020820190508181036000830152611586818461129b565b905092915050565b600060208201905081810360008301526115a781611305565b9050919050565b600060208201905081810360008301526115c781611328565b9050919050565b600060208201905081810360008301526115e78161134b565b9050919050565b600060208201905081810360008301526116078161136e565b9050919050565b6000602082019050818103600083015261162781611391565b9050919050565b60006020820190508181036000830152611647816113fa565b9050919050565b600060208201905081810360008301526116678161141d565b9050919050565b6000602082019050818103600083015261168781611463565b9050919050565b60006020820190506116a36000830184611486565b92915050565b60006040820190506116be6000830185611486565b6116cb6020830184611486565b9392505050565b600081519050919050565b600081905092915050565b600082825260208201905092915050565b600081905092915050565b600061170f82611828565b915061171a83611828565b9250827fffffffffffffffffffffffffffffffffffffffffffffffffffffffffffffffff0382111561174f5761174e6118b3565b5b828201905092915050565b600061176582611828565b915061177083611828565b9250817fffffffffffffffffffffffffffffffffffffffffffffffffffffffffffffffff04831182151516156117a9576117a86118b3565b5b828202905092915050565b60006117bf82611808565b9050919050565b60008115159050919050565b6000819050919050565b60007fffffffff0000000000000000000000000000000000000000000000000000000082169050919050565b600073ffffffffffffffffffffffffffffffffffffffff82169050919050565b6000819050919050565b600061183d82611844565b9050919050565b600061184f82611808565b9050919050565b60005b83811015611874578082015181840152602081019050611859565b83811115611883576000848401525b50505050565b600061189482611828565b915060008214156118a8576118a76118b3565b5b600182039050919050565b7f4e487b7100000000000000000000000000000000000000000000000000000000600052601160045260246000fd5b6000601f19601f8301169050919050565b7f537472696e67733a20686578206c656e67746820696e73756666696369656e74600082015250565b7f5075626c697368696e67486f7573654d61676e6574203a20796f7520616c726560008201527f616479206f776e2074686973207075626c69636174696f6e0000000000000000602082015250565b7f5075626c697368696e67486f7573654d61676e6574203a20796f7520646f6e2760008201527f74206f776e2074686973207075626c69636174696f6e00000000000000000000602082015250565b7f416464726573733a20756e61626c6520746f2073656e642076616c75652c207260008201527f6563697069656e74206d61792068617665207265766572746564000000000000602082015250565b7f416464726573733a20696e73756666696369656e742062616c616e6365000000600082015250565b50565b7f416363657373436f6e74726f6c3a206163636f756e7420000000000000000000600082015250565b7f5075626c697368696e67486f7573654d61676e6574203a20506c65617365207360008201527f656e642074686520726967687420616d6f756e74206163636f7264696e67207460208201527f6f20707269636500000000000000000000000000000000000000000000000000604082015250565b7f5075626c697368696e67486f7573654d61676e6574203a20507269636520686160008201527f73206e6f74206265656e20736574000000000000000000000000000000000000602082015250565b7f206973206d697373696e6720726f6c6520000000000000000000000000000000600082015250565b7f416363657373436f6e74726f6c3a2063616e206f6e6c792072656e6f756e636560008201527f20726f6c657320666f722073656c660000000000000000000000000000000000602082015250565b611ba3816117b4565b8114611bae57600080fd5b50565b611bba816117d2565b8114611bc557600080fd5b50565b611bd1816117dc565b8114611bdc57600080fd5b50565b611be881611828565b8114611bf357600080fd5b5056fea26469706673582212205671d5a1defbeafad6cb3a9211dade4fc7cb6c7bb2998e5b4ad721831306325764736f6c63430008040033",
  "linkReferences": {},
  "deployedLinkReferences": {}
}