{
  "_format": "hh-sol-artifact-1",
  "contractName": "PublishingHouseMagnet",
  "sourceName": "contracts/PublishingHouseMagnet.sol",
  "abi": [
    {
      "inputs": [
        {
          "internalType": "address",
          "name": "publicationMagnetAddress",
          "type": "address"
        }
      ],
      "stateMutability": "nonpayable",
      "type": "constructor"
    },
    {
      "anonymous": false,
      "inputs": [
        {
          "indexed": true,
          "internalType": "address",
          "name": "sender",
          "type": "address"
        },
        {
          "indexed": false,
          "internalType": "uint256",
          "name": "idPub",
          "type": "uint256"
        }
      ],
      "name": "Bought",
      "type": "event"
    },
    {
      "anonymous": false,
      "inputs": [
        {
          "indexed": false,
          "internalType": "uint256",
          "name": "idPub",
          "type": "uint256"
        },
        {
          "indexed": false,
          "internalType": "uint256",
          "name": "price",
          "type": "uint256"
        }
      ],
      "name": "PriceSet",
      "type": "event"
    },
    {
      "anonymous": false,
      "inputs": [
        {
          "indexed": true,
          "internalType": "bytes32",
          "name": "role",
          "type": "bytes32"
        },
        {
          "indexed": true,
          "internalType": "bytes32",
          "name": "previousAdminRole",
          "type": "bytes32"
        },
        {
          "indexed": true,
          "internalType": "bytes32",
          "name": "newAdminRole",
          "type": "bytes32"
        }
      ],
      "name": "RoleAdminChanged",
      "type": "event"
    },
    {
      "anonymous": false,
      "inputs": [
        {
          "indexed": true,
          "internalType": "bytes32",
          "name": "role",
          "type": "bytes32"
        },
        {
          "indexed": true,
          "internalType": "address",
          "name": "account",
          "type": "address"
        },
        {
          "indexed": true,
          "internalType": "address",
          "name": "sender",
          "type": "address"
        }
      ],
      "name": "RoleGranted",
      "type": "event"
    },
    {
      "anonymous": false,
      "inputs": [
        {
          "indexed": true,
          "internalType": "bytes32",
          "name": "role",
          "type": "bytes32"
        },
        {
          "indexed": true,
          "internalType": "address",
          "name": "account",
          "type": "address"
        },
        {
          "indexed": true,
          "internalType": "address",
          "name": "sender",
          "type": "address"
        }
      ],
      "name": "RoleRevoked",
      "type": "event"
    },
    {
      "inputs": [],
      "name": "ADMIN",
      "outputs": [
        {
          "internalType": "bytes32",
          "name": "",
          "type": "bytes32"
        }
      ],
      "stateMutability": "view",
      "type": "function"
    },
    {
      "inputs": [],
      "name": "DEFAULT_ADMIN_ROLE",
      "outputs": [
        {
          "internalType": "bytes32",
          "name": "",
          "type": "bytes32"
        }
      ],
      "stateMutability": "view",
      "type": "function"
    },
    {
      "inputs": [
        {
          "internalType": "uint256",
          "name": "idPub",
          "type": "uint256"
        }
      ],
      "name": "buy",
      "outputs": [],
      "stateMutability": "payable",
      "type": "function"
    },
    {
      "inputs": [
        {
          "internalType": "uint256",
          "name": "idPub",
          "type": "uint256"
        }
      ],
      "name": "getPriceById",
      "outputs": [
        {
          "internalType": "uint256",
          "name": "",
          "type": "uint256"
        }
      ],
      "stateMutability": "view",
      "type": "function"
    },
    {
      "inputs": [
        {
          "internalType": "bytes32",
          "name": "role",
          "type": "bytes32"
        }
      ],
      "name": "getRoleAdmin",
      "outputs": [
        {
          "internalType": "bytes32",
          "name": "",
          "type": "bytes32"
        }
      ],
      "stateMutability": "view",
      "type": "function"
    },
    {
      "inputs": [
        {
          "internalType": "bytes32",
          "name": "role",
          "type": "bytes32"
        },
        {
          "internalType": "address",
          "name": "account",
          "type": "address"
        }
      ],
      "name": "grantRole",
      "outputs": [],
      "stateMutability": "nonpayable",
      "type": "function"
    },
    {
      "inputs": [
        {
          "internalType": "bytes32",
          "name": "role",
          "type": "bytes32"
        },
        {
          "internalType": "address",
          "name": "account",
          "type": "address"
        }
      ],
      "name": "hasRole",
      "outputs": [
        {
          "internalType": "bool",
          "name": "",
          "type": "bool"
        }
      ],
      "stateMutability": "view",
      "type": "function"
    },
    {
      "inputs": [],
      "name": "publicationMagnet",
      "outputs": [
        {
          "internalType": "contract PublicationMagnet",
          "name": "",
          "type": "address"
        }
      ],
      "stateMutability": "view",
      "type": "function"
    },
    {
      "inputs": [
        {
          "internalType": "bytes32",
          "name": "role",
          "type": "bytes32"
        },
        {
          "internalType": "address",
          "name": "account",
          "type": "address"
        }
      ],
      "name": "renounceRole",
      "outputs": [],
      "stateMutability": "nonpayable",
      "type": "function"
    },
    {
      "inputs": [
        {
          "internalType": "bytes32",
          "name": "role",
          "type": "bytes32"
        },
        {
          "internalType": "address",
          "name": "account",
          "type": "address"
        }
      ],
      "name": "revokeRole",
      "outputs": [],
      "stateMutability": "nonpayable",
      "type": "function"
    },
    {
      "inputs": [
        {
          "internalType": "uint256",
          "name": "idPub",
          "type": "uint256"
        },
        {
          "internalType": "uint256",
          "name": "price",
          "type": "uint256"
        }
      ],
      "name": "setPrice",
      "outputs": [],
      "stateMutability": "nonpayable",
      "type": "function"
    },
    {
      "inputs": [
        {
          "internalType": "bytes4",
          "name": "interfaceId",
          "type": "bytes4"
        }
      ],
      "name": "supportsInterface",
      "outputs": [
        {
          "internalType": "bool",
          "name": "",
          "type": "bool"
        }
      ],
      "stateMutability": "view",
      "type": "function"
    }
  ],
  "bytecode": "0x60806040523480156200001157600080fd5b5060405162001d4438038062001d448339818101604052810190620000379190620002ef565b620000697fdf8b4c520ffe197c5343c6f5aec59570151ef9a492f2c624fd45ddde6135ec4280620000e360201b60201c565b6200009b7fdf8b4c520ffe197c5343c6f5aec59570151ef9a492f2c624fd45ddde6135ec42336200014060201b60201c565b80600260006101000a81548173ffffffffffffffffffffffffffffffffffffffff021916908373ffffffffffffffffffffffffffffffffffffffff1602179055505062000369565b80620000f5836200015660201b60201c565b837fbd79b86ffe0ab8e8776151514217cd7cacd52c909f66475c3af44e129f0b00ff60405160405180910390a480600080848152602001908152602001600020600101819055505050565b6200015282826200017560201b60201c565b5050565b6000806000838152602001908152602001600020600101549050919050565b6200018782826200026660201b60201c565b6200026257600160008084815260200190815260200160002060000160008373ffffffffffffffffffffffffffffffffffffffff1673ffffffffffffffffffffffffffffffffffffffff16815260200190815260200160002060006101000a81548160ff02191690831515021790555062000207620002d060201b60201c565b73ffffffffffffffffffffffffffffffffffffffff168173ffffffffffffffffffffffffffffffffffffffff16837f2f8788117e7eff1d82e926ec794901d17c78024a50270940304540a733656f0d60405160405180910390a45b5050565b600080600084815260200190815260200160002060000160008373ffffffffffffffffffffffffffffffffffffffff1673ffffffffffffffffffffffffffffffffffffffff16815260200190815260200160002060009054906101000a900460ff16905092915050565b600033905090565b600081519050620002e9816200034f565b92915050565b6000602082840312156200030257600080fd5b60006200031284828501620002d8565b91505092915050565b600062000328826200032f565b9050919050565b600073ffffffffffffffffffffffffffffffffffffffff82169050919050565b6200035a816200031b565b81146200036657600080fd5b50565b6119cb80620003796000396000f3fe6080604052600436106100a75760003560e01c8063a217fddf11610064578063a217fddf146101e0578063b9256b1b1461020b578063d547741f14610248578063d96a094a14610271578063f7d975771461028d578063f8338842146102b6576100a7565b806301ffc9a7146100ac578063248a9ca3146100e95780632a0acc6a146101265780632f2ff15d1461015157806336568abe1461017a57806391d14854146101a3575b600080fd5b3480156100b857600080fd5b506100d360048036038101906100ce91906110b4565b6102e1565b6040516100e09190611380565b60405180910390f35b3480156100f557600080fd5b50610110600480360381019061010b919061104f565b61035b565b60405161011d919061139b565b60405180910390f35b34801561013257600080fd5b5061013b61037a565b604051610148919061139b565b60405180910390f35b34801561015d57600080fd5b5061017860048036038101906101739190611078565b61039e565b005b34801561018657600080fd5b506101a1600480360381019061019c9190611078565b6103c7565b005b3480156101af57600080fd5b506101ca60048036038101906101c59190611078565b61044a565b6040516101d79190611380565b60405180910390f35b3480156101ec57600080fd5b506101f56104b4565b604051610202919061139b565b60405180910390f35b34801561021757600080fd5b50610232600480360381019061022d91906110dd565b6104bb565b60405161023f91906114b3565b60405180910390f35b34801561025457600080fd5b5061026f600480360381019061026a9190611078565b6104d8565b005b61028b600480360381019061028691906110dd565b610501565b005b34801561029957600080fd5b506102b460048036038101906102af9190611106565b61085a565b005b3480156102c257600080fd5b506102cb6109c9565b6040516102d891906113b6565b60405180910390f35b60007f7965db0b000000000000000000000000000000000000000000000000000000007bffffffffffffffffffffffffffffffffffffffffffffffffffffffff1916827bffffffffffffffffffffffffffffffffffffffffffffffffffffffff191614806103545750610353826109f3565b5b9050919050565b6000806000838152602001908152602001600020600101549050919050565b7fdf8b4c520ffe197c5343c6f5aec59570151ef9a492f2c624fd45ddde6135ec4281565b6103a78261035b565b6103b8816103b3610a5d565b610a65565b6103c28383610b02565b505050565b6103cf610a5d565b73ffffffffffffffffffffffffffffffffffffffff168173ffffffffffffffffffffffffffffffffffffffff161461043c576040517f08c379a000000000000000000000000000000000000000000000000000000000815260040161043390611493565b60405180910390fd5b6104468282610be2565b5050565b600080600084815260200190815260200160002060000160008373ffffffffffffffffffffffffffffffffffffffff1673ffffffffffffffffffffffffffffffffffffffff16815260200190815260200160002060009054906101000a900460ff16905092915050565b6000801b81565b600060036000838152602001908152602001600020549050919050565b6104e18261035b565b6104f2816104ed610a5d565b610a65565b6104fc8383610be2565b505050565b803373ffffffffffffffffffffffffffffffffffffffff16600260009054906101000a900473ffffffffffffffffffffffffffffffffffffffff1673ffffffffffffffffffffffffffffffffffffffff16636352211e836040518263ffffffff1660e01b815260040161057491906114b3565b60206040518083038186803b15801561058c57600080fd5b505afa1580156105a0573d6000803e3d6000fd5b505050506040513d601f19601f820116820180604052508101906105c49190611026565b73ffffffffffffffffffffffffffffffffffffffff16141561061b576040517f08c379a000000000000000000000000000000000000000000000000000000000815260040161061290611413565b60405180910390fd5b60036000838152602001908152602001600020543414610670576040517f08c379a000000000000000000000000000000000000000000000000000000000815260040161066790611453565b60405180910390fd5b6000600360008481526020019081526020016000205414156106c7576040517f08c379a00000000000000000000000000000000000000000000000000000000081526004016106be90611473565b60405180910390fd5b6000600260009054906101000a900473ffffffffffffffffffffffffffffffffffffffff1673ffffffffffffffffffffffffffffffffffffffff16636352211e846040518263ffffffff1660e01b815260040161072491906114b3565b60206040518083038186803b15801561073c57600080fd5b505afa158015610750573d6000803e3d6000fd5b505050506040513d601f19601f820116820180604052508101906107749190611026565b9050600260009054906101000a900473ffffffffffffffffffffffffffffffffffffffff1673ffffffffffffffffffffffffffffffffffffffff166323b872dd8233866040518463ffffffff1660e01b81526004016107d593929190611349565b600060405180830381600087803b1580156107ef57600080fd5b505af1158015610803573d6000803e3d6000fd5b505050503373ffffffffffffffffffffffffffffffffffffffff167fc55650ccda1011e1cdc769b1fbf546ebb8c97800b6072b49e06cd560305b1d678460405161084d91906114b3565b60405180910390a2505050565b813373ffffffffffffffffffffffffffffffffffffffff16600260009054906101000a900473ffffffffffffffffffffffffffffffffffffffff1673ffffffffffffffffffffffffffffffffffffffff16636352211e836040518263ffffffff1660e01b81526004016108cd91906114b3565b60206040518083038186803b1580156108e557600080fd5b505afa1580156108f9573d6000803e3d6000fd5b505050506040513d601f19601f8201168201806040525081019061091d9190611026565b73ffffffffffffffffffffffffffffffffffffffff1614610973576040517f08c379a000000000000000000000000000000000000000000000000000000000815260040161096a90611433565b60405180910390fd5b8160036000858152602001908152602001600020819055507fa0f1665b7b659537b52deec61ea64d134a3bccda74c7f4e79f2246e7a8187a8a83836040516109bc9291906114ce565b60405180910390a1505050565b6000600260009054906101000a900473ffffffffffffffffffffffffffffffffffffffff16905090565b60007f01ffc9a7000000000000000000000000000000000000000000000000000000007bffffffffffffffffffffffffffffffffffffffffffffffffffffffff1916827bffffffffffffffffffffffffffffffffffffffffffffffffffffffff1916149050919050565b600033905090565b610a6f828261044a565b610afe57610a948173ffffffffffffffffffffffffffffffffffffffff166014610cc3565b610aa28360001c6020610cc3565b604051602001610ab392919061130f565b6040516020818303038152906040526040517f08c379a0000000000000000000000000000000000000000000000000000000008152600401610af591906113d1565b60405180910390fd5b5050565b610b0c828261044a565b610bde57600160008084815260200190815260200160002060000160008373ffffffffffffffffffffffffffffffffffffffff1673ffffffffffffffffffffffffffffffffffffffff16815260200190815260200160002060006101000a81548160ff021916908315150217905550610b83610a5d565b73ffffffffffffffffffffffffffffffffffffffff168173ffffffffffffffffffffffffffffffffffffffff16837f2f8788117e7eff1d82e926ec794901d17c78024a50270940304540a733656f0d60405160405180910390a45b5050565b610bec828261044a565b15610cbf57600080600084815260200190815260200160002060000160008373ffffffffffffffffffffffffffffffffffffffff1673ffffffffffffffffffffffffffffffffffffffff16815260200190815260200160002060006101000a81548160ff021916908315150217905550610c64610a5d565b73ffffffffffffffffffffffffffffffffffffffff168173ffffffffffffffffffffffffffffffffffffffff16837ff6391f5c32d9c69d2a47ea670b442974b53935d1edc7fd64eb21e047a839171b60405160405180910390a45b5050565b606060006002836002610cd69190611574565b610ce0919061151e565b67ffffffffffffffff811115610d1f577f4e487b7100000000000000000000000000000000000000000000000000000000600052604160045260246000fd5b6040519080825280601f01601f191660200182016040528015610d515781602001600182028036833780820191505090505b5090507f300000000000000000000000000000000000000000000000000000000000000081600081518110610daf577f4e487b7100000000000000000000000000000000000000000000000000000000600052603260045260246000fd5b60200101907effffffffffffffffffffffffffffffffffffffffffffffffffffffffffffff1916908160001a9053507f780000000000000000000000000000000000000000000000000000000000000081600181518110610e39577f4e487b7100000000000000000000000000000000000000000000000000000000600052603260045260246000fd5b60200101907effffffffffffffffffffffffffffffffffffffffffffffffffffffffffffff1916908160001a90535060006001846002610e799190611574565b610e83919061151e565b90505b6001811115610f6f577f3031323334353637383961626364656600000000000000000000000000000000600f861660108110610eeb577f4e487b7100000000000000000000000000000000000000000000000000000000600052603260045260246000fd5b1a60f81b828281518110610f28577f4e487b7100000000000000000000000000000000000000000000000000000000600052603260045260246000fd5b60200101907effffffffffffffffffffffffffffffffffffffffffffffffffffffffffffff1916908160001a905350600485901c945080610f68906116a3565b9050610e86565b5060008414610fb3576040517f08c379a0000000000000000000000000000000000000000000000000000000008152600401610faa906113f3565b60405180910390fd5b8091505092915050565b600081359050610fcc81611939565b92915050565b600081519050610fe181611939565b92915050565b600081359050610ff681611950565b92915050565b60008135905061100b81611967565b92915050565b6000813590506110208161197e565b92915050565b60006020828403121561103857600080fd5b600061104684828501610fd2565b91505092915050565b60006020828403121561106157600080fd5b600061106f84828501610fe7565b91505092915050565b6000806040838503121561108b57600080fd5b600061109985828601610fe7565b92505060206110aa85828601610fbd565b9150509250929050565b6000602082840312156110c657600080fd5b60006110d484828501610ffc565b91505092915050565b6000602082840312156110ef57600080fd5b60006110fd84828501611011565b91505092915050565b6000806040838503121561111957600080fd5b600061112785828601611011565b925050602061113885828601611011565b9150509250929050565b61114b816115ce565b82525050565b61115a816115e0565b82525050565b611169816115ec565b82525050565b6111788161164c565b82525050565b6000611189826114f7565b6111938185611502565b93506111a3818560208601611670565b6111ac816116fc565b840191505092915050565b60006111c2826114f7565b6111cc8185611513565b93506111dc818560208601611670565b80840191505092915050565b60006111f5602083611502565b91506112008261170d565b602082019050919050565b6000611218603883611502565b915061122382611736565b604082019050919050565b600061123b603683611502565b915061124682611785565b604082019050919050565b600061125e601783611513565b9150611269826117d4565b601782019050919050565b6000611281604783611502565b915061128c826117fd565b606082019050919050565b60006112a4602e83611502565b91506112af82611872565b604082019050919050565b60006112c7601183611513565b91506112d2826118c1565b601182019050919050565b60006112ea602f83611502565b91506112f5826118ea565b604082019050919050565b61130981611642565b82525050565b600061131a82611251565b915061132682856111b7565b9150611331826112ba565b915061133d82846111b7565b91508190509392505050565b600060608201905061135e6000830186611142565b61136b6020830185611142565b6113786040830184611300565b949350505050565b60006020820190506113956000830184611151565b92915050565b60006020820190506113b06000830184611160565b92915050565b60006020820190506113cb600083018461116f565b92915050565b600060208201905081810360008301526113eb818461117e565b905092915050565b6000602082019050818103600083015261140c816111e8565b9050919050565b6000602082019050818103600083015261142c8161120b565b9050919050565b6000602082019050818103600083015261144c8161122e565b9050919050565b6000602082019050818103600083015261146c81611274565b9050919050565b6000602082019050818103600083015261148c81611297565b9050919050565b600060208201905081810360008301526114ac816112dd565b9050919050565b60006020820190506114c86000830184611300565b92915050565b60006040820190506114e36000830185611300565b6114f06020830184611300565b9392505050565b600081519050919050565b600082825260208201905092915050565b600081905092915050565b600061152982611642565b915061153483611642565b9250827fffffffffffffffffffffffffffffffffffffffffffffffffffffffffffffffff03821115611569576115686116cd565b5b828201905092915050565b600061157f82611642565b915061158a83611642565b9250817fffffffffffffffffffffffffffffffffffffffffffffffffffffffffffffffff04831182151516156115c3576115c26116cd565b5b828202905092915050565b60006115d982611622565b9050919050565b60008115159050919050565b6000819050919050565b60007fffffffff0000000000000000000000000000000000000000000000000000000082169050919050565b600073ffffffffffffffffffffffffffffffffffffffff82169050919050565b6000819050919050565b60006116578261165e565b9050919050565b600061166982611622565b9050919050565b60005b8381101561168e578082015181840152602081019050611673565b8381111561169d576000848401525b50505050565b60006116ae82611642565b915060008214156116c2576116c16116cd565b5b600182039050919050565b7f4e487b7100000000000000000000000000000000000000000000000000000000600052601160045260246000fd5b6000601f19601f8301169050919050565b7f537472696e67733a20686578206c656e67746820696e73756666696369656e74600082015250565b7f5075626c697368696e67486f7573654d61676e6574203a20796f7520616c726560008201527f616479206f776e2074686973207075626c69636174696f6e0000000000000000602082015250565b7f5075626c697368696e67486f7573654d61676e6574203a20796f7520646f6e2760008201527f74206f776e2074686973207075626c69636174696f6e00000000000000000000602082015250565b7f416363657373436f6e74726f6c3a206163636f756e7420000000000000000000600082015250565b7f5075626c697368696e67486f7573654d61676e6574203a20506c65617365207360008201527f656e642074686520726967687420616d6f756e74206163636f7264696e67207460208201527f6f20707269636500000000000000000000000000000000000000000000000000604082015250565b7f5075626c697368696e67486f7573654d61676e6574203a20507269636520686160008201527f73206e6f74206265656e20736574000000000000000000000000000000000000602082015250565b7f206973206d697373696e6720726f6c6520000000000000000000000000000000600082015250565b7f416363657373436f6e74726f6c3a2063616e206f6e6c792072656e6f756e636560008201527f20726f6c657320666f722073656c660000000000000000000000000000000000602082015250565b611942816115ce565b811461194d57600080fd5b50565b611959816115ec565b811461196457600080fd5b50565b611970816115f6565b811461197b57600080fd5b50565b61198781611642565b811461199257600080fd5b5056fea264697066735822122079dfd331f7284c200651627b26e50f316745232cf4c1b2b502ec2c576a86551d64736f6c63430008040033",
  "linkReferences": {},
  "deployedLinkReferences": {}
}