{
  "_format": "hh-sol-artifact-1",
  "contractName": "PublishingHouseMagnet",
  "sourceName": "contracts/PublishingHouseMagnet.sol",
  "abi": [
    {
      "inputs": [
        {
          "internalType": "address",
          "name": "director_",
          "type": "address"
        }
      ],
      "stateMutability": "nonpayable",
      "type": "constructor"
    },
    {
      "anonymous": false,
      "inputs": [
        {
          "indexed": true,
          "internalType": "address",
          "name": "account",
          "type": "address"
        }
      ],
      "name": "DirectorChanged",
      "type": "event"
    },
    {
      "anonymous": false,
      "inputs": [
        {
          "indexed": true,
          "internalType": "bytes32",
          "name": "role",
          "type": "bytes32"
        },
        {
          "indexed": true,
          "internalType": "bytes32",
          "name": "previousAdminRole",
          "type": "bytes32"
        },
        {
          "indexed": true,
          "internalType": "bytes32",
          "name": "newAdminRole",
          "type": "bytes32"
        }
      ],
      "name": "RoleAdminChanged",
      "type": "event"
    },
    {
      "anonymous": false,
      "inputs": [
        {
          "indexed": true,
          "internalType": "bytes32",
          "name": "role",
          "type": "bytes32"
        },
        {
          "indexed": true,
          "internalType": "address",
          "name": "account",
          "type": "address"
        },
        {
          "indexed": true,
          "internalType": "address",
          "name": "sender",
          "type": "address"
        }
      ],
      "name": "RoleGranted",
      "type": "event"
    },
    {
      "anonymous": false,
      "inputs": [
        {
          "indexed": true,
          "internalType": "bytes32",
          "name": "role",
          "type": "bytes32"
        },
        {
          "indexed": true,
          "internalType": "address",
          "name": "account",
          "type": "address"
        },
        {
          "indexed": true,
          "internalType": "address",
          "name": "sender",
          "type": "address"
        }
      ],
      "name": "RoleRevoked",
      "type": "event"
    },
    {
      "inputs": [],
      "name": "ADMIN",
      "outputs": [
        {
          "internalType": "bytes32",
          "name": "",
          "type": "bytes32"
        }
      ],
      "stateMutability": "view",
      "type": "function"
    },
    {
      "inputs": [],
      "name": "AUTHOR",
      "outputs": [
        {
          "internalType": "bytes32",
          "name": "",
          "type": "bytes32"
        }
      ],
      "stateMutability": "view",
      "type": "function"
    },
    {
      "inputs": [],
      "name": "DEFAULT_ADMIN_ROLE",
      "outputs": [
        {
          "internalType": "bytes32",
          "name": "",
          "type": "bytes32"
        }
      ],
      "stateMutability": "view",
      "type": "function"
    },
    {
      "inputs": [],
      "name": "DIRECTOR",
      "outputs": [
        {
          "internalType": "bytes32",
          "name": "",
          "type": "bytes32"
        }
      ],
      "stateMutability": "view",
      "type": "function"
    },
    {
      "inputs": [
        {
          "internalType": "address",
          "name": "director",
          "type": "address"
        }
      ],
      "name": "changeDirector",
      "outputs": [],
      "stateMutability": "nonpayable",
      "type": "function"
    },
    {
      "inputs": [
        {
          "internalType": "bytes32",
          "name": "role",
          "type": "bytes32"
        }
      ],
      "name": "getRoleAdmin",
      "outputs": [
        {
          "internalType": "bytes32",
          "name": "",
          "type": "bytes32"
        }
      ],
      "stateMutability": "view",
      "type": "function"
    },
    {
      "inputs": [
        {
          "internalType": "bytes32",
          "name": "role",
          "type": "bytes32"
        },
        {
          "internalType": "address",
          "name": "account",
          "type": "address"
        }
      ],
      "name": "grantRole",
      "outputs": [],
      "stateMutability": "nonpayable",
      "type": "function"
    },
    {
      "inputs": [
        {
          "internalType": "bytes32",
          "name": "role",
          "type": "bytes32"
        },
        {
          "internalType": "address",
          "name": "account",
          "type": "address"
        }
      ],
      "name": "hasRole",
      "outputs": [
        {
          "internalType": "bool",
          "name": "",
          "type": "bool"
        }
      ],
      "stateMutability": "view",
      "type": "function"
    },
    {
      "inputs": [
        {
          "internalType": "uint256",
          "name": "",
          "type": "uint256"
        }
      ],
      "name": "priceById",
      "outputs": [
        {
          "internalType": "uint256",
          "name": "",
          "type": "uint256"
        }
      ],
      "stateMutability": "view",
      "type": "function"
    },
    {
      "inputs": [],
      "name": "publicationMagnet",
      "outputs": [
        {
          "internalType": "contract PublicationMagnet",
          "name": "",
          "type": "address"
        }
      ],
      "stateMutability": "view",
      "type": "function"
    },
    {
      "inputs": [
        {
          "internalType": "string",
          "name": "content",
          "type": "string"
        },
        {
          "internalType": "bytes32",
          "name": "hashContent",
          "type": "bytes32"
        },
        {
          "internalType": "uint256",
          "name": "uriId",
          "type": "uint256"
        }
      ],
      "name": "publish",
      "outputs": [],
      "stateMutability": "nonpayable",
      "type": "function"
    },
    {
      "inputs": [
        {
          "internalType": "bytes32",
          "name": "role",
          "type": "bytes32"
        },
        {
          "internalType": "address",
          "name": "account",
          "type": "address"
        }
      ],
      "name": "renounceRole",
      "outputs": [],
      "stateMutability": "nonpayable",
      "type": "function"
    },
    {
      "inputs": [
        {
          "internalType": "bytes32",
          "name": "role",
          "type": "bytes32"
        },
        {
          "internalType": "address",
          "name": "account",
          "type": "address"
        }
      ],
      "name": "revokeRole",
      "outputs": [],
      "stateMutability": "nonpayable",
      "type": "function"
    },
    {
      "inputs": [
        {
          "internalType": "bytes4",
          "name": "interfaceId",
          "type": "bytes4"
        }
      ],
      "name": "supportsInterface",
      "outputs": [
        {
          "internalType": "bool",
          "name": "",
          "type": "bool"
        }
      ],
      "stateMutability": "view",
      "type": "function"
    }
  ],
  "bytecode": "0x60806040523480156200001157600080fd5b50604051620056a0380380620056a0833981810160405281019062000037919062000461565b620000697fdf8b4c520ffe197c5343c6f5aec59570151ef9a492f2c624fd45ddde6135ec42806200024760201b60201c565b620000bb7fdf3be8e28b4db29e7596f575bed896f9a598f7a3d59a3b7076fc98d0f44786777fdf8b4c520ffe197c5343c6f5aec59570151ef9a492f2c624fd45ddde6135ec426200024760201b60201c565b6200010d7fc3804b311cb423d6a5c669b1a91eaa36c50f5d1a91f8ab0663a237f5dc4122637fdf8b4c520ffe197c5343c6f5aec59570151ef9a492f2c624fd45ddde6135ec426200024760201b60201c565b6200013f7fdf8b4c520ffe197c5343c6f5aec59570151ef9a492f2c624fd45ddde6135ec4233620002a460201b60201c565b620001937fdf3be8e28b4db29e7596f575bed896f9a598f7a3d59a3b7076fc98d0f4478677600160009054906101000a900473ffffffffffffffffffffffffffffffffffffffff16620002a460201b60201c565b80600160006101000a81548173ffffffffffffffffffffffffffffffffffffffff021916908373ffffffffffffffffffffffffffffffffffffffff160217905550604051620001e2906200043c565b604051809103906000f080158015620001ff573d6000803e3d6000fd5b50600360006101000a81548173ffffffffffffffffffffffffffffffffffffffff021916908373ffffffffffffffffffffffffffffffffffffffff16021790555050620004db565b806200025983620002ba60201b60201c565b837fbd79b86ffe0ab8e8776151514217cd7cacd52c909f66475c3af44e129f0b00ff60405160405180910390a480600080848152602001908152602001600020600101819055505050565b620002b68282620002d960201b60201c565b5050565b6000806000838152602001908152602001600020600101549050919050565b620002eb8282620003ca60201b60201c565b620003c657600160008084815260200190815260200160002060000160008373ffffffffffffffffffffffffffffffffffffffff1673ffffffffffffffffffffffffffffffffffffffff16815260200190815260200160002060006101000a81548160ff0219169083151502179055506200036b6200043460201b60201c565b73ffffffffffffffffffffffffffffffffffffffff168173ffffffffffffffffffffffffffffffffffffffff16837f2f8788117e7eff1d82e926ec794901d17c78024a50270940304540a733656f0d60405160405180910390a45b5050565b600080600084815260200190815260200160002060000160008373ffffffffffffffffffffffffffffffffffffffff1673ffffffffffffffffffffffffffffffffffffffff16815260200190815260200160002060009054906101000a900460ff16905092915050565b600033905090565b613b658062001b3b83390190565b6000815190506200045b81620004c1565b92915050565b6000602082840312156200047457600080fd5b600062000484848285016200044a565b91505092915050565b60006200049a82620004a1565b9050919050565b600073ffffffffffffffffffffffffffffffffffffffff82169050919050565b620004cc816200048d565b8114620004d857600080fd5b50565b61165080620004eb6000396000f3fe608060405234801561001057600080fd5b50600436106100ea5760003560e01c8063a217fddf1161008c578063f2dd4be811610066578063f2dd4be814610249578063f699c72f14610265578063f833884214610283578063f9e61d80146102a1576100ea565b8063a217fddf146101f1578063a7be85c61461020f578063d547741f1461022d576100ea565b80632a0acc6a116100c85780632a0acc6a1461016b5780632f2ff15d1461018957806336568abe146101a557806391d14854146101c1576100ea565b806301ffc9a7146100ef578063248a9ca31461011f5780632898f1051461014f575b600080fd5b61010960048036038101906101049190610ebf565b6102d1565b604051610116919061110d565b60405180910390f35b61013960048036038101906101349190610e5a565b61034b565b6040516101469190611128565b60405180910390f35b61016960048036038101906101649190610e31565b61036a565b005b6101736104bc565b6040516101809190611128565b60405180910390f35b6101a3600480360381019061019e9190610e83565b6104e0565b005b6101bf60048036038101906101ba9190610e83565b610509565b005b6101db60048036038101906101d69190610e83565b61058c565b6040516101e8919061110d565b60405180910390f35b6101f96105f6565b6040516102069190611128565b60405180910390f35b6102176105fd565b6040516102249190611128565b60405180910390f35b61024760048036038101906102429190610e83565b610621565b005b610263600480360381019061025e9190610ee8565b61064a565b005b61026d610734565b60405161027a9190611128565b60405180910390f35b61028b610758565b6040516102989190611143565b60405180910390f35b6102bb60048036038101906102b69190610f4f565b61077e565b6040516102c891906111fe565b60405180910390f35b60007f7965db0b000000000000000000000000000000000000000000000000000000007bffffffffffffffffffffffffffffffffffffffffffffffffffffffff1916827bffffffffffffffffffffffffffffffffffffffffffffffffffffffff19161480610344575061034382610796565b5b9050919050565b6000806000838152602001908152602001600020600101549050919050565b7fdf8b4c520ffe197c5343c6f5aec59570151ef9a492f2c624fd45ddde6135ec4261039c81610397610800565b610808565b6103e87fdf3be8e28b4db29e7596f575bed896f9a598f7a3d59a3b7076fc98d0f4478677600160009054906101000a900473ffffffffffffffffffffffffffffffffffffffff16610621565b81600160006101000a81548173ffffffffffffffffffffffffffffffffffffffff021916908373ffffffffffffffffffffffffffffffffffffffff1602179055506104757fdf3be8e28b4db29e7596f575bed896f9a598f7a3d59a3b7076fc98d0f4478677600160009054906101000a900473ffffffffffffffffffffffffffffffffffffffff166104e0565b8173ffffffffffffffffffffffffffffffffffffffff167fe40ba4174b41608908a2df2b01c6cb73734df0405d26db5599dc46e6991543b660405160405180910390a25050565b7fdf8b4c520ffe197c5343c6f5aec59570151ef9a492f2c624fd45ddde6135ec4281565b6104e98261034b565b6104fa816104f5610800565b610808565b61050483836108a5565b505050565b610511610800565b73ffffffffffffffffffffffffffffffffffffffff168173ffffffffffffffffffffffffffffffffffffffff161461057e576040517f08c379a0000000000000000000000000000000000000000000000000000000008152600401610575906111de565b60405180910390fd5b6105888282610985565b5050565b600080600084815260200190815260200160002060000160008373ffffffffffffffffffffffffffffffffffffffff1673ffffffffffffffffffffffffffffffffffffffff16815260200190815260200160002060009054906101000a900460ff16905092915050565b6000801b81565b7fc3804b311cb423d6a5c669b1a91eaa36c50f5d1a91f8ab0663a237f5dc41226381565b61062a8261034b565b61063b81610636610800565b610808565b6106458383610985565b505050565b7fc3804b311cb423d6a5c669b1a91eaa36c50f5d1a91f8ab0663a237f5dc41226361067c81610677610800565b610808565b600360009054906101000a900473ffffffffffffffffffffffffffffffffffffffff1673ffffffffffffffffffffffffffffffffffffffff1663f2dd4be88585856040518463ffffffff1660e01b81526004016106db93929190611180565b602060405180830381600087803b1580156106f557600080fd5b505af1158015610709573d6000803e3d6000fd5b505050506040513d601f19601f8201168201806040525081019061072d9190610f78565b5050505050565b7fdf3be8e28b4db29e7596f575bed896f9a598f7a3d59a3b7076fc98d0f447867781565b600360009054906101000a900473ffffffffffffffffffffffffffffffffffffffff1681565b60046020528060005260406000206000915090505481565b60007f01ffc9a7000000000000000000000000000000000000000000000000000000007bffffffffffffffffffffffffffffffffffffffffffffffffffffffff1916827bffffffffffffffffffffffffffffffffffffffffffffffffffffffff1916149050919050565b600033905090565b610812828261058c565b6108a1576108378173ffffffffffffffffffffffffffffffffffffffff166014610a66565b6108458360001c6020610a66565b6040516020016108569291906110d3565b6040516020818303038152906040526040517f08c379a0000000000000000000000000000000000000000000000000000000008152600401610898919061115e565b60405180910390fd5b5050565b6108af828261058c565b61098157600160008084815260200190815260200160002060000160008373ffffffffffffffffffffffffffffffffffffffff1673ffffffffffffffffffffffffffffffffffffffff16815260200190815260200160002060006101000a81548160ff021916908315150217905550610926610800565b73ffffffffffffffffffffffffffffffffffffffff168173ffffffffffffffffffffffffffffffffffffffff16837f2f8788117e7eff1d82e926ec794901d17c78024a50270940304540a733656f0d60405160405180910390a45b5050565b61098f828261058c565b15610a6257600080600084815260200190815260200160002060000160008373ffffffffffffffffffffffffffffffffffffffff1673ffffffffffffffffffffffffffffffffffffffff16815260200190815260200160002060006101000a81548160ff021916908315150217905550610a07610800565b73ffffffffffffffffffffffffffffffffffffffff168173ffffffffffffffffffffffffffffffffffffffff16837ff6391f5c32d9c69d2a47ea670b442974b53935d1edc7fd64eb21e047a839171b60405160405180910390a45b5050565b606060006002836002610a7991906112ec565b610a839190611296565b67ffffffffffffffff811115610ac2577f4e487b7100000000000000000000000000000000000000000000000000000000600052604160045260246000fd5b6040519080825280601f01601f191660200182016040528015610af45781602001600182028036833780820191505090505b5090507f300000000000000000000000000000000000000000000000000000000000000081600081518110610b52577f4e487b7100000000000000000000000000000000000000000000000000000000600052603260045260246000fd5b60200101907effffffffffffffffffffffffffffffffffffffffffffffffffffffffffffff1916908160001a9053507f780000000000000000000000000000000000000000000000000000000000000081600181518110610bdc577f4e487b7100000000000000000000000000000000000000000000000000000000600052603260045260246000fd5b60200101907effffffffffffffffffffffffffffffffffffffffffffffffffffffffffffff1916908160001a90535060006001846002610c1c91906112ec565b610c269190611296565b90505b6001811115610d12577f3031323334353637383961626364656600000000000000000000000000000000600f861660108110610c8e577f4e487b7100000000000000000000000000000000000000000000000000000000600052603260045260246000fd5b1a60f81b828281518110610ccb577f4e487b7100000000000000000000000000000000000000000000000000000000600052603260045260246000fd5b60200101907effffffffffffffffffffffffffffffffffffffffffffffffffffffffffffff1916908160001a905350600485901c945080610d0b9061142a565b9050610c29565b5060008414610d56576040517f08c379a0000000000000000000000000000000000000000000000000000000008152600401610d4d906111be565b60405180910390fd5b8091505092915050565b6000610d73610d6e8461123e565b611219565b905082815260208101848484011115610d8b57600080fd5b610d968482856113e8565b509392505050565b600081359050610dad816115be565b92915050565b600081359050610dc2816115d5565b92915050565b600081359050610dd7816115ec565b92915050565b600082601f830112610dee57600080fd5b8135610dfe848260208601610d60565b91505092915050565b600081359050610e1681611603565b92915050565b600081519050610e2b81611603565b92915050565b600060208284031215610e4357600080fd5b6000610e5184828501610d9e565b91505092915050565b600060208284031215610e6c57600080fd5b6000610e7a84828501610db3565b91505092915050565b60008060408385031215610e9657600080fd5b6000610ea485828601610db3565b9250506020610eb585828601610d9e565b9150509250929050565b600060208284031215610ed157600080fd5b6000610edf84828501610dc8565b91505092915050565b600080600060608486031215610efd57600080fd5b600084013567ffffffffffffffff811115610f1757600080fd5b610f2386828701610ddd565b9350506020610f3486828701610db3565b9250506040610f4586828701610e07565b9150509250925092565b600060208284031215610f6157600080fd5b6000610f6f84828501610e07565b91505092915050565b600060208284031215610f8a57600080fd5b6000610f9884828501610e1c565b91505092915050565b610faa81611358565b82525050565b610fb981611364565b82525050565b610fc8816113c4565b82525050565b6000610fd98261126f565b610fe3818561127a565b9350610ff38185602086016113f7565b610ffc816114e3565b840191505092915050565b60006110128261126f565b61101c818561128b565b935061102c8185602086016113f7565b80840191505092915050565b600061104560208361127a565b9150611050826114f4565b602082019050919050565b600061106860178361128b565b91506110738261151d565b601782019050919050565b600061108b60118361128b565b915061109682611546565b601182019050919050565b60006110ae602f8361127a565b91506110b98261156f565b604082019050919050565b6110cd816113ba565b82525050565b60006110de8261105b565b91506110ea8285611007565b91506110f58261107e565b91506111018284611007565b91508190509392505050565b60006020820190506111226000830184610fa1565b92915050565b600060208201905061113d6000830184610fb0565b92915050565b60006020820190506111586000830184610fbf565b92915050565b600060208201905081810360008301526111788184610fce565b905092915050565b6000606082019050818103600083015261119a8186610fce565b90506111a96020830185610fb0565b6111b660408301846110c4565b949350505050565b600060208201905081810360008301526111d781611038565b9050919050565b600060208201905081810360008301526111f7816110a1565b9050919050565b600060208201905061121360008301846110c4565b92915050565b6000611223611234565b905061122f8282611454565b919050565b6000604051905090565b600067ffffffffffffffff821115611259576112586114b4565b5b611262826114e3565b9050602081019050919050565b600081519050919050565b600082825260208201905092915050565b600081905092915050565b60006112a1826113ba565b91506112ac836113ba565b9250827fffffffffffffffffffffffffffffffffffffffffffffffffffffffffffffffff038211156112e1576112e0611485565b5b828201905092915050565b60006112f7826113ba565b9150611302836113ba565b9250817fffffffffffffffffffffffffffffffffffffffffffffffffffffffffffffffff048311821515161561133b5761133a611485565b5b828202905092915050565b60006113518261139a565b9050919050565b60008115159050919050565b6000819050919050565b60007fffffffff0000000000000000000000000000000000000000000000000000000082169050919050565b600073ffffffffffffffffffffffffffffffffffffffff82169050919050565b6000819050919050565b60006113cf826113d6565b9050919050565b60006113e18261139a565b9050919050565b82818337600083830152505050565b60005b838110156114155780820151818401526020810190506113fa565b83811115611424576000848401525b50505050565b6000611435826113ba565b9150600082141561144957611448611485565b5b600182039050919050565b61145d826114e3565b810181811067ffffffffffffffff8211171561147c5761147b6114b4565b5b80604052505050565b7f4e487b7100000000000000000000000000000000000000000000000000000000600052601160045260246000fd5b7f4e487b7100000000000000000000000000000000000000000000000000000000600052604160045260246000fd5b6000601f19601f8301169050919050565b7f537472696e67733a20686578206c656e67746820696e73756666696369656e74600082015250565b7f416363657373436f6e74726f6c3a206163636f756e7420000000000000000000600082015250565b7f206973206d697373696e6720726f6c6520000000000000000000000000000000600082015250565b7f416363657373436f6e74726f6c3a2063616e206f6e6c792072656e6f756e636560008201527f20726f6c657320666f722073656c660000000000000000000000000000000000602082015250565b6115c781611346565b81146115d257600080fd5b50565b6115de81611364565b81146115e957600080fd5b50565b6115f58161136e565b811461160057600080fd5b50565b61160c816113ba565b811461161757600080fd5b5056fea26469706673582212202d56cf890ea6e442c850192065b6f7ba1bb9f3a14405882d502d83e341a522f364736f6c6343000804003360806040523480156200001157600080fd5b506040518060400160405280600b81526020017f5075626c69636174696f6e0000000000000000000000000000000000000000008152506040518060400160405280600381526020017f5055420000000000000000000000000000000000000000000000000000000000815250816000908051906020019062000096929190620000b8565b508060019080519060200190620000af929190620000b8565b505050620001cd565b828054620000c69062000168565b90600052602060002090601f016020900481019282620000ea576000855562000136565b82601f106200010557805160ff191683800117855562000136565b8280016001018555821562000136579182015b828111156200013557825182559160200191906001019062000118565b5b50905062000145919062000149565b5090565b5b80821115620001645760008160009055506001016200014a565b5090565b600060028204905060018216806200018157607f821691505b602082108114156200019857620001976200019e565b5b50919050565b7f4e487b7100000000000000000000000000000000000000000000000000000000600052602260045260246000fd5b61398880620001dd6000396000f3fe608060405234801561001057600080fd5b50600436106101215760003560e01c80634f6ccce7116100ad578063a22cb46511610071578063a22cb46514610354578063b88d4fde14610370578063c87b56dd1461038c578063e985e9c5146103bc578063f2dd4be8146103ec57610121565b80634f6ccce7146102765780636352211e146102a657806370a08231146102d657806395d89b41146103065780639fc53f301461032457610121565b806318160ddd116100f457806318160ddd146101c057806323b872dd146101de5780632f745c59146101fa57806337950cfb1461022a57806342842e0e1461025a57610121565b806301ffc9a71461012657806306fdde0314610156578063081812fc14610174578063095ea7b3146101a4575b600080fd5b610140600480360381019061013b91906126fb565b61041c565b60405161014d9190612c9a565b60405180910390f35b61015e61042e565b60405161016b9190612cb5565b60405180910390f35b61018e600480360381019061018991906127b4565b6104c0565b60405161019b9190612c33565b60405180910390f35b6101be60048036038101906101b99190612696565b610545565b005b6101c861065d565b6040516101d59190612f59565b60405180910390f35b6101f860048036038101906101f39190612590565b61066a565b005b610214600480360381019061020f9190612696565b6106ca565b6040516102219190612f59565b60405180910390f35b610244600480360381019061023f91906127b4565b61076f565b6040516102519190612f37565b60405180910390f35b610274600480360381019061026f9190612590565b610898565b005b610290600480360381019061028b91906127b4565b6108b8565b60405161029d9190612f59565b60405180910390f35b6102c060048036038101906102bb91906127b4565b61094f565b6040516102cd9190612c33565b60405180910390f35b6102f060048036038101906102eb919061252b565b610a01565b6040516102fd9190612f59565b60405180910390f35b61030e610ab9565b60405161031b9190612cb5565b60405180910390f35b61033e600480360381019061033991906126d2565b610b4b565b60405161034b9190612f59565b60405180910390f35b61036e6004803603810190610369919061265a565b610b68565b005b61038a600480360381019061038591906125df565b610ce9565b005b6103a660048036038101906103a191906127b4565b610d4b565b6040516103b39190612cb5565b60405180910390f35b6103d660048036038101906103d19190612554565b610d5d565b6040516103e39190612c9a565b60405180910390f35b6104066004803603810190610401919061274d565b610df1565b6040516104139190612f59565b60405180910390f35b600061042782610fac565b9050919050565b60606000805461043d906131ca565b80601f0160208091040260200160405190810160405280929190818152602001828054610469906131ca565b80156104b65780601f1061048b576101008083540402835291602001916104b6565b820191906000526020600020905b81548152906001019060200180831161049957829003601f168201915b5050505050905090565b60006104cb82611026565b61050a576040517f08c379a000000000000000000000000000000000000000000000000000000000815260040161050190612e77565b60405180910390fd5b6004600083815260200190815260200160002060009054906101000a900473ffffffffffffffffffffffffffffffffffffffff169050919050565b60006105508261094f565b90508073ffffffffffffffffffffffffffffffffffffffff168373ffffffffffffffffffffffffffffffffffffffff1614156105c1576040517f08c379a00000000000000000000000000000000000000000000000000000000081526004016105b890612ed7565b60405180910390fd5b8073ffffffffffffffffffffffffffffffffffffffff166105e0611092565b73ffffffffffffffffffffffffffffffffffffffff16148061060f575061060e81610609611092565b610d5d565b5b61064e576040517f08c379a000000000000000000000000000000000000000000000000000000000815260040161064590612db7565b60405180910390fd5b610658838361109a565b505050565b6000600880549050905090565b61067b610675611092565b82611153565b6106ba576040517f08c379a00000000000000000000000000000000000000000000000000000000081526004016106b190612ef7565b60405180910390fd5b6106c5838383611231565b505050565b60006106d583610a01565b8210610716576040517f08c379a000000000000000000000000000000000000000000000000000000000815260040161070d90612cf7565b60405180910390fd5b600660008473ffffffffffffffffffffffffffffffffffffffff1673ffffffffffffffffffffffffffffffffffffffff168152602001908152602001600020600083815260200190815260200160002054905092915050565b6107776122f9565b600d60008381526020019081526020016000206040518060800160405290816000820160009054906101000a900473ffffffffffffffffffffffffffffffffffffffff1673ffffffffffffffffffffffffffffffffffffffff1673ffffffffffffffffffffffffffffffffffffffff1681526020016001820180546107fb906131ca565b80601f0160208091040260200160405190810160405280929190818152602001828054610827906131ca565b80156108745780601f1061084957610100808354040283529160200191610874565b820191906000526020600020905b81548152906001019060200180831161085757829003601f168201915b50505050508152602001600282015481526020016003820154815250509050919050565b6108b383838360405180602001604052806000815250610ce9565b505050565b60006108c261065d565b8210610903576040517f08c379a00000000000000000000000000000000000000000000000000000000081526004016108fa90612f17565b60405180910390fd5b6008828154811061093d577f4e487b7100000000000000000000000000000000000000000000000000000000600052603260045260246000fd5b90600052602060002001549050919050565b6000806002600084815260200190815260200160002060009054906101000a900473ffffffffffffffffffffffffffffffffffffffff169050600073ffffffffffffffffffffffffffffffffffffffff168173ffffffffffffffffffffffffffffffffffffffff1614156109f8576040517f08c379a00000000000000000000000000000000000000000000000000000000081526004016109ef90612df7565b60405180910390fd5b80915050919050565b60008073ffffffffffffffffffffffffffffffffffffffff168273ffffffffffffffffffffffffffffffffffffffff161415610a72576040517f08c379a0000000000000000000000000000000000000000000000000000000008152600401610a6990612dd7565b60405180910390fd5b600360008373ffffffffffffffffffffffffffffffffffffffff1673ffffffffffffffffffffffffffffffffffffffff168152602001908152602001600020549050919050565b606060018054610ac8906131ca565b80601f0160208091040260200160405190810160405280929190818152602001828054610af4906131ca565b8015610b415780601f10610b1657610100808354040283529160200191610b41565b820191906000526020600020905b815481529060010190602001808311610b2457829003601f168201915b5050505050905090565b6000600c6000838152602001908152602001600020549050919050565b610b70611092565b73ffffffffffffffffffffffffffffffffffffffff168273ffffffffffffffffffffffffffffffffffffffff161415610bde576040517f08c379a0000000000000000000000000000000000000000000000000000000008152600401610bd590612d77565b60405180910390fd5b8060056000610beb611092565b73ffffffffffffffffffffffffffffffffffffffff1673ffffffffffffffffffffffffffffffffffffffff16815260200190815260200160002060008473ffffffffffffffffffffffffffffffffffffffff1673ffffffffffffffffffffffffffffffffffffffff16815260200190815260200160002060006101000a81548160ff0219169083151502179055508173ffffffffffffffffffffffffffffffffffffffff16610c98611092565b73ffffffffffffffffffffffffffffffffffffffff167f17307eab39ab6107e8899845ad3d59bd9653f200f220920489ca2b5937696c3183604051610cdd9190612c9a565b60405180910390a35050565b610cfa610cf4611092565b83611153565b610d39576040517f08c379a0000000000000000000000000000000000000000000000000000000008152600401610d3090612ef7565b60405180910390fd5b610d458484848461148d565b50505050565b6060610d56826114e9565b9050919050565b6000600560008473ffffffffffffffffffffffffffffffffffffffff1673ffffffffffffffffffffffffffffffffffffffff16815260200190815260200160002060008373ffffffffffffffffffffffffffffffffffffffff1673ffffffffffffffffffffffffffffffffffffffff16815260200190815260200160002060009054906101000a900460ff16905092915050565b600060011515610e008461163b565b151514610e42576040517f08c379a0000000000000000000000000000000000000000000000000000000008152600401610e3990612cd7565b60405180910390fd5b610e4c600b61166b565b6000610e58600b611681565b9050610e64338261168f565b610e7681610e718561185d565b611a0a565b80600c60008681526020019081526020016000208190555060405180608001604052803373ffffffffffffffffffffffffffffffffffffffff16815260200186815260200185815260200142815250600d600083815260200190815260200160002060008201518160000160006101000a81548173ffffffffffffffffffffffffffffffffffffffff021916908373ffffffffffffffffffffffffffffffffffffffff1602179055506020820151816001019080519060200190610f3b92919061233a565b5060408201518160020155606082015181600301559050503373ffffffffffffffffffffffffffffffffffffffff167faff28e6a8ee2c33dbe0b399f58eea0ec9f932b8aabc63bcccbb4776cb658c99286604051610f999190612cb5565b60405180910390a2809150509392505050565b60007f780e9d63000000000000000000000000000000000000000000000000000000007bffffffffffffffffffffffffffffffffffffffffffffffffffffffff1916827bffffffffffffffffffffffffffffffffffffffffffffffffffffffff1916148061101f575061101e82611a7e565b5b9050919050565b60008073ffffffffffffffffffffffffffffffffffffffff166002600084815260200190815260200160002060009054906101000a900473ffffffffffffffffffffffffffffffffffffffff1673ffffffffffffffffffffffffffffffffffffffff1614159050919050565b600033905090565b816004600083815260200190815260200160002060006101000a81548173ffffffffffffffffffffffffffffffffffffffff021916908373ffffffffffffffffffffffffffffffffffffffff160217905550808273ffffffffffffffffffffffffffffffffffffffff1661110d8361094f565b73ffffffffffffffffffffffffffffffffffffffff167f8c5be1e5ebec7d5bd14f71427d1e84f3dd0314c0f7b2291e5b200ac8c7c3b92560405160405180910390a45050565b600061115e82611026565b61119d576040517f08c379a000000000000000000000000000000000000000000000000000000000815260040161119490612d97565b60405180910390fd5b60006111a88361094f565b90508073ffffffffffffffffffffffffffffffffffffffff168473ffffffffffffffffffffffffffffffffffffffff16148061121757508373ffffffffffffffffffffffffffffffffffffffff166111ff846104c0565b73ffffffffffffffffffffffffffffffffffffffff16145b8061122857506112278185610d5d565b5b91505092915050565b8273ffffffffffffffffffffffffffffffffffffffff166112518261094f565b73ffffffffffffffffffffffffffffffffffffffff16146112a7576040517f08c379a000000000000000000000000000000000000000000000000000000000815260040161129e90612e97565b60405180910390fd5b600073ffffffffffffffffffffffffffffffffffffffff168273ffffffffffffffffffffffffffffffffffffffff161415611317576040517f08c379a000000000000000000000000000000000000000000000000000000000815260040161130e90612d57565b60405180910390fd5b611322838383611b60565b61132d60008261109a565b6001600360008573ffffffffffffffffffffffffffffffffffffffff1673ffffffffffffffffffffffffffffffffffffffff168152602001908152602001600020600082825461137d91906130d6565b925050819055506001600360008473ffffffffffffffffffffffffffffffffffffffff1673ffffffffffffffffffffffffffffffffffffffff16815260200190815260200160002060008282546113d4919061304f565b92505081905550816002600083815260200190815260200160002060006101000a81548173ffffffffffffffffffffffffffffffffffffffff021916908373ffffffffffffffffffffffffffffffffffffffff160217905550808273ffffffffffffffffffffffffffffffffffffffff168473ffffffffffffffffffffffffffffffffffffffff167fddf252ad1be2c89b69c2b068fc378daa952ba7f163c4a11628f55a4df523b3ef60405160405180910390a4505050565b611498848484611231565b6114a484848484611b70565b6114e3576040517f08c379a00000000000000000000000000000000000000000000000000000000081526004016114da90612d17565b60405180910390fd5b50505050565b60606114f482611026565b611533576040517f08c379a000000000000000000000000000000000000000000000000000000000815260040161152a90612e57565b60405180910390fd5b6000600a60008481526020019081526020016000208054611553906131ca565b80601f016020809104026020016040519081016040528092919081815260200182805461157f906131ca565b80156115cc5780601f106115a1576101008083540402835291602001916115cc565b820191906000526020600020905b8154815290600101906020018083116115af57829003601f168201915b5050505050905060006115dd611d07565b90506000815114156115f3578192505050611636565b600082511115611628578082604051602001611610929190612c0f565b60405160208183030381529060405292505050611636565b61163184611d44565b925050505b919050565b600080600c60008481526020019081526020016000205414156116615760019050611666565b600090505b919050565b6001816000016000828254019250508190555050565b600081600001549050919050565b600073ffffffffffffffffffffffffffffffffffffffff168273ffffffffffffffffffffffffffffffffffffffff1614156116ff576040517f08c379a00000000000000000000000000000000000000000000000000000000081526004016116f690612e37565b60405180910390fd5b61170881611026565b15611748576040517f08c379a000000000000000000000000000000000000000000000000000000000815260040161173f90612d37565b60405180910390fd5b61175460008383611b60565b6001600360008473ffffffffffffffffffffffffffffffffffffffff1673ffffffffffffffffffffffffffffffffffffffff16815260200190815260200160002060008282546117a4919061304f565b92505081905550816002600083815260200190815260200160002060006101000a81548173ffffffffffffffffffffffffffffffffffffffff021916908373ffffffffffffffffffffffffffffffffffffffff160217905550808273ffffffffffffffffffffffffffffffffffffffff16600073ffffffffffffffffffffffffffffffffffffffff167fddf252ad1be2c89b69c2b068fc378daa952ba7f163c4a11628f55a4df523b3ef60405160405180910390a45050565b606060008214156118a5576040518060400160405280600181526020017f30000000000000000000000000000000000000000000000000000000000000008152509050611a05565b600082905060005b600082146118d75780806118c09061322d565b915050600a826118d091906130a5565b91506118ad565b60008167ffffffffffffffff811115611919577f4e487b7100000000000000000000000000000000000000000000000000000000600052604160045260246000fd5b6040519080825280601f01601f19166020018201604052801561194b5781602001600182028036833780820191505090505b5090505b600085146119fe5760018261196491906130d6565b9150600a856119739190613276565b603061197f919061304f565b60f81b8183815181106119bb577f4e487b7100000000000000000000000000000000000000000000000000000000600052603260045260246000fd5b60200101907effffffffffffffffffffffffffffffffffffffffffffffffffffffffffffff1916908160001a905350600a856119f791906130a5565b945061194f565b8093505050505b919050565b611a1382611026565b611a52576040517f08c379a0000000000000000000000000000000000000000000000000000000008152600401611a4990612e17565b60405180910390fd5b80600a60008481526020019081526020016000209080519060200190611a7992919061233a565b505050565b60007f80ac58cd000000000000000000000000000000000000000000000000000000007bffffffffffffffffffffffffffffffffffffffffffffffffffffffff1916827bffffffffffffffffffffffffffffffffffffffffffffffffffffffff19161480611b4957507f5b5e139f000000000000000000000000000000000000000000000000000000007bffffffffffffffffffffffffffffffffffffffffffffffffffffffff1916827bffffffffffffffffffffffffffffffffffffffffffffffffffffffff1916145b80611b595750611b5882611deb565b5b9050919050565b611b6b838383611e55565b505050565b6000611b918473ffffffffffffffffffffffffffffffffffffffff16611f69565b15611cfa578373ffffffffffffffffffffffffffffffffffffffff1663150b7a02611bba611092565b8786866040518563ffffffff1660e01b8152600401611bdc9493929190612c4e565b602060405180830381600087803b158015611bf657600080fd5b505af1925050508015611c2757506040513d601f19601f82011682018060405250810190611c249190612724565b60015b611caa573d8060008114611c57576040519150601f19603f3d011682016040523d82523d6000602084013e611c5c565b606091505b50600081511415611ca2576040517f08c379a0000000000000000000000000000000000000000000000000000000008152600401611c9990612d17565b60405180910390fd5b805181602001fd5b63150b7a0260e01b7bffffffffffffffffffffffffffffffffffffffffffffffffffffffff1916817bffffffffffffffffffffffffffffffffffffffffffffffffffffffff191614915050611cff565b600190505b949350505050565b60606040518060400160405280602081526020017f68747470733a2f2f7777772e7075626c69636174696f6e2e636f6d2f6e66742f815250905090565b6060611d4f82611026565b611d8e576040517f08c379a0000000000000000000000000000000000000000000000000000000008152600401611d8590612eb7565b60405180910390fd5b6000611d98611d07565b90506000815111611db85760405180602001604052806000815250611de3565b80611dc28461185d565b604051602001611dd3929190612c0f565b6040516020818303038152906040525b915050919050565b60007f01ffc9a7000000000000000000000000000000000000000000000000000000007bffffffffffffffffffffffffffffffffffffffffffffffffffffffff1916827bffffffffffffffffffffffffffffffffffffffffffffffffffffffff1916149050919050565b611e60838383611f7c565b600073ffffffffffffffffffffffffffffffffffffffff168373ffffffffffffffffffffffffffffffffffffffff161415611ea357611e9e81611f81565b611ee2565b8173ffffffffffffffffffffffffffffffffffffffff168373ffffffffffffffffffffffffffffffffffffffff1614611ee157611ee08382611fca565b5b5b600073ffffffffffffffffffffffffffffffffffffffff168273ffffffffffffffffffffffffffffffffffffffff161415611f2557611f2081612137565b611f64565b8273ffffffffffffffffffffffffffffffffffffffff168273ffffffffffffffffffffffffffffffffffffffff1614611f6357611f62828261227a565b5b5b505050565b600080823b905060008111915050919050565b505050565b6008805490506009600083815260200190815260200160002081905550600881908060018154018082558091505060019003906000526020600020016000909190919091505550565b60006001611fd784610a01565b611fe191906130d6565b90506000600760008481526020019081526020016000205490508181146120c6576000600660008673ffffffffffffffffffffffffffffffffffffffff1673ffffffffffffffffffffffffffffffffffffffff168152602001908152602001600020600084815260200190815260200160002054905080600660008773ffffffffffffffffffffffffffffffffffffffff1673ffffffffffffffffffffffffffffffffffffffff168152602001908152602001600020600084815260200190815260200160002081905550816007600083815260200190815260200160002081905550505b6007600084815260200190815260200160002060009055600660008573ffffffffffffffffffffffffffffffffffffffff1673ffffffffffffffffffffffffffffffffffffffff16815260200190815260200160002060008381526020019081526020016000206000905550505050565b6000600160088054905061214b91906130d6565b90506000600960008481526020019081526020016000205490506000600883815481106121a1577f4e487b7100000000000000000000000000000000000000000000000000000000600052603260045260246000fd5b9060005260206000200154905080600883815481106121e9577f4e487b7100000000000000000000000000000000000000000000000000000000600052603260045260246000fd5b90600052602060002001819055508160096000838152602001908152602001600020819055506009600085815260200190815260200160002060009055600880548061225e577f4e487b7100000000000000000000000000000000000000000000000000000000600052603160045260246000fd5b6001900381819060005260206000200160009055905550505050565b600061228583610a01565b905081600660008573ffffffffffffffffffffffffffffffffffffffff1673ffffffffffffffffffffffffffffffffffffffff168152602001908152602001600020600083815260200190815260200160002081905550806007600084815260200190815260200160002081905550505050565b6040518060800160405280600073ffffffffffffffffffffffffffffffffffffffff1681526020016060815260200160008019168152602001600081525090565b828054612346906131ca565b90600052602060002090601f01602090048101928261236857600085556123af565b82601f1061238157805160ff19168380011785556123af565b828001600101855582156123af579182015b828111156123ae578251825591602001919060010190612393565b5b5090506123bc91906123c0565b5090565b5b808211156123d95760008160009055506001016123c1565b5090565b60006123f06123eb84612f99565b612f74565b90508281526020810184848401111561240857600080fd5b612413848285613188565b509392505050565b600061242e61242984612fca565b612f74565b90508281526020810184848401111561244657600080fd5b612451848285613188565b509392505050565b600081359050612468816138df565b92915050565b60008135905061247d816138f6565b92915050565b6000813590506124928161390d565b92915050565b6000813590506124a781613924565b92915050565b6000815190506124bc81613924565b92915050565b600082601f8301126124d357600080fd5b81356124e38482602086016123dd565b91505092915050565b600082601f8301126124fd57600080fd5b813561250d84826020860161241b565b91505092915050565b6000813590506125258161393b565b92915050565b60006020828403121561253d57600080fd5b600061254b84828501612459565b91505092915050565b6000806040838503121561256757600080fd5b600061257585828601612459565b925050602061258685828601612459565b9150509250929050565b6000806000606084860312156125a557600080fd5b60006125b386828701612459565b93505060206125c486828701612459565b92505060406125d586828701612516565b9150509250925092565b600080600080608085870312156125f557600080fd5b600061260387828801612459565b945050602061261487828801612459565b935050604061262587828801612516565b925050606085013567ffffffffffffffff81111561264257600080fd5b61264e878288016124c2565b91505092959194509250565b6000806040838503121561266d57600080fd5b600061267b85828601612459565b925050602061268c8582860161246e565b9150509250929050565b600080604083850312156126a957600080fd5b60006126b785828601612459565b92505060206126c885828601612516565b9150509250929050565b6000602082840312156126e457600080fd5b60006126f284828501612483565b91505092915050565b60006020828403121561270d57600080fd5b600061271b84828501612498565b91505092915050565b60006020828403121561273657600080fd5b6000612744848285016124ad565b91505092915050565b60008060006060848603121561276257600080fd5b600084013567ffffffffffffffff81111561277c57600080fd5b612788868287016124ec565b935050602061279986828701612483565b92505060406127aa86828701612516565b9150509250925092565b6000602082840312156127c657600080fd5b60006127d484828501612516565b91505092915050565b6127e68161310a565b82525050565b6127f58161310a565b82525050565b6128048161311c565b82525050565b61281381613128565b82525050565b600061282482612ffb565b61282e8185613011565b935061283e818560208601613197565b61284781613363565b840191505092915050565b600061285d82613006565b6128678185613022565b9350612877818560208601613197565b61288081613363565b840191505092915050565b600061289682613006565b6128a08185613033565b93506128b0818560208601613197565b6128b981613363565b840191505092915050565b60006128cf82613006565b6128d98185613044565b93506128e9818560208601613197565b80840191505092915050565b6000612902603b83613033565b915061290d82613374565b604082019050919050565b6000612925602b83613033565b9150612930826133c3565b604082019050919050565b6000612948603283613033565b915061295382613412565b604082019050919050565b600061296b601c83613033565b915061297682613461565b602082019050919050565b600061298e602483613033565b91506129998261348a565b604082019050919050565b60006129b1601983613033565b91506129bc826134d9565b602082019050919050565b60006129d4602c83613033565b91506129df82613502565b604082019050919050565b60006129f7603883613033565b9150612a0282613551565b604082019050919050565b6000612a1a602a83613033565b9150612a25826135a0565b604082019050919050565b6000612a3d602983613033565b9150612a48826135ef565b604082019050919050565b6000612a60602e83613033565b9150612a6b8261363e565b604082019050919050565b6000612a83602083613033565b9150612a8e8261368d565b602082019050919050565b6000612aa6603183613033565b9150612ab1826136b6565b604082019050919050565b6000612ac9602c83613033565b9150612ad482613705565b604082019050919050565b6000612aec602983613033565b9150612af782613754565b604082019050919050565b6000612b0f602f83613033565b9150612b1a826137a3565b604082019050919050565b6000612b32602183613033565b9150612b3d826137f2565b604082019050919050565b6000612b55603183613033565b9150612b6082613841565b604082019050919050565b6000612b78602c83613033565b9150612b8382613890565b604082019050919050565b6000608083016000830151612ba660008601826127dd565b5060208301518482036020860152612bbe8282612852565b9150506040830151612bd3604086018261280a565b506060830151612be66060860182612bf1565b508091505092915050565b612bfa8161317e565b82525050565b612c098161317e565b82525050565b6000612c1b82856128c4565b9150612c2782846128c4565b91508190509392505050565b6000602082019050612c4860008301846127ec565b92915050565b6000608082019050612c6360008301876127ec565b612c7060208301866127ec565b612c7d6040830185612c00565b8181036060830152612c8f8184612819565b905095945050505050565b6000602082019050612caf60008301846127fb565b92915050565b60006020820190508181036000830152612ccf818461288b565b905092915050565b60006020820190508181036000830152612cf0816128f5565b9050919050565b60006020820190508181036000830152612d1081612918565b9050919050565b60006020820190508181036000830152612d308161293b565b9050919050565b60006020820190508181036000830152612d508161295e565b9050919050565b60006020820190508181036000830152612d7081612981565b9050919050565b60006020820190508181036000830152612d90816129a4565b9050919050565b60006020820190508181036000830152612db0816129c7565b9050919050565b60006020820190508181036000830152612dd0816129ea565b9050919050565b60006020820190508181036000830152612df081612a0d565b9050919050565b60006020820190508181036000830152612e1081612a30565b9050919050565b60006020820190508181036000830152612e3081612a53565b9050919050565b60006020820190508181036000830152612e5081612a76565b9050919050565b60006020820190508181036000830152612e7081612a99565b9050919050565b60006020820190508181036000830152612e9081612abc565b9050919050565b60006020820190508181036000830152612eb081612adf565b9050919050565b60006020820190508181036000830152612ed081612b02565b9050919050565b60006020820190508181036000830152612ef081612b25565b9050919050565b60006020820190508181036000830152612f1081612b48565b9050919050565b60006020820190508181036000830152612f3081612b6b565b9050919050565b60006020820190508181036000830152612f518184612b8e565b905092915050565b6000602082019050612f6e6000830184612c00565b92915050565b6000612f7e612f8f565b9050612f8a82826131fc565b919050565b6000604051905090565b600067ffffffffffffffff821115612fb457612fb3613334565b5b612fbd82613363565b9050602081019050919050565b600067ffffffffffffffff821115612fe557612fe4613334565b5b612fee82613363565b9050602081019050919050565b600081519050919050565b600081519050919050565b600082825260208201905092915050565b600082825260208201905092915050565b600082825260208201905092915050565b600081905092915050565b600061305a8261317e565b91506130658361317e565b9250827fffffffffffffffffffffffffffffffffffffffffffffffffffffffffffffffff0382111561309a576130996132a7565b5b828201905092915050565b60006130b08261317e565b91506130bb8361317e565b9250826130cb576130ca6132d6565b5b828204905092915050565b60006130e18261317e565b91506130ec8361317e565b9250828210156130ff576130fe6132a7565b5b828203905092915050565b60006131158261315e565b9050919050565b60008115159050919050565b6000819050919050565b60007fffffffff0000000000000000000000000000000000000000000000000000000082169050919050565b600073ffffffffffffffffffffffffffffffffffffffff82169050919050565b6000819050919050565b82818337600083830152505050565b60005b838110156131b557808201518184015260208101905061319a565b838111156131c4576000848401525b50505050565b600060028204905060018216806131e257607f821691505b602082108114156131f6576131f5613305565b5b50919050565b61320582613363565b810181811067ffffffffffffffff8211171561322457613223613334565b5b80604052505050565b60006132388261317e565b91507fffffffffffffffffffffffffffffffffffffffffffffffffffffffffffffffff82141561326b5761326a6132a7565b5b600182019050919050565b60006132818261317e565b915061328c8361317e565b92508261329c5761329b6132d6565b5b828206905092915050565b7f4e487b7100000000000000000000000000000000000000000000000000000000600052601160045260246000fd5b7f4e487b7100000000000000000000000000000000000000000000000000000000600052601260045260246000fd5b7f4e487b7100000000000000000000000000000000000000000000000000000000600052602260045260246000fd5b7f4e487b7100000000000000000000000000000000000000000000000000000000600052604160045260246000fd5b6000601f19601f8301169050919050565b7f5075626c69636174696f6e4d61676e6574203a207468697320636f6e74656e7460008201527f2068617320616c7265616479206265656e207075626c69736865640000000000602082015250565b7f455243373231456e756d657261626c653a206f776e657220696e646578206f7560008201527f74206f6620626f756e6473000000000000000000000000000000000000000000602082015250565b7f4552433732313a207472616e7366657220746f206e6f6e20455243373231526560008201527f63656976657220696d706c656d656e7465720000000000000000000000000000602082015250565b7f4552433732313a20746f6b656e20616c7265616479206d696e74656400000000600082015250565b7f4552433732313a207472616e7366657220746f20746865207a65726f2061646460008201527f7265737300000000000000000000000000000000000000000000000000000000602082015250565b7f4552433732313a20617070726f766520746f2063616c6c657200000000000000600082015250565b7f4552433732313a206f70657261746f7220717565727920666f72206e6f6e657860008201527f697374656e7420746f6b656e0000000000000000000000000000000000000000602082015250565b7f4552433732313a20617070726f76652063616c6c6572206973206e6f74206f7760008201527f6e6572206e6f7220617070726f76656420666f7220616c6c0000000000000000602082015250565b7f4552433732313a2062616c616e636520717565727920666f7220746865207a6560008201527f726f206164647265737300000000000000000000000000000000000000000000602082015250565b7f4552433732313a206f776e657220717565727920666f72206e6f6e657869737460008201527f656e7420746f6b656e0000000000000000000000000000000000000000000000602082015250565b7f45524337323155524953746f726167653a2055524920736574206f66206e6f6e60008201527f6578697374656e7420746f6b656e000000000000000000000000000000000000602082015250565b7f4552433732313a206d696e7420746f20746865207a65726f2061646472657373600082015250565b7f45524337323155524953746f726167653a2055524920717565727920666f722060008201527f6e6f6e6578697374656e7420746f6b656e000000000000000000000000000000602082015250565b7f4552433732313a20617070726f76656420717565727920666f72206e6f6e657860008201527f697374656e7420746f6b656e0000000000000000000000000000000000000000602082015250565b7f4552433732313a207472616e73666572206f6620746f6b656e2074686174206960008201527f73206e6f74206f776e0000000000000000000000000000000000000000000000602082015250565b7f4552433732314d657461646174613a2055524920717565727920666f72206e6f60008201527f6e6578697374656e7420746f6b656e0000000000000000000000000000000000602082015250565b7f4552433732313a20617070726f76616c20746f2063757272656e74206f776e6560008201527f7200000000000000000000000000000000000000000000000000000000000000602082015250565b7f4552433732313a207472616e736665722063616c6c6572206973206e6f74206f60008201527f776e6572206e6f7220617070726f766564000000000000000000000000000000602082015250565b7f455243373231456e756d657261626c653a20676c6f62616c20696e646578206f60008201527f7574206f6620626f756e64730000000000000000000000000000000000000000602082015250565b6138e88161310a565b81146138f357600080fd5b50565b6138ff8161311c565b811461390a57600080fd5b50565b61391681613128565b811461392157600080fd5b50565b61392d81613132565b811461393857600080fd5b50565b6139448161317e565b811461394f57600080fd5b5056fea26469706673582212206c2951d63b72c9c09bb241c459abd0e9ad059165b6f40698b0318917997483d164736f6c63430008040033",
  "linkReferences": {},
  "deployedLinkReferences": {}
}