{
  "_format": "hh-sol-artifact-1",
  "contractName": "PublicationMagnet",
  "sourceName": "contracts/PublicationMagnet.sol",
  "abi": [
    {
      "inputs": [],
      "stateMutability": "nonpayable",
      "type": "constructor"
    },
    {
      "anonymous": false,
      "inputs": [
        {
          "indexed": true,
          "internalType": "address",
          "name": "owner",
          "type": "address"
        },
        {
          "indexed": true,
          "internalType": "address",
          "name": "approved",
          "type": "address"
        },
        {
          "indexed": true,
          "internalType": "uint256",
          "name": "tokenId",
          "type": "uint256"
        }
      ],
      "name": "Approval",
      "type": "event"
    },
    {
      "anonymous": false,
      "inputs": [
        {
          "indexed": true,
          "internalType": "address",
          "name": "owner",
          "type": "address"
        },
        {
          "indexed": true,
          "internalType": "address",
          "name": "operator",
          "type": "address"
        },
        {
          "indexed": false,
          "internalType": "bool",
          "name": "approved",
          "type": "bool"
        }
      ],
      "name": "ApprovalForAll",
      "type": "event"
    },
    {
      "anonymous": false,
      "inputs": [
        {
          "indexed": true,
          "internalType": "address",
          "name": "writer",
          "type": "address"
        },
        {
          "indexed": false,
          "internalType": "string",
          "name": "content",
          "type": "string"
        }
      ],
      "name": "Published",
      "type": "event"
    },
    {
      "anonymous": false,
      "inputs": [
        {
          "indexed": true,
          "internalType": "address",
          "name": "from",
          "type": "address"
        },
        {
          "indexed": true,
          "internalType": "address",
          "name": "to",
          "type": "address"
        },
        {
          "indexed": true,
          "internalType": "uint256",
          "name": "tokenId",
          "type": "uint256"
        }
      ],
      "name": "Transfer",
      "type": "event"
    },
    {
      "inputs": [
        {
          "internalType": "address",
          "name": "to",
          "type": "address"
        },
        {
          "internalType": "uint256",
          "name": "tokenId",
          "type": "uint256"
        }
      ],
      "name": "approve",
      "outputs": [],
      "stateMutability": "nonpayable",
      "type": "function"
    },
    {
      "inputs": [
        {
          "internalType": "address",
          "name": "owner",
          "type": "address"
        }
      ],
      "name": "balanceOf",
      "outputs": [
        {
          "internalType": "uint256",
          "name": "",
          "type": "uint256"
        }
      ],
      "stateMutability": "view",
      "type": "function"
    },
    {
      "inputs": [
        {
          "internalType": "uint256",
          "name": "tokenId",
          "type": "uint256"
        }
      ],
      "name": "getApproved",
      "outputs": [
        {
          "internalType": "address",
          "name": "",
          "type": "address"
        }
      ],
      "stateMutability": "view",
      "type": "function"
    },
    {
      "inputs": [
        {
          "internalType": "address",
          "name": "author",
          "type": "address"
        }
      ],
      "name": "getIdByAuthor",
      "outputs": [
        {
          "internalType": "uint256[]",
          "name": "",
          "type": "uint256[]"
        }
      ],
      "stateMutability": "view",
      "type": "function"
    },
    {
      "inputs": [
        {
          "internalType": "bytes32",
          "name": "hashContent",
          "type": "bytes32"
        }
      ],
      "name": "getIdByHash",
      "outputs": [
        {
          "internalType": "uint256",
          "name": "",
          "type": "uint256"
        }
      ],
      "stateMutability": "view",
      "type": "function"
    },
    {
      "inputs": [
        {
          "internalType": "uint256",
          "name": "id",
          "type": "uint256"
        }
      ],
      "name": "getPublicationById",
      "outputs": [
        {
          "components": [
            {
              "internalType": "address",
              "name": "author",
              "type": "address"
            },
            {
              "internalType": "string",
              "name": "content",
              "type": "string"
            },
            {
              "internalType": "bytes32",
              "name": "hashContent",
              "type": "bytes32"
            },
            {
              "internalType": "uint256",
              "name": "date",
              "type": "uint256"
            }
          ],
          "internalType": "struct PublicationMagnet.Publication",
          "name": "",
          "type": "tuple"
        }
      ],
      "stateMutability": "view",
      "type": "function"
    },
    {
      "inputs": [
        {
          "internalType": "address",
          "name": "owner",
          "type": "address"
        },
        {
          "internalType": "address",
          "name": "operator",
          "type": "address"
        }
      ],
      "name": "isApprovedForAll",
      "outputs": [
        {
          "internalType": "bool",
          "name": "",
          "type": "bool"
        }
      ],
      "stateMutability": "view",
      "type": "function"
    },
    {
      "inputs": [],
      "name": "name",
      "outputs": [
        {
          "internalType": "string",
          "name": "",
          "type": "string"
        }
      ],
      "stateMutability": "view",
      "type": "function"
    },
    {
      "inputs": [
        {
          "internalType": "uint256",
          "name": "tokenId",
          "type": "uint256"
        }
      ],
      "name": "ownerOf",
      "outputs": [
        {
          "internalType": "address",
          "name": "",
          "type": "address"
        }
      ],
      "stateMutability": "view",
      "type": "function"
    },
    {
      "inputs": [
        {
          "internalType": "string",
          "name": "content",
          "type": "string"
        },
        {
          "internalType": "bytes32",
          "name": "hashContent",
          "type": "bytes32"
        },
        {
          "internalType": "uint256",
          "name": "uriId",
          "type": "uint256"
        }
      ],
      "name": "publish",
      "outputs": [
        {
          "internalType": "uint256",
          "name": "",
          "type": "uint256"
        }
      ],
      "stateMutability": "nonpayable",
      "type": "function"
    },
    {
      "inputs": [
        {
          "internalType": "address",
          "name": "from",
          "type": "address"
        },
        {
          "internalType": "address",
          "name": "to",
          "type": "address"
        },
        {
          "internalType": "uint256",
          "name": "tokenId",
          "type": "uint256"
        }
      ],
      "name": "safeTransferFrom",
      "outputs": [],
      "stateMutability": "nonpayable",
      "type": "function"
    },
    {
      "inputs": [
        {
          "internalType": "address",
          "name": "from",
          "type": "address"
        },
        {
          "internalType": "address",
          "name": "to",
          "type": "address"
        },
        {
          "internalType": "uint256",
          "name": "tokenId",
          "type": "uint256"
        },
        {
          "internalType": "bytes",
          "name": "_data",
          "type": "bytes"
        }
      ],
      "name": "safeTransferFrom",
      "outputs": [],
      "stateMutability": "nonpayable",
      "type": "function"
    },
    {
      "inputs": [
        {
          "internalType": "address",
          "name": "operator",
          "type": "address"
        },
        {
          "internalType": "bool",
          "name": "approved",
          "type": "bool"
        }
      ],
      "name": "setApprovalForAll",
      "outputs": [],
      "stateMutability": "nonpayable",
      "type": "function"
    },
    {
      "inputs": [
        {
          "internalType": "bytes4",
          "name": "interfaceId",
          "type": "bytes4"
        }
      ],
      "name": "supportsInterface",
      "outputs": [
        {
          "internalType": "bool",
          "name": "",
          "type": "bool"
        }
      ],
      "stateMutability": "view",
      "type": "function"
    },
    {
      "inputs": [],
      "name": "symbol",
      "outputs": [
        {
          "internalType": "string",
          "name": "",
          "type": "string"
        }
      ],
      "stateMutability": "view",
      "type": "function"
    },
    {
      "inputs": [
        {
          "internalType": "uint256",
          "name": "index",
          "type": "uint256"
        }
      ],
      "name": "tokenByIndex",
      "outputs": [
        {
          "internalType": "uint256",
          "name": "",
          "type": "uint256"
        }
      ],
      "stateMutability": "view",
      "type": "function"
    },
    {
      "inputs": [
        {
          "internalType": "address",
          "name": "owner",
          "type": "address"
        },
        {
          "internalType": "uint256",
          "name": "index",
          "type": "uint256"
        }
      ],
      "name": "tokenOfOwnerByIndex",
      "outputs": [
        {
          "internalType": "uint256",
          "name": "",
          "type": "uint256"
        }
      ],
      "stateMutability": "view",
      "type": "function"
    },
    {
      "inputs": [
        {
          "internalType": "uint256",
          "name": "tokenId",
          "type": "uint256"
        }
      ],
      "name": "tokenURI",
      "outputs": [
        {
          "internalType": "string",
          "name": "",
          "type": "string"
        }
      ],
      "stateMutability": "view",
      "type": "function"
    },
    {
      "inputs": [],
      "name": "totalSupply",
      "outputs": [
        {
          "internalType": "uint256",
          "name": "",
          "type": "uint256"
        }
      ],
      "stateMutability": "view",
      "type": "function"
    },
    {
      "inputs": [
        {
          "internalType": "address",
          "name": "from",
          "type": "address"
        },
        {
          "internalType": "address",
          "name": "to",
          "type": "address"
        },
        {
          "internalType": "uint256",
          "name": "tokenId",
          "type": "uint256"
        }
      ],
      "name": "transferFrom",
      "outputs": [],
      "stateMutability": "nonpayable",
      "type": "function"
    }
  ],
  "bytecode": "0x60806040523480156200001157600080fd5b506040518060400160405280600b81526020017f5075626c69636174696f6e0000000000000000000000000000000000000000008152506040518060400160405280600381526020017f5055420000000000000000000000000000000000000000000000000000000000815250816000908051906020019062000096929190620000b8565b508060019080519060200190620000af929190620000b8565b505050620001cd565b828054620000c69062000168565b90600052602060002090601f016020900481019282620000ea576000855562000136565b82601f106200010557805160ff191683800117855562000136565b8280016001018555821562000136579182015b828111156200013557825182559160200191906001019062000118565b5b50905062000145919062000149565b5090565b5b80821115620001645760008160009055506001016200014a565b5090565b600060028204905060018216806200018157607f821691505b602082108114156200019857620001976200019e565b5b50919050565b7f4e487b7100000000000000000000000000000000000000000000000000000000600052602260045260246000fd5b613b9180620001dd6000396000f3fe608060405234801561001057600080fd5b506004361061012c5760003560e01c80636352211e116100ad578063b88d4fde11610071578063b88d4fde1461037b578063c87b56dd14610397578063cf98c2f6146103c7578063e985e9c5146103f7578063f2dd4be8146104275761012c565b80636352211e146102b157806370a08231146102e157806395d89b41146103115780639fc53f301461032f578063a22cb4651461035f5761012c565b806323b872dd116100f457806323b872dd146101e95780632f745c591461020557806337950cfb1461023557806342842e0e146102655780634f6ccce7146102815761012c565b806301ffc9a71461013157806306fdde0314610161578063081812fc1461017f578063095ea7b3146101af57806318160ddd146101cb575b600080fd5b61014b60048036038101906101469190612833565b610457565b6040516101589190612e6a565b60405180910390f35b610169610469565b6040516101769190612e85565b60405180910390f35b610199600480360381019061019491906128ec565b6104fb565b6040516101a69190612de1565b60405180910390f35b6101c960048036038101906101c491906127ce565b610580565b005b6101d3610698565b6040516101e09190613129565b60405180910390f35b61020360048036038101906101fe91906126c8565b6106a5565b005b61021f600480360381019061021a91906127ce565b610705565b60405161022c9190613129565b60405180910390f35b61024f600480360381019061024a91906128ec565b6107aa565b60405161025c9190613107565b60405180910390f35b61027f600480360381019061027a91906126c8565b6108d3565b005b61029b600480360381019061029691906128ec565b6108f3565b6040516102a89190613129565b60405180910390f35b6102cb60048036038101906102c691906128ec565b61098a565b6040516102d89190612de1565b60405180910390f35b6102fb60048036038101906102f69190612663565b610a3c565b6040516103089190613129565b60405180910390f35b610319610af4565b6040516103269190612e85565b60405180910390f35b6103496004803603810190610344919061280a565b610b86565b6040516103569190613129565b60405180910390f35b61037960048036038101906103749190612792565b610ba3565b005b61039560048036038101906103909190612717565b610d24565b005b6103b160048036038101906103ac91906128ec565b610d86565b6040516103be9190612e85565b60405180910390f35b6103e160048036038101906103dc9190612663565b610d98565b6040516103ee9190612e48565b60405180910390f35b610411600480360381019061040c919061268c565b610e2f565b60405161041e9190612e6a565b60405180910390f35b610441600480360381019061043c9190612885565b610ec3565b60405161044e9190613129565b60405180910390f35b6000610462826110e4565b9050919050565b606060008054610478906133d3565b80601f01602080910402602001604051908101604052809291908181526020018280546104a4906133d3565b80156104f15780601f106104c6576101008083540402835291602001916104f1565b820191906000526020600020905b8154815290600101906020018083116104d457829003601f168201915b5050505050905090565b60006105068261115e565b610545576040517f08c379a000000000000000000000000000000000000000000000000000000000815260040161053c90613047565b60405180910390fd5b6004600083815260200190815260200160002060009054906101000a900473ffffffffffffffffffffffffffffffffffffffff169050919050565b600061058b8261098a565b90508073ffffffffffffffffffffffffffffffffffffffff168373ffffffffffffffffffffffffffffffffffffffff1614156105fc576040517f08c379a00000000000000000000000000000000000000000000000000000000081526004016105f3906130a7565b60405180910390fd5b8073ffffffffffffffffffffffffffffffffffffffff1661061b6111ca565b73ffffffffffffffffffffffffffffffffffffffff16148061064a5750610649816106446111ca565b610e2f565b5b610689576040517f08c379a000000000000000000000000000000000000000000000000000000000815260040161068090612f87565b60405180910390fd5b61069383836111d2565b505050565b6000600880549050905090565b6106b66106b06111ca565b8261128b565b6106f5576040517f08c379a00000000000000000000000000000000000000000000000000000000081526004016106ec906130c7565b60405180910390fd5b610700838383611369565b505050565b600061071083610a3c565b8210610751576040517f08c379a000000000000000000000000000000000000000000000000000000000815260040161074890612ec7565b60405180910390fd5b600660008473ffffffffffffffffffffffffffffffffffffffff1673ffffffffffffffffffffffffffffffffffffffff168152602001908152602001600020600083815260200190815260200160002054905092915050565b6107b2612431565b600e60008381526020019081526020016000206040518060800160405290816000820160009054906101000a900473ffffffffffffffffffffffffffffffffffffffff1673ffffffffffffffffffffffffffffffffffffffff1673ffffffffffffffffffffffffffffffffffffffff168152602001600182018054610836906133d3565b80601f0160208091040260200160405190810160405280929190818152602001828054610862906133d3565b80156108af5780601f10610884576101008083540402835291602001916108af565b820191906000526020600020905b81548152906001019060200180831161089257829003601f168201915b50505050508152602001600282015481526020016003820154815250509050919050565b6108ee83838360405180602001604052806000815250610d24565b505050565b60006108fd610698565b821061093e576040517f08c379a0000000000000000000000000000000000000000000000000000000008152600401610935906130e7565b60405180910390fd5b60088281548110610978577f4e487b7100000000000000000000000000000000000000000000000000000000600052603260045260246000fd5b90600052602060002001549050919050565b6000806002600084815260200190815260200160002060009054906101000a900473ffffffffffffffffffffffffffffffffffffffff169050600073ffffffffffffffffffffffffffffffffffffffff168173ffffffffffffffffffffffffffffffffffffffff161415610a33576040517f08c379a0000000000000000000000000000000000000000000000000000000008152600401610a2a90612fc7565b60405180910390fd5b80915050919050565b60008073ffffffffffffffffffffffffffffffffffffffff168273ffffffffffffffffffffffffffffffffffffffff161415610aad576040517f08c379a0000000000000000000000000000000000000000000000000000000008152600401610aa490612fa7565b60405180910390fd5b600360008373ffffffffffffffffffffffffffffffffffffffff1673ffffffffffffffffffffffffffffffffffffffff168152602001908152602001600020549050919050565b606060018054610b03906133d3565b80601f0160208091040260200160405190810160405280929190818152602001828054610b2f906133d3565b8015610b7c5780601f10610b5157610100808354040283529160200191610b7c565b820191906000526020600020905b815481529060010190602001808311610b5f57829003601f168201915b5050505050905090565b6000600c6000838152602001908152602001600020549050919050565b610bab6111ca565b73ffffffffffffffffffffffffffffffffffffffff168273ffffffffffffffffffffffffffffffffffffffff161415610c19576040517f08c379a0000000000000000000000000000000000000000000000000000000008152600401610c1090612f47565b60405180910390fd5b8060056000610c266111ca565b73ffffffffffffffffffffffffffffffffffffffff1673ffffffffffffffffffffffffffffffffffffffff16815260200190815260200160002060008473ffffffffffffffffffffffffffffffffffffffff1673ffffffffffffffffffffffffffffffffffffffff16815260200190815260200160002060006101000a81548160ff0219169083151502179055508173ffffffffffffffffffffffffffffffffffffffff16610cd36111ca565b73ffffffffffffffffffffffffffffffffffffffff167f17307eab39ab6107e8899845ad3d59bd9653f200f220920489ca2b5937696c3183604051610d189190612e6a565b60405180910390a35050565b610d35610d2f6111ca565b8361128b565b610d74576040517f08c379a0000000000000000000000000000000000000000000000000000000008152600401610d6b906130c7565b60405180910390fd5b610d80848484846115c5565b50505050565b6060610d9182611621565b9050919050565b6060600d60008373ffffffffffffffffffffffffffffffffffffffff1673ffffffffffffffffffffffffffffffffffffffff168152602001908152602001600020805480602002602001604051908101604052809291908181526020018280548015610e2357602002820191906000526020600020905b815481526020019060010190808311610e0f575b50505050509050919050565b6000600560008473ffffffffffffffffffffffffffffffffffffffff1673ffffffffffffffffffffffffffffffffffffffff16815260200190815260200160002060008373ffffffffffffffffffffffffffffffffffffffff1673ffffffffffffffffffffffffffffffffffffffff16815260200190815260200160002060009054906101000a900460ff16905092915050565b600060011515610ed284611773565b151514610f14576040517f08c379a0000000000000000000000000000000000000000000000000000000008152600401610f0b90612ea7565b60405180910390fd5b610f1e600b6117a3565b6000610f2a600b6117b9565b9050610f3633826117c7565b610f4881610f4385611995565b611b42565b80600c600086815260200190815260200160002081905550600d60003373ffffffffffffffffffffffffffffffffffffffff1673ffffffffffffffffffffffffffffffffffffffff16815260200190815260200160002081908060018154018082558091505060019003906000526020600020016000909190919091505560405180608001604052803373ffffffffffffffffffffffffffffffffffffffff16815260200186815260200185815260200142815250600e600083815260200190815260200160002060008201518160000160006101000a81548173ffffffffffffffffffffffffffffffffffffffff021916908373ffffffffffffffffffffffffffffffffffffffff1602179055506020820151816001019080519060200190611073929190612472565b5060408201518160020155606082015181600301559050503373ffffffffffffffffffffffffffffffffffffffff167faff28e6a8ee2c33dbe0b399f58eea0ec9f932b8aabc63bcccbb4776cb658c992866040516110d19190612e85565b60405180910390a2809150509392505050565b60007f780e9d63000000000000000000000000000000000000000000000000000000007bffffffffffffffffffffffffffffffffffffffffffffffffffffffff1916827bffffffffffffffffffffffffffffffffffffffffffffffffffffffff19161480611157575061115682611bb6565b5b9050919050565b60008073ffffffffffffffffffffffffffffffffffffffff166002600084815260200190815260200160002060009054906101000a900473ffffffffffffffffffffffffffffffffffffffff1673ffffffffffffffffffffffffffffffffffffffff1614159050919050565b600033905090565b816004600083815260200190815260200160002060006101000a81548173ffffffffffffffffffffffffffffffffffffffff021916908373ffffffffffffffffffffffffffffffffffffffff160217905550808273ffffffffffffffffffffffffffffffffffffffff166112458361098a565b73ffffffffffffffffffffffffffffffffffffffff167f8c5be1e5ebec7d5bd14f71427d1e84f3dd0314c0f7b2291e5b200ac8c7c3b92560405160405180910390a45050565b60006112968261115e565b6112d5576040517f08c379a00000000000000000000000000000000000000000000000000000000081526004016112cc90612f67565b60405180910390fd5b60006112e08361098a565b90508073ffffffffffffffffffffffffffffffffffffffff168473ffffffffffffffffffffffffffffffffffffffff16148061134f57508373ffffffffffffffffffffffffffffffffffffffff16611337846104fb565b73ffffffffffffffffffffffffffffffffffffffff16145b80611360575061135f8185610e2f565b5b91505092915050565b8273ffffffffffffffffffffffffffffffffffffffff166113898261098a565b73ffffffffffffffffffffffffffffffffffffffff16146113df576040517f08c379a00000000000000000000000000000000000000000000000000000000081526004016113d690613067565b60405180910390fd5b600073ffffffffffffffffffffffffffffffffffffffff168273ffffffffffffffffffffffffffffffffffffffff16141561144f576040517f08c379a000000000000000000000000000000000000000000000000000000000815260040161144690612f27565b60405180910390fd5b61145a838383611c98565b6114656000826111d2565b6001600360008573ffffffffffffffffffffffffffffffffffffffff1673ffffffffffffffffffffffffffffffffffffffff16815260200190815260200160002060008282546114b591906132df565b925050819055506001600360008473ffffffffffffffffffffffffffffffffffffffff1673ffffffffffffffffffffffffffffffffffffffff168152602001908152602001600020600082825461150c9190613258565b92505081905550816002600083815260200190815260200160002060006101000a81548173ffffffffffffffffffffffffffffffffffffffff021916908373ffffffffffffffffffffffffffffffffffffffff160217905550808273ffffffffffffffffffffffffffffffffffffffff168473ffffffffffffffffffffffffffffffffffffffff167fddf252ad1be2c89b69c2b068fc378daa952ba7f163c4a11628f55a4df523b3ef60405160405180910390a4505050565b6115d0848484611369565b6115dc84848484611ca8565b61161b576040517f08c379a000000000000000000000000000000000000000000000000000000000815260040161161290612ee7565b60405180910390fd5b50505050565b606061162c8261115e565b61166b576040517f08c379a000000000000000000000000000000000000000000000000000000000815260040161166290613027565b60405180910390fd5b6000600a6000848152602001908152602001600020805461168b906133d3565b80601f01602080910402602001604051908101604052809291908181526020018280546116b7906133d3565b80156117045780601f106116d957610100808354040283529160200191611704565b820191906000526020600020905b8154815290600101906020018083116116e757829003601f168201915b505050505090506000611715611e3f565b905060008151141561172b57819250505061176e565b600082511115611760578082604051602001611748929190612dbd565b6040516020818303038152906040529250505061176e565b61176984611e7c565b925050505b919050565b600080600c6000848152602001908152602001600020541415611799576001905061179e565b600090505b919050565b6001816000016000828254019250508190555050565b600081600001549050919050565b600073ffffffffffffffffffffffffffffffffffffffff168273ffffffffffffffffffffffffffffffffffffffff161415611837576040517f08c379a000000000000000000000000000000000000000000000000000000000815260040161182e90613007565b60405180910390fd5b6118408161115e565b15611880576040517f08c379a000000000000000000000000000000000000000000000000000000000815260040161187790612f07565b60405180910390fd5b61188c60008383611c98565b6001600360008473ffffffffffffffffffffffffffffffffffffffff1673ffffffffffffffffffffffffffffffffffffffff16815260200190815260200160002060008282546118dc9190613258565b92505081905550816002600083815260200190815260200160002060006101000a81548173ffffffffffffffffffffffffffffffffffffffff021916908373ffffffffffffffffffffffffffffffffffffffff160217905550808273ffffffffffffffffffffffffffffffffffffffff16600073ffffffffffffffffffffffffffffffffffffffff167fddf252ad1be2c89b69c2b068fc378daa952ba7f163c4a11628f55a4df523b3ef60405160405180910390a45050565b606060008214156119dd576040518060400160405280600181526020017f30000000000000000000000000000000000000000000000000000000000000008152509050611b3d565b600082905060005b60008214611a0f5780806119f890613436565b915050600a82611a0891906132ae565b91506119e5565b60008167ffffffffffffffff811115611a51577f4e487b7100000000000000000000000000000000000000000000000000000000600052604160045260246000fd5b6040519080825280601f01601f191660200182016040528015611a835781602001600182028036833780820191505090505b5090505b60008514611b3657600182611a9c91906132df565b9150600a85611aab919061347f565b6030611ab79190613258565b60f81b818381518110611af3577f4e487b7100000000000000000000000000000000000000000000000000000000600052603260045260246000fd5b60200101907effffffffffffffffffffffffffffffffffffffffffffffffffffffffffffff1916908160001a905350600a85611b2f91906132ae565b9450611a87565b8093505050505b919050565b611b4b8261115e565b611b8a576040517f08c379a0000000000000000000000000000000000000000000000000000000008152600401611b8190612fe7565b60405180910390fd5b80600a60008481526020019081526020016000209080519060200190611bb1929190612472565b505050565b60007f80ac58cd000000000000000000000000000000000000000000000000000000007bffffffffffffffffffffffffffffffffffffffffffffffffffffffff1916827bffffffffffffffffffffffffffffffffffffffffffffffffffffffff19161480611c8157507f5b5e139f000000000000000000000000000000000000000000000000000000007bffffffffffffffffffffffffffffffffffffffffffffffffffffffff1916827bffffffffffffffffffffffffffffffffffffffffffffffffffffffff1916145b80611c915750611c9082611f23565b5b9050919050565b611ca3838383611f8d565b505050565b6000611cc98473ffffffffffffffffffffffffffffffffffffffff166120a1565b15611e32578373ffffffffffffffffffffffffffffffffffffffff1663150b7a02611cf26111ca565b8786866040518563ffffffff1660e01b8152600401611d149493929190612dfc565b602060405180830381600087803b158015611d2e57600080fd5b505af1925050508015611d5f57506040513d601f19601f82011682018060405250810190611d5c919061285c565b60015b611de2573d8060008114611d8f576040519150601f19603f3d011682016040523d82523d6000602084013e611d94565b606091505b50600081511415611dda576040517f08c379a0000000000000000000000000000000000000000000000000000000008152600401611dd190612ee7565b60405180910390fd5b805181602001fd5b63150b7a0260e01b7bffffffffffffffffffffffffffffffffffffffffffffffffffffffff1916817bffffffffffffffffffffffffffffffffffffffffffffffffffffffff191614915050611e37565b600190505b949350505050565b60606040518060400160405280602081526020017f68747470733a2f2f7777772e7075626c69636174696f6e2e636f6d2f6e66742f815250905090565b6060611e878261115e565b611ec6576040517f08c379a0000000000000000000000000000000000000000000000000000000008152600401611ebd90613087565b60405180910390fd5b6000611ed0611e3f565b90506000815111611ef05760405180602001604052806000815250611f1b565b80611efa84611995565b604051602001611f0b929190612dbd565b6040516020818303038152906040525b915050919050565b60007f01ffc9a7000000000000000000000000000000000000000000000000000000007bffffffffffffffffffffffffffffffffffffffffffffffffffffffff1916827bffffffffffffffffffffffffffffffffffffffffffffffffffffffff1916149050919050565b611f988383836120b4565b600073ffffffffffffffffffffffffffffffffffffffff168373ffffffffffffffffffffffffffffffffffffffff161415611fdb57611fd6816120b9565b61201a565b8173ffffffffffffffffffffffffffffffffffffffff168373ffffffffffffffffffffffffffffffffffffffff1614612019576120188382612102565b5b5b600073ffffffffffffffffffffffffffffffffffffffff168273ffffffffffffffffffffffffffffffffffffffff16141561205d576120588161226f565b61209c565b8273ffffffffffffffffffffffffffffffffffffffff168273ffffffffffffffffffffffffffffffffffffffff161461209b5761209a82826123b2565b5b5b505050565b600080823b905060008111915050919050565b505050565b6008805490506009600083815260200190815260200160002081905550600881908060018154018082558091505060019003906000526020600020016000909190919091505550565b6000600161210f84610a3c565b61211991906132df565b90506000600760008481526020019081526020016000205490508181146121fe576000600660008673ffffffffffffffffffffffffffffffffffffffff1673ffffffffffffffffffffffffffffffffffffffff168152602001908152602001600020600084815260200190815260200160002054905080600660008773ffffffffffffffffffffffffffffffffffffffff1673ffffffffffffffffffffffffffffffffffffffff168152602001908152602001600020600084815260200190815260200160002081905550816007600083815260200190815260200160002081905550505b6007600084815260200190815260200160002060009055600660008573ffffffffffffffffffffffffffffffffffffffff1673ffffffffffffffffffffffffffffffffffffffff16815260200190815260200160002060008381526020019081526020016000206000905550505050565b6000600160088054905061228391906132df565b90506000600960008481526020019081526020016000205490506000600883815481106122d9577f4e487b7100000000000000000000000000000000000000000000000000000000600052603260045260246000fd5b906000526020600020015490508060088381548110612321577f4e487b7100000000000000000000000000000000000000000000000000000000600052603260045260246000fd5b906000526020600020018190555081600960008381526020019081526020016000208190555060096000858152602001908152602001600020600090556008805480612396577f4e487b7100000000000000000000000000000000000000000000000000000000600052603160045260246000fd5b6001900381819060005260206000200160009055905550505050565b60006123bd83610a3c565b905081600660008573ffffffffffffffffffffffffffffffffffffffff1673ffffffffffffffffffffffffffffffffffffffff168152602001908152602001600020600083815260200190815260200160002081905550806007600084815260200190815260200160002081905550505050565b6040518060800160405280600073ffffffffffffffffffffffffffffffffffffffff1681526020016060815260200160008019168152602001600081525090565b82805461247e906133d3565b90600052602060002090601f0160209004810192826124a057600085556124e7565b82601f106124b957805160ff19168380011785556124e7565b828001600101855582156124e7579182015b828111156124e65782518255916020019190600101906124cb565b5b5090506124f491906124f8565b5090565b5b808211156125115760008160009055506001016124f9565b5090565b600061252861252384613169565b613144565b90508281526020810184848401111561254057600080fd5b61254b848285613391565b509392505050565b60006125666125618461319a565b613144565b90508281526020810184848401111561257e57600080fd5b612589848285613391565b509392505050565b6000813590506125a081613ae8565b92915050565b6000813590506125b581613aff565b92915050565b6000813590506125ca81613b16565b92915050565b6000813590506125df81613b2d565b92915050565b6000815190506125f481613b2d565b92915050565b600082601f83011261260b57600080fd5b813561261b848260208601612515565b91505092915050565b600082601f83011261263557600080fd5b8135612645848260208601612553565b91505092915050565b60008135905061265d81613b44565b92915050565b60006020828403121561267557600080fd5b600061268384828501612591565b91505092915050565b6000806040838503121561269f57600080fd5b60006126ad85828601612591565b92505060206126be85828601612591565b9150509250929050565b6000806000606084860312156126dd57600080fd5b60006126eb86828701612591565b93505060206126fc86828701612591565b925050604061270d8682870161264e565b9150509250925092565b6000806000806080858703121561272d57600080fd5b600061273b87828801612591565b945050602061274c87828801612591565b935050604061275d8782880161264e565b925050606085013567ffffffffffffffff81111561277a57600080fd5b612786878288016125fa565b91505092959194509250565b600080604083850312156127a557600080fd5b60006127b385828601612591565b92505060206127c4858286016125a6565b9150509250929050565b600080604083850312156127e157600080fd5b60006127ef85828601612591565b92505060206128008582860161264e565b9150509250929050565b60006020828403121561281c57600080fd5b600061282a848285016125bb565b91505092915050565b60006020828403121561284557600080fd5b6000612853848285016125d0565b91505092915050565b60006020828403121561286e57600080fd5b600061287c848285016125e5565b91505092915050565b60008060006060848603121561289a57600080fd5b600084013567ffffffffffffffff8111156128b457600080fd5b6128c086828701612624565b93505060206128d1868287016125bb565b92505060406128e28682870161264e565b9150509250925092565b6000602082840312156128fe57600080fd5b600061290c8482850161264e565b91505092915050565b60006129218383612d9f565b60208301905092915050565b61293681613313565b82525050565b61294581613313565b82525050565b6000612956826131db565b6129608185613209565b935061296b836131cb565b8060005b8381101561299c5781516129838882612915565b975061298e836131fc565b92505060018101905061296f565b5085935050505092915050565b6129b281613325565b82525050565b6129c181613331565b82525050565b60006129d2826131e6565b6129dc818561321a565b93506129ec8185602086016133a0565b6129f58161356c565b840191505092915050565b6000612a0b826131f1565b612a15818561322b565b9350612a258185602086016133a0565b612a2e8161356c565b840191505092915050565b6000612a44826131f1565b612a4e818561323c565b9350612a5e8185602086016133a0565b612a678161356c565b840191505092915050565b6000612a7d826131f1565b612a87818561324d565b9350612a978185602086016133a0565b80840191505092915050565b6000612ab0603b8361323c565b9150612abb8261357d565b604082019050919050565b6000612ad3602b8361323c565b9150612ade826135cc565b604082019050919050565b6000612af660328361323c565b9150612b018261361b565b604082019050919050565b6000612b19601c8361323c565b9150612b248261366a565b602082019050919050565b6000612b3c60248361323c565b9150612b4782613693565b604082019050919050565b6000612b5f60198361323c565b9150612b6a826136e2565b602082019050919050565b6000612b82602c8361323c565b9150612b8d8261370b565b604082019050919050565b6000612ba560388361323c565b9150612bb08261375a565b604082019050919050565b6000612bc8602a8361323c565b9150612bd3826137a9565b604082019050919050565b6000612beb60298361323c565b9150612bf6826137f8565b604082019050919050565b6000612c0e602e8361323c565b9150612c1982613847565b604082019050919050565b6000612c3160208361323c565b9150612c3c82613896565b602082019050919050565b6000612c5460318361323c565b9150612c5f826138bf565b604082019050919050565b6000612c77602c8361323c565b9150612c828261390e565b604082019050919050565b6000612c9a60298361323c565b9150612ca58261395d565b604082019050919050565b6000612cbd602f8361323c565b9150612cc8826139ac565b604082019050919050565b6000612ce060218361323c565b9150612ceb826139fb565b604082019050919050565b6000612d0360318361323c565b9150612d0e82613a4a565b604082019050919050565b6000612d26602c8361323c565b9150612d3182613a99565b604082019050919050565b6000608083016000830151612d54600086018261292d565b5060208301518482036020860152612d6c8282612a00565b9150506040830151612d8160408601826129b8565b506060830151612d946060860182612d9f565b508091505092915050565b612da881613387565b82525050565b612db781613387565b82525050565b6000612dc98285612a72565b9150612dd58284612a72565b91508190509392505050565b6000602082019050612df6600083018461293c565b92915050565b6000608082019050612e11600083018761293c565b612e1e602083018661293c565b612e2b6040830185612dae565b8181036060830152612e3d81846129c7565b905095945050505050565b60006020820190508181036000830152612e62818461294b565b905092915050565b6000602082019050612e7f60008301846129a9565b92915050565b60006020820190508181036000830152612e9f8184612a39565b905092915050565b60006020820190508181036000830152612ec081612aa3565b9050919050565b60006020820190508181036000830152612ee081612ac6565b9050919050565b60006020820190508181036000830152612f0081612ae9565b9050919050565b60006020820190508181036000830152612f2081612b0c565b9050919050565b60006020820190508181036000830152612f4081612b2f565b9050919050565b60006020820190508181036000830152612f6081612b52565b9050919050565b60006020820190508181036000830152612f8081612b75565b9050919050565b60006020820190508181036000830152612fa081612b98565b9050919050565b60006020820190508181036000830152612fc081612bbb565b9050919050565b60006020820190508181036000830152612fe081612bde565b9050919050565b6000602082019050818103600083015261300081612c01565b9050919050565b6000602082019050818103600083015261302081612c24565b9050919050565b6000602082019050818103600083015261304081612c47565b9050919050565b6000602082019050818103600083015261306081612c6a565b9050919050565b6000602082019050818103600083015261308081612c8d565b9050919050565b600060208201905081810360008301526130a081612cb0565b9050919050565b600060208201905081810360008301526130c081612cd3565b9050919050565b600060208201905081810360008301526130e081612cf6565b9050919050565b6000602082019050818103600083015261310081612d19565b9050919050565b600060208201905081810360008301526131218184612d3c565b905092915050565b600060208201905061313e6000830184612dae565b92915050565b600061314e61315f565b905061315a8282613405565b919050565b6000604051905090565b600067ffffffffffffffff8211156131845761318361353d565b5b61318d8261356c565b9050602081019050919050565b600067ffffffffffffffff8211156131b5576131b461353d565b5b6131be8261356c565b9050602081019050919050565b6000819050602082019050919050565b600081519050919050565b600081519050919050565b600081519050919050565b6000602082019050919050565b600082825260208201905092915050565b600082825260208201905092915050565b600082825260208201905092915050565b600082825260208201905092915050565b600081905092915050565b600061326382613387565b915061326e83613387565b9250827fffffffffffffffffffffffffffffffffffffffffffffffffffffffffffffffff038211156132a3576132a26134b0565b5b828201905092915050565b60006132b982613387565b91506132c483613387565b9250826132d4576132d36134df565b5b828204905092915050565b60006132ea82613387565b91506132f583613387565b925082821015613308576133076134b0565b5b828203905092915050565b600061331e82613367565b9050919050565b60008115159050919050565b6000819050919050565b60007fffffffff0000000000000000000000000000000000000000000000000000000082169050919050565b600073ffffffffffffffffffffffffffffffffffffffff82169050919050565b6000819050919050565b82818337600083830152505050565b60005b838110156133be5780820151818401526020810190506133a3565b838111156133cd576000848401525b50505050565b600060028204905060018216806133eb57607f821691505b602082108114156133ff576133fe61350e565b5b50919050565b61340e8261356c565b810181811067ffffffffffffffff8211171561342d5761342c61353d565b5b80604052505050565b600061344182613387565b91507fffffffffffffffffffffffffffffffffffffffffffffffffffffffffffffffff821415613474576134736134b0565b5b600182019050919050565b600061348a82613387565b915061349583613387565b9250826134a5576134a46134df565b5b828206905092915050565b7f4e487b7100000000000000000000000000000000000000000000000000000000600052601160045260246000fd5b7f4e487b7100000000000000000000000000000000000000000000000000000000600052601260045260246000fd5b7f4e487b7100000000000000000000000000000000000000000000000000000000600052602260045260246000fd5b7f4e487b7100000000000000000000000000000000000000000000000000000000600052604160045260246000fd5b6000601f19601f8301169050919050565b7f5075626c69636174696f6e4d61676e6574203a207468697320636f6e74656e7460008201527f2068617320616c7265616479206265656e207075626c69736865640000000000602082015250565b7f455243373231456e756d657261626c653a206f776e657220696e646578206f7560008201527f74206f6620626f756e6473000000000000000000000000000000000000000000602082015250565b7f4552433732313a207472616e7366657220746f206e6f6e20455243373231526560008201527f63656976657220696d706c656d656e7465720000000000000000000000000000602082015250565b7f4552433732313a20746f6b656e20616c7265616479206d696e74656400000000600082015250565b7f4552433732313a207472616e7366657220746f20746865207a65726f2061646460008201527f7265737300000000000000000000000000000000000000000000000000000000602082015250565b7f4552433732313a20617070726f766520746f2063616c6c657200000000000000600082015250565b7f4552433732313a206f70657261746f7220717565727920666f72206e6f6e657860008201527f697374656e7420746f6b656e0000000000000000000000000000000000000000602082015250565b7f4552433732313a20617070726f76652063616c6c6572206973206e6f74206f7760008201527f6e6572206e6f7220617070726f76656420666f7220616c6c0000000000000000602082015250565b7f4552433732313a2062616c616e636520717565727920666f7220746865207a6560008201527f726f206164647265737300000000000000000000000000000000000000000000602082015250565b7f4552433732313a206f776e657220717565727920666f72206e6f6e657869737460008201527f656e7420746f6b656e0000000000000000000000000000000000000000000000602082015250565b7f45524337323155524953746f726167653a2055524920736574206f66206e6f6e60008201527f6578697374656e7420746f6b656e000000000000000000000000000000000000602082015250565b7f4552433732313a206d696e7420746f20746865207a65726f2061646472657373600082015250565b7f45524337323155524953746f726167653a2055524920717565727920666f722060008201527f6e6f6e6578697374656e7420746f6b656e000000000000000000000000000000602082015250565b7f4552433732313a20617070726f76656420717565727920666f72206e6f6e657860008201527f697374656e7420746f6b656e0000000000000000000000000000000000000000602082015250565b7f4552433732313a207472616e73666572206f6620746f6b656e2074686174206960008201527f73206e6f74206f776e0000000000000000000000000000000000000000000000602082015250565b7f4552433732314d657461646174613a2055524920717565727920666f72206e6f60008201527f6e6578697374656e7420746f6b656e0000000000000000000000000000000000602082015250565b7f4552433732313a20617070726f76616c20746f2063757272656e74206f776e6560008201527f7200000000000000000000000000000000000000000000000000000000000000602082015250565b7f4552433732313a207472616e736665722063616c6c6572206973206e6f74206f60008201527f776e6572206e6f7220617070726f766564000000000000000000000000000000602082015250565b7f455243373231456e756d657261626c653a20676c6f62616c20696e646578206f60008201527f7574206f6620626f756e64730000000000000000000000000000000000000000602082015250565b613af181613313565b8114613afc57600080fd5b50565b613b0881613325565b8114613b1357600080fd5b50565b613b1f81613331565b8114613b2a57600080fd5b50565b613b368161333b565b8114613b4157600080fd5b50565b613b4d81613387565b8114613b5857600080fd5b5056fea2646970667358221220dc39578255a69715d81aa01b5a9c0ee3fdcbe785acbefa789603d67f1b27995564736f6c63430008040033",
  "linkReferences": {},
  "deployedLinkReferences": {}
}