{
  "_format": "hh-sol-artifact-1",
  "contractName": "PublicationMagnet",
  "sourceName": "contracts/PublicationMagnet.sol",
  "abi": [
    {
      "inputs": [],
      "stateMutability": "nonpayable",
      "type": "constructor"
    },
    {
      "anonymous": false,
      "inputs": [
        {
          "indexed": true,
          "internalType": "address",
          "name": "owner",
          "type": "address"
        },
        {
          "indexed": true,
          "internalType": "address",
          "name": "approved",
          "type": "address"
        },
        {
          "indexed": true,
          "internalType": "uint256",
          "name": "tokenId",
          "type": "uint256"
        }
      ],
      "name": "Approval",
      "type": "event"
    },
    {
      "anonymous": false,
      "inputs": [
        {
          "indexed": true,
          "internalType": "address",
          "name": "owner",
          "type": "address"
        },
        {
          "indexed": true,
          "internalType": "address",
          "name": "operator",
          "type": "address"
        },
        {
          "indexed": false,
          "internalType": "bool",
          "name": "approved",
          "type": "bool"
        }
      ],
      "name": "ApprovalForAll",
      "type": "event"
    },
    {
      "anonymous": false,
      "inputs": [
        {
          "indexed": true,
          "internalType": "address",
          "name": "writer",
          "type": "address"
        },
        {
          "indexed": false,
          "internalType": "uint256",
          "name": "uriId",
          "type": "uint256"
        }
      ],
      "name": "Published",
      "type": "event"
    },
    {
      "anonymous": false,
      "inputs": [
        {
          "indexed": true,
          "internalType": "bytes32",
          "name": "role",
          "type": "bytes32"
        },
        {
          "indexed": true,
          "internalType": "bytes32",
          "name": "previousAdminRole",
          "type": "bytes32"
        },
        {
          "indexed": true,
          "internalType": "bytes32",
          "name": "newAdminRole",
          "type": "bytes32"
        }
      ],
      "name": "RoleAdminChanged",
      "type": "event"
    },
    {
      "anonymous": false,
      "inputs": [
        {
          "indexed": true,
          "internalType": "bytes32",
          "name": "role",
          "type": "bytes32"
        },
        {
          "indexed": true,
          "internalType": "address",
          "name": "account",
          "type": "address"
        },
        {
          "indexed": true,
          "internalType": "address",
          "name": "sender",
          "type": "address"
        }
      ],
      "name": "RoleGranted",
      "type": "event"
    },
    {
      "anonymous": false,
      "inputs": [
        {
          "indexed": true,
          "internalType": "bytes32",
          "name": "role",
          "type": "bytes32"
        },
        {
          "indexed": true,
          "internalType": "address",
          "name": "account",
          "type": "address"
        },
        {
          "indexed": true,
          "internalType": "address",
          "name": "sender",
          "type": "address"
        }
      ],
      "name": "RoleRevoked",
      "type": "event"
    },
    {
      "anonymous": false,
      "inputs": [
        {
          "indexed": true,
          "internalType": "address",
          "name": "from",
          "type": "address"
        },
        {
          "indexed": true,
          "internalType": "address",
          "name": "to",
          "type": "address"
        },
        {
          "indexed": true,
          "internalType": "uint256",
          "name": "tokenId",
          "type": "uint256"
        }
      ],
      "name": "Transfer",
      "type": "event"
    },
    {
      "inputs": [],
      "name": "AUTHOR",
      "outputs": [
        {
          "internalType": "bytes32",
          "name": "",
          "type": "bytes32"
        }
      ],
      "stateMutability": "view",
      "type": "function"
    },
    {
      "inputs": [],
      "name": "DEFAULT_ADMIN_ROLE",
      "outputs": [
        {
          "internalType": "bytes32",
          "name": "",
          "type": "bytes32"
        }
      ],
      "stateMutability": "view",
      "type": "function"
    },
    {
      "inputs": [
        {
          "internalType": "address",
          "name": "to",
          "type": "address"
        },
        {
          "internalType": "uint256",
          "name": "tokenId",
          "type": "uint256"
        }
      ],
      "name": "approve",
      "outputs": [],
      "stateMutability": "nonpayable",
      "type": "function"
    },
    {
      "inputs": [
        {
          "internalType": "address",
          "name": "owner",
          "type": "address"
        }
      ],
      "name": "balanceOf",
      "outputs": [
        {
          "internalType": "uint256",
          "name": "",
          "type": "uint256"
        }
      ],
      "stateMutability": "view",
      "type": "function"
    },
    {
      "inputs": [
        {
          "internalType": "uint256",
          "name": "tokenId",
          "type": "uint256"
        }
      ],
      "name": "getApproved",
      "outputs": [
        {
          "internalType": "address",
          "name": "",
          "type": "address"
        }
      ],
      "stateMutability": "view",
      "type": "function"
    },
    {
      "inputs": [
        {
          "internalType": "uint256",
          "name": "id",
          "type": "uint256"
        }
      ],
      "name": "getPublicationById",
      "outputs": [
        {
          "components": [
            {
              "internalType": "bytes32",
              "name": "content",
              "type": "bytes32"
            },
            {
              "internalType": "uint256",
              "name": "date",
              "type": "uint256"
            }
          ],
          "internalType": "struct PublicationMagnet.Publication",
          "name": "",
          "type": "tuple"
        }
      ],
      "stateMutability": "view",
      "type": "function"
    },
    {
      "inputs": [
        {
          "internalType": "bytes32",
          "name": "role",
          "type": "bytes32"
        }
      ],
      "name": "getRoleAdmin",
      "outputs": [
        {
          "internalType": "bytes32",
          "name": "",
          "type": "bytes32"
        }
      ],
      "stateMutability": "view",
      "type": "function"
    },
    {
      "inputs": [
        {
          "internalType": "bytes32",
          "name": "role",
          "type": "bytes32"
        },
        {
          "internalType": "address",
          "name": "account",
          "type": "address"
        }
      ],
      "name": "grantRole",
      "outputs": [],
      "stateMutability": "nonpayable",
      "type": "function"
    },
    {
      "inputs": [
        {
          "internalType": "bytes32",
          "name": "role",
          "type": "bytes32"
        },
        {
          "internalType": "address",
          "name": "account",
          "type": "address"
        }
      ],
      "name": "hasRole",
      "outputs": [
        {
          "internalType": "bool",
          "name": "",
          "type": "bool"
        }
      ],
      "stateMutability": "view",
      "type": "function"
    },
    {
      "inputs": [
        {
          "internalType": "address",
          "name": "owner",
          "type": "address"
        },
        {
          "internalType": "address",
          "name": "operator",
          "type": "address"
        }
      ],
      "name": "isApprovedForAll",
      "outputs": [
        {
          "internalType": "bool",
          "name": "",
          "type": "bool"
        }
      ],
      "stateMutability": "view",
      "type": "function"
    },
    {
      "inputs": [],
      "name": "name",
      "outputs": [
        {
          "internalType": "string",
          "name": "",
          "type": "string"
        }
      ],
      "stateMutability": "view",
      "type": "function"
    },
    {
      "inputs": [
        {
          "internalType": "uint256",
          "name": "tokenId",
          "type": "uint256"
        }
      ],
      "name": "ownerOf",
      "outputs": [
        {
          "internalType": "address",
          "name": "",
          "type": "address"
        }
      ],
      "stateMutability": "view",
      "type": "function"
    },
    {
      "inputs": [
        {
          "internalType": "bytes32",
          "name": "content",
          "type": "bytes32"
        },
        {
          "internalType": "uint256",
          "name": "uriId",
          "type": "uint256"
        }
      ],
      "name": "publish",
      "outputs": [
        {
          "internalType": "uint256",
          "name": "",
          "type": "uint256"
        }
      ],
      "stateMutability": "nonpayable",
      "type": "function"
    },
    {
      "inputs": [
        {
          "internalType": "bytes32",
          "name": "role",
          "type": "bytes32"
        },
        {
          "internalType": "address",
          "name": "account",
          "type": "address"
        }
      ],
      "name": "renounceRole",
      "outputs": [],
      "stateMutability": "nonpayable",
      "type": "function"
    },
    {
      "inputs": [
        {
          "internalType": "bytes32",
          "name": "role",
          "type": "bytes32"
        },
        {
          "internalType": "address",
          "name": "account",
          "type": "address"
        }
      ],
      "name": "revokeRole",
      "outputs": [],
      "stateMutability": "nonpayable",
      "type": "function"
    },
    {
      "inputs": [
        {
          "internalType": "address",
          "name": "from",
          "type": "address"
        },
        {
          "internalType": "address",
          "name": "to",
          "type": "address"
        },
        {
          "internalType": "uint256",
          "name": "tokenId",
          "type": "uint256"
        }
      ],
      "name": "safeTransferFrom",
      "outputs": [],
      "stateMutability": "nonpayable",
      "type": "function"
    },
    {
      "inputs": [
        {
          "internalType": "address",
          "name": "from",
          "type": "address"
        },
        {
          "internalType": "address",
          "name": "to",
          "type": "address"
        },
        {
          "internalType": "uint256",
          "name": "tokenId",
          "type": "uint256"
        },
        {
          "internalType": "bytes",
          "name": "_data",
          "type": "bytes"
        }
      ],
      "name": "safeTransferFrom",
      "outputs": [],
      "stateMutability": "nonpayable",
      "type": "function"
    },
    {
      "inputs": [
        {
          "internalType": "address",
          "name": "operator",
          "type": "address"
        },
        {
          "internalType": "bool",
          "name": "approved",
          "type": "bool"
        }
      ],
      "name": "setApprovalForAll",
      "outputs": [],
      "stateMutability": "nonpayable",
      "type": "function"
    },
    {
      "inputs": [
        {
          "internalType": "bytes4",
          "name": "interfaceId",
          "type": "bytes4"
        }
      ],
      "name": "supportsInterface",
      "outputs": [
        {
          "internalType": "bool",
          "name": "",
          "type": "bool"
        }
      ],
      "stateMutability": "view",
      "type": "function"
    },
    {
      "inputs": [],
      "name": "symbol",
      "outputs": [
        {
          "internalType": "string",
          "name": "",
          "type": "string"
        }
      ],
      "stateMutability": "view",
      "type": "function"
    },
    {
      "inputs": [
        {
          "internalType": "uint256",
          "name": "index",
          "type": "uint256"
        }
      ],
      "name": "tokenByIndex",
      "outputs": [
        {
          "internalType": "uint256",
          "name": "",
          "type": "uint256"
        }
      ],
      "stateMutability": "view",
      "type": "function"
    },
    {
      "inputs": [
        {
          "internalType": "address",
          "name": "owner",
          "type": "address"
        },
        {
          "internalType": "uint256",
          "name": "index",
          "type": "uint256"
        }
      ],
      "name": "tokenOfOwnerByIndex",
      "outputs": [
        {
          "internalType": "uint256",
          "name": "",
          "type": "uint256"
        }
      ],
      "stateMutability": "view",
      "type": "function"
    },
    {
      "inputs": [
        {
          "internalType": "uint256",
          "name": "tokenId",
          "type": "uint256"
        }
      ],
      "name": "tokenURI",
      "outputs": [
        {
          "internalType": "string",
          "name": "",
          "type": "string"
        }
      ],
      "stateMutability": "view",
      "type": "function"
    },
    {
      "inputs": [],
      "name": "totalSupply",
      "outputs": [
        {
          "internalType": "uint256",
          "name": "",
          "type": "uint256"
        }
      ],
      "stateMutability": "view",
      "type": "function"
    },
    {
      "inputs": [
        {
          "internalType": "address",
          "name": "from",
          "type": "address"
        },
        {
          "internalType": "address",
          "name": "to",
          "type": "address"
        },
        {
          "internalType": "uint256",
          "name": "tokenId",
          "type": "uint256"
        }
      ],
      "name": "transferFrom",
      "outputs": [],
      "stateMutability": "nonpayable",
      "type": "function"
    }
  ],
  "bytecode": "0x60806040523480156200001157600080fd5b506040518060400160405280600b81526020017f5075626c69636174696f6e0000000000000000000000000000000000000000008152506040518060400160405280600381526020017f505542000000000000000000000000000000000000000000000000000000000081525081600090805190602001906200009692919062000265565b508060019080519060200190620000af92919062000265565b505050620000e47fc3804b311cb423d6a5c669b1a91eaa36c50f5d1a91f8ab0663a237f5dc41226333620000ea60201b60201c565b6200037a565b620000fc82826200010060201b60201c565b5050565b620001128282620001f260201b60201c565b620001ee576001600b600084815260200190815260200160002060000160008373ffffffffffffffffffffffffffffffffffffffff1673ffffffffffffffffffffffffffffffffffffffff16815260200190815260200160002060006101000a81548160ff021916908315150217905550620001936200025d60201b60201c565b73ffffffffffffffffffffffffffffffffffffffff168173ffffffffffffffffffffffffffffffffffffffff16837f2f8788117e7eff1d82e926ec794901d17c78024a50270940304540a733656f0d60405160405180910390a45b5050565b6000600b600084815260200190815260200160002060000160008373ffffffffffffffffffffffffffffffffffffffff1673ffffffffffffffffffffffffffffffffffffffff16815260200190815260200160002060009054906101000a900460ff16905092915050565b600033905090565b828054620002739062000315565b90600052602060002090601f016020900481019282620002975760008555620002e3565b82601f10620002b257805160ff1916838001178555620002e3565b82800160010185558215620002e3579182015b82811115620002e2578251825591602001919060010190620002c5565b5b509050620002f29190620002f6565b5090565b5b8082111562000311576000816000905550600101620002f7565b5090565b600060028204905060018216806200032e57607f821691505b602082108114156200034557620003446200034b565b5b50919050565b7f4e487b7100000000000000000000000000000000000000000000000000000000600052602260045260246000fd5b6140b5806200038a6000396000f3fe608060405234801561001057600080fd5b50600436106101735760003560e01c80634f6ccce7116100de578063a22cb46511610097578063b88d4fde11610071578063b88d4fde14610496578063c87b56dd146104b2578063d547741f146104e2578063e985e9c5146104fe57610173565b8063a22cb4651461042c578063a7be85c614610448578063b19d632b1461046657610173565b80634f6ccce7146103305780636352211e1461036057806370a082311461039057806391d14854146103c057806395d89b41146103f0578063a217fddf1461040e57610173565b8063248a9ca311610130578063248a9ca31461024c5780632f2ff15d1461027c5780632f745c591461029857806336568abe146102c857806337950cfb146102e457806342842e0e1461031457610173565b806301ffc9a71461017857806306fdde03146101a8578063081812fc146101c6578063095ea7b3146101f657806318160ddd1461021257806323b872dd14610230575b600080fd5b610192600480360381019061018d9190612d68565b61052e565b60405161019f91906132d6565b60405180910390f35b6101b0610540565b6040516101bd919061330c565b60405180910390f35b6101e060048036038101906101db9190612dba565b6105d2565b6040516101ed919061326f565b60405180910390f35b610210600480360381019061020b9190612c8b565b610657565b005b61021a61076f565b60405161022791906135c9565b60405180910390f35b61024a60048036038101906102459190612b85565b61077c565b005b61026660048036038101906102619190612cc7565b6107dc565b60405161027391906132f1565b60405180910390f35b61029660048036038101906102919190612cf0565b6107fc565b005b6102b260048036038101906102ad9190612c8b565b610825565b6040516102bf91906135c9565b60405180910390f35b6102e260048036038101906102dd9190612cf0565b6108ca565b005b6102fe60048036038101906102f99190612dba565b61094d565b60405161030b91906135ae565b60405180910390f35b61032e60048036038101906103299190612b85565b61098e565b005b61034a60048036038101906103459190612dba565b6109ae565b60405161035791906135c9565b60405180910390f35b61037a60048036038101906103759190612dba565b610a45565b604051610387919061326f565b60405180910390f35b6103aa60048036038101906103a59190612b20565b610af7565b6040516103b791906135c9565b60405180910390f35b6103da60048036038101906103d59190612cf0565b610baf565b6040516103e791906132d6565b60405180910390f35b6103f8610c1a565b604051610405919061330c565b60405180910390f35b610416610cac565b60405161042391906132f1565b60405180910390f35b61044660048036038101906104419190612c4f565b610cb3565b005b610450610e34565b60405161045d91906132f1565b60405180910390f35b610480600480360381019061047b9190612d2c565b610e58565b60405161048d91906135c9565b60405180910390f35b6104b060048036038101906104ab9190612bd4565b610f58565b005b6104cc60048036038101906104c79190612dba565b610fba565b6040516104d9919061330c565b60405180910390f35b6104fc60048036038101906104f79190612cf0565b610fcc565b005b61051860048036038101906105139190612b49565b610ff5565b60405161052591906132d6565b60405180910390f35b600061053982611089565b9050919050565b60606000805461054f9061387c565b80601f016020809104026020016040519081016040528092919081815260200182805461057b9061387c565b80156105c85780601f1061059d576101008083540402835291602001916105c8565b820191906000526020600020905b8154815290600101906020018083116105ab57829003601f168201915b5050505050905090565b60006105dd82611103565b61061c576040517f08c379a0000000000000000000000000000000000000000000000000000000008152600401610613906134ce565b60405180910390fd5b6004600083815260200190815260200160002060009054906101000a900473ffffffffffffffffffffffffffffffffffffffff169050919050565b600061066282610a45565b90508073ffffffffffffffffffffffffffffffffffffffff168373ffffffffffffffffffffffffffffffffffffffff1614156106d3576040517f08c379a00000000000000000000000000000000000000000000000000000000081526004016106ca9061352e565b60405180910390fd5b8073ffffffffffffffffffffffffffffffffffffffff166106f261116f565b73ffffffffffffffffffffffffffffffffffffffff16148061072157506107208161071b61116f565b610ff5565b5b610760576040517f08c379a00000000000000000000000000000000000000000000000000000000081526004016107579061340e565b60405180910390fd5b61076a8383611177565b505050565b6000600880549050905090565b61078d61078761116f565b82611230565b6107cc576040517f08c379a00000000000000000000000000000000000000000000000000000000081526004016107c39061354e565b60405180910390fd5b6107d783838361130e565b505050565b6000600b6000838152602001908152602001600020600101549050919050565b610805826107dc565b6108168161081161116f565b61156a565b6108208383611607565b505050565b600061083083610af7565b8210610871576040517f08c379a00000000000000000000000000000000000000000000000000000000081526004016108689061334e565b60405180910390fd5b600660008473ffffffffffffffffffffffffffffffffffffffff1673ffffffffffffffffffffffffffffffffffffffff168152602001908152602001600020600083815260200190815260200160002054905092915050565b6108d261116f565b73ffffffffffffffffffffffffffffffffffffffff168173ffffffffffffffffffffffffffffffffffffffff161461093f576040517f08c379a00000000000000000000000000000000000000000000000000000000081526004016109369061358e565b60405180910390fd5b61094982826116e8565b5050565b61095561297a565b600d6000838152602001908152602001600020604051806040016040529081600082015481526020016001820154815250509050919050565b6109a983838360405180602001604052806000815250610f58565b505050565b60006109b861076f565b82106109f9576040517f08c379a00000000000000000000000000000000000000000000000000000000081526004016109f09061356e565b60405180910390fd5b60088281548110610a33577f4e487b7100000000000000000000000000000000000000000000000000000000600052603260045260246000fd5b90600052602060002001549050919050565b6000806002600084815260200190815260200160002060009054906101000a900473ffffffffffffffffffffffffffffffffffffffff169050600073ffffffffffffffffffffffffffffffffffffffff168173ffffffffffffffffffffffffffffffffffffffff161415610aee576040517f08c379a0000000000000000000000000000000000000000000000000000000008152600401610ae59061344e565b60405180910390fd5b80915050919050565b60008073ffffffffffffffffffffffffffffffffffffffff168273ffffffffffffffffffffffffffffffffffffffff161415610b68576040517f08c379a0000000000000000000000000000000000000000000000000000000008152600401610b5f9061342e565b60405180910390fd5b600360008373ffffffffffffffffffffffffffffffffffffffff1673ffffffffffffffffffffffffffffffffffffffff168152602001908152602001600020549050919050565b6000600b600084815260200190815260200160002060000160008373ffffffffffffffffffffffffffffffffffffffff1673ffffffffffffffffffffffffffffffffffffffff16815260200190815260200160002060009054906101000a900460ff16905092915050565b606060018054610c299061387c565b80601f0160208091040260200160405190810160405280929190818152602001828054610c559061387c565b8015610ca25780601f10610c7757610100808354040283529160200191610ca2565b820191906000526020600020905b815481529060010190602001808311610c8557829003601f168201915b5050505050905090565b6000801b81565b610cbb61116f565b73ffffffffffffffffffffffffffffffffffffffff168273ffffffffffffffffffffffffffffffffffffffff161415610d29576040517f08c379a0000000000000000000000000000000000000000000000000000000008152600401610d20906133ce565b60405180910390fd5b8060056000610d3661116f565b73ffffffffffffffffffffffffffffffffffffffff1673ffffffffffffffffffffffffffffffffffffffff16815260200190815260200160002060008473ffffffffffffffffffffffffffffffffffffffff1673ffffffffffffffffffffffffffffffffffffffff16815260200190815260200160002060006101000a81548160ff0219169083151502179055508173ffffffffffffffffffffffffffffffffffffffff16610de361116f565b73ffffffffffffffffffffffffffffffffffffffff167f17307eab39ab6107e8899845ad3d59bd9653f200f220920489ca2b5937696c3183604051610e2891906132d6565b60405180910390a35050565b7fc3804b311cb423d6a5c669b1a91eaa36c50f5d1a91f8ab0663a237f5dc41226381565b60007fc3804b311cb423d6a5c669b1a91eaa36c50f5d1a91f8ab0663a237f5dc412263610e8c81610e8761116f565b61156a565b610e96600c6117ca565b6000610ea2600c6117e0565b9050610eae33826117ee565b610ec081610ebb866119bc565b611b69565b604051806040016040528086815260200142815250600d600083815260200190815260200160002060008201518160000155602082015181600101559050503373ffffffffffffffffffffffffffffffffffffffff167f75d8bbb53dec5b6d7411ee36844cd0d3ac6df0f84bd1d4c2f4480cdc4a4744cf85604051610f4591906135c9565b60405180910390a2809250505092915050565b610f69610f6361116f565b83611230565b610fa8576040517f08c379a0000000000000000000000000000000000000000000000000000000008152600401610f9f9061354e565b60405180910390fd5b610fb484848484611bdd565b50505050565b6060610fc582611c39565b9050919050565b610fd5826107dc565b610fe681610fe161116f565b61156a565b610ff083836116e8565b505050565b6000600560008473ffffffffffffffffffffffffffffffffffffffff1673ffffffffffffffffffffffffffffffffffffffff16815260200190815260200160002060008373ffffffffffffffffffffffffffffffffffffffff1673ffffffffffffffffffffffffffffffffffffffff16815260200190815260200160002060009054906101000a900460ff16905092915050565b60007f7965db0b000000000000000000000000000000000000000000000000000000007bffffffffffffffffffffffffffffffffffffffffffffffffffffffff1916827bffffffffffffffffffffffffffffffffffffffffffffffffffffffff191614806110fc57506110fb82611d8b565b5b9050919050565b60008073ffffffffffffffffffffffffffffffffffffffff166002600084815260200190815260200160002060009054906101000a900473ffffffffffffffffffffffffffffffffffffffff1673ffffffffffffffffffffffffffffffffffffffff1614159050919050565b600033905090565b816004600083815260200190815260200160002060006101000a81548173ffffffffffffffffffffffffffffffffffffffff021916908373ffffffffffffffffffffffffffffffffffffffff160217905550808273ffffffffffffffffffffffffffffffffffffffff166111ea83610a45565b73ffffffffffffffffffffffffffffffffffffffff167f8c5be1e5ebec7d5bd14f71427d1e84f3dd0314c0f7b2291e5b200ac8c7c3b92560405160405180910390a45050565b600061123b82611103565b61127a576040517f08c379a0000000000000000000000000000000000000000000000000000000008152600401611271906133ee565b60405180910390fd5b600061128583610a45565b90508073ffffffffffffffffffffffffffffffffffffffff168473ffffffffffffffffffffffffffffffffffffffff1614806112f457508373ffffffffffffffffffffffffffffffffffffffff166112dc846105d2565b73ffffffffffffffffffffffffffffffffffffffff16145b8061130557506113048185610ff5565b5b91505092915050565b8273ffffffffffffffffffffffffffffffffffffffff1661132e82610a45565b73ffffffffffffffffffffffffffffffffffffffff1614611384576040517f08c379a000000000000000000000000000000000000000000000000000000000815260040161137b906134ee565b60405180910390fd5b600073ffffffffffffffffffffffffffffffffffffffff168273ffffffffffffffffffffffffffffffffffffffff1614156113f4576040517f08c379a00000000000000000000000000000000000000000000000000000000081526004016113eb906133ae565b60405180910390fd5b6113ff838383611e05565b61140a600082611177565b6001600360008573ffffffffffffffffffffffffffffffffffffffff1673ffffffffffffffffffffffffffffffffffffffff168152602001908152602001600020600082825461145a919061375e565b925050819055506001600360008473ffffffffffffffffffffffffffffffffffffffff1673ffffffffffffffffffffffffffffffffffffffff16815260200190815260200160002060008282546114b1919061367d565b92505081905550816002600083815260200190815260200160002060006101000a81548173ffffffffffffffffffffffffffffffffffffffff021916908373ffffffffffffffffffffffffffffffffffffffff160217905550808273ffffffffffffffffffffffffffffffffffffffff168473ffffffffffffffffffffffffffffffffffffffff167fddf252ad1be2c89b69c2b068fc378daa952ba7f163c4a11628f55a4df523b3ef60405160405180910390a4505050565b6115748282610baf565b611603576115998173ffffffffffffffffffffffffffffffffffffffff166014611e15565b6115a78360001c6020611e15565b6040516020016115b8929190613235565b6040516020818303038152906040526040517f08c379a00000000000000000000000000000000000000000000000000000000081526004016115fa919061330c565b60405180910390fd5b5050565b6116118282610baf565b6116e4576001600b600084815260200190815260200160002060000160008373ffffffffffffffffffffffffffffffffffffffff1673ffffffffffffffffffffffffffffffffffffffff16815260200190815260200160002060006101000a81548160ff02191690831515021790555061168961116f565b73ffffffffffffffffffffffffffffffffffffffff168173ffffffffffffffffffffffffffffffffffffffff16837f2f8788117e7eff1d82e926ec794901d17c78024a50270940304540a733656f0d60405160405180910390a45b5050565b6116f28282610baf565b156117c6576000600b600084815260200190815260200160002060000160008373ffffffffffffffffffffffffffffffffffffffff1673ffffffffffffffffffffffffffffffffffffffff16815260200190815260200160002060006101000a81548160ff02191690831515021790555061176b61116f565b73ffffffffffffffffffffffffffffffffffffffff168173ffffffffffffffffffffffffffffffffffffffff16837ff6391f5c32d9c69d2a47ea670b442974b53935d1edc7fd64eb21e047a839171b60405160405180910390a45b5050565b6001816000016000828254019250508190555050565b600081600001549050919050565b600073ffffffffffffffffffffffffffffffffffffffff168273ffffffffffffffffffffffffffffffffffffffff16141561185e576040517f08c379a00000000000000000000000000000000000000000000000000000000081526004016118559061348e565b60405180910390fd5b61186781611103565b156118a7576040517f08c379a000000000000000000000000000000000000000000000000000000000815260040161189e9061338e565b60405180910390fd5b6118b360008383611e05565b6001600360008473ffffffffffffffffffffffffffffffffffffffff1673ffffffffffffffffffffffffffffffffffffffff1681526020019081526020016000206000828254611903919061367d565b92505081905550816002600083815260200190815260200160002060006101000a81548173ffffffffffffffffffffffffffffffffffffffff021916908373ffffffffffffffffffffffffffffffffffffffff160217905550808273ffffffffffffffffffffffffffffffffffffffff16600073ffffffffffffffffffffffffffffffffffffffff167fddf252ad1be2c89b69c2b068fc378daa952ba7f163c4a11628f55a4df523b3ef60405160405180910390a45050565b60606000821415611a04576040518060400160405280600181526020017f30000000000000000000000000000000000000000000000000000000000000008152509050611b64565b600082905060005b60008214611a36578080611a1f906138df565b915050600a82611a2f91906136d3565b9150611a0c565b60008167ffffffffffffffff811115611a78577f4e487b7100000000000000000000000000000000000000000000000000000000600052604160045260246000fd5b6040519080825280601f01601f191660200182016040528015611aaa5781602001600182028036833780820191505090505b5090505b60008514611b5d57600182611ac3919061375e565b9150600a85611ad29190613928565b6030611ade919061367d565b60f81b818381518110611b1a577f4e487b7100000000000000000000000000000000000000000000000000000000600052603260045260246000fd5b60200101907effffffffffffffffffffffffffffffffffffffffffffffffffffffffffffff1916908160001a905350600a85611b5691906136d3565b9450611aae565b8093505050505b919050565b611b7282611103565b611bb1576040517f08c379a0000000000000000000000000000000000000000000000000000000008152600401611ba89061346e565b60405180910390fd5b80600a60008481526020019081526020016000209080519060200190611bd8929190612997565b505050565b611be884848461130e565b611bf48484848461210f565b611c33576040517f08c379a0000000000000000000000000000000000000000000000000000000008152600401611c2a9061336e565b60405180910390fd5b50505050565b6060611c4482611103565b611c83576040517f08c379a0000000000000000000000000000000000000000000000000000000008152600401611c7a906134ae565b60405180910390fd5b6000600a60008481526020019081526020016000208054611ca39061387c565b80601f0160208091040260200160405190810160405280929190818152602001828054611ccf9061387c565b8015611d1c5780601f10611cf157610100808354040283529160200191611d1c565b820191906000526020600020905b815481529060010190602001808311611cff57829003601f168201915b505050505090506000611d2d6122a6565b9050600081511415611d43578192505050611d86565b600082511115611d78578082604051602001611d60929190613211565b60405160208183030381529060405292505050611d86565b611d81846122e3565b925050505b919050565b60007f780e9d63000000000000000000000000000000000000000000000000000000007bffffffffffffffffffffffffffffffffffffffffffffffffffffffff1916827bffffffffffffffffffffffffffffffffffffffffffffffffffffffff19161480611dfe5750611dfd8261238a565b5b9050919050565b611e1083838361246c565b505050565b606060006002836002611e289190613704565b611e32919061367d565b67ffffffffffffffff811115611e71577f4e487b7100000000000000000000000000000000000000000000000000000000600052604160045260246000fd5b6040519080825280601f01601f191660200182016040528015611ea35781602001600182028036833780820191505090505b5090507f300000000000000000000000000000000000000000000000000000000000000081600081518110611f01577f4e487b7100000000000000000000000000000000000000000000000000000000600052603260045260246000fd5b60200101907effffffffffffffffffffffffffffffffffffffffffffffffffffffffffffff1916908160001a9053507f780000000000000000000000000000000000000000000000000000000000000081600181518110611f8b577f4e487b7100000000000000000000000000000000000000000000000000000000600052603260045260246000fd5b60200101907effffffffffffffffffffffffffffffffffffffffffffffffffffffffffffff1916908160001a90535060006001846002611fcb9190613704565b611fd5919061367d565b90505b60018111156120c1577f3031323334353637383961626364656600000000000000000000000000000000600f86166010811061203d577f4e487b7100000000000000000000000000000000000000000000000000000000600052603260045260246000fd5b1a60f81b82828151811061207a577f4e487b7100000000000000000000000000000000000000000000000000000000600052603260045260246000fd5b60200101907effffffffffffffffffffffffffffffffffffffffffffffffffffffffffffff1916908160001a905350600485901c9450806120ba90613852565b9050611fd8565b5060008414612105576040517f08c379a00000000000000000000000000000000000000000000000000000000081526004016120fc9061332e565b60405180910390fd5b8091505092915050565b60006121308473ffffffffffffffffffffffffffffffffffffffff16612580565b15612299578373ffffffffffffffffffffffffffffffffffffffff1663150b7a0261215961116f565b8786866040518563ffffffff1660e01b815260040161217b949392919061328a565b602060405180830381600087803b15801561219557600080fd5b505af19250505080156121c657506040513d601f19601f820116820180604052508101906121c39190612d91565b60015b612249573d80600081146121f6576040519150601f19603f3d011682016040523d82523d6000602084013e6121fb565b606091505b50600081511415612241576040517f08c379a00000000000000000000000000000000000000000000000000000000081526004016122389061336e565b60405180910390fd5b805181602001fd5b63150b7a0260e01b7bffffffffffffffffffffffffffffffffffffffffffffffffffffffff1916817bffffffffffffffffffffffffffffffffffffffffffffffffffffffff19161491505061229e565b600190505b949350505050565b60606040518060400160405280601c81526020017f68747470733a2f2f7777772e6e66746f6b656e2e636f6d2f6e66742f00000000815250905090565b60606122ee82611103565b61232d576040517f08c379a00000000000000000000000000000000000000000000000000000000081526004016123249061350e565b60405180910390fd5b60006123376122a6565b905060008151116123575760405180602001604052806000815250612382565b80612361846119bc565b604051602001612372929190613211565b6040516020818303038152906040525b915050919050565b60007f80ac58cd000000000000000000000000000000000000000000000000000000007bffffffffffffffffffffffffffffffffffffffffffffffffffffffff1916827bffffffffffffffffffffffffffffffffffffffffffffffffffffffff1916148061245557507f5b5e139f000000000000000000000000000000000000000000000000000000007bffffffffffffffffffffffffffffffffffffffffffffffffffffffff1916827bffffffffffffffffffffffffffffffffffffffffffffffffffffffff1916145b80612465575061246482612593565b5b9050919050565b6124778383836125fd565b600073ffffffffffffffffffffffffffffffffffffffff168373ffffffffffffffffffffffffffffffffffffffff1614156124ba576124b581612602565b6124f9565b8173ffffffffffffffffffffffffffffffffffffffff168373ffffffffffffffffffffffffffffffffffffffff16146124f8576124f7838261264b565b5b5b600073ffffffffffffffffffffffffffffffffffffffff168273ffffffffffffffffffffffffffffffffffffffff16141561253c57612537816127b8565b61257b565b8273ffffffffffffffffffffffffffffffffffffffff168273ffffffffffffffffffffffffffffffffffffffff161461257a5761257982826128fb565b5b5b505050565b600080823b905060008111915050919050565b60007f01ffc9a7000000000000000000000000000000000000000000000000000000007bffffffffffffffffffffffffffffffffffffffffffffffffffffffff1916827bffffffffffffffffffffffffffffffffffffffffffffffffffffffff1916149050919050565b505050565b6008805490506009600083815260200190815260200160002081905550600881908060018154018082558091505060019003906000526020600020016000909190919091505550565b6000600161265884610af7565b612662919061375e565b9050600060076000848152602001908152602001600020549050818114612747576000600660008673ffffffffffffffffffffffffffffffffffffffff1673ffffffffffffffffffffffffffffffffffffffff168152602001908152602001600020600084815260200190815260200160002054905080600660008773ffffffffffffffffffffffffffffffffffffffff1673ffffffffffffffffffffffffffffffffffffffff168152602001908152602001600020600084815260200190815260200160002081905550816007600083815260200190815260200160002081905550505b6007600084815260200190815260200160002060009055600660008573ffffffffffffffffffffffffffffffffffffffff1673ffffffffffffffffffffffffffffffffffffffff16815260200190815260200160002060008381526020019081526020016000206000905550505050565b600060016008805490506127cc919061375e565b9050600060096000848152602001908152602001600020549050600060088381548110612822577f4e487b7100000000000000000000000000000000000000000000000000000000600052603260045260246000fd5b90600052602060002001549050806008838154811061286a577f4e487b7100000000000000000000000000000000000000000000000000000000600052603260045260246000fd5b9060005260206000200181905550816009600083815260200190815260200160002081905550600960008581526020019081526020016000206000905560088054806128df577f4e487b7100000000000000000000000000000000000000000000000000000000600052603160045260246000fd5b6001900381819060005260206000200160009055905550505050565b600061290683610af7565b905081600660008573ffffffffffffffffffffffffffffffffffffffff1673ffffffffffffffffffffffffffffffffffffffff168152602001908152602001600020600083815260200190815260200160002081905550806007600084815260200190815260200160002081905550505050565b604051806040016040528060008019168152602001600081525090565b8280546129a39061387c565b90600052602060002090601f0160209004810192826129c55760008555612a0c565b82601f106129de57805160ff1916838001178555612a0c565b82800160010185558215612a0c579182015b82811115612a0b5782518255916020019190600101906129f0565b5b509050612a199190612a1d565b5090565b5b80821115612a36576000816000905550600101612a1e565b5090565b6000612a4d612a4884613609565b6135e4565b905082815260208101848484011115612a6557600080fd5b612a70848285613810565b509392505050565b600081359050612a878161400c565b92915050565b600081359050612a9c81614023565b92915050565b600081359050612ab18161403a565b92915050565b600081359050612ac681614051565b92915050565b600081519050612adb81614051565b92915050565b600082601f830112612af257600080fd5b8135612b02848260208601612a3a565b91505092915050565b600081359050612b1a81614068565b92915050565b600060208284031215612b3257600080fd5b6000612b4084828501612a78565b91505092915050565b60008060408385031215612b5c57600080fd5b6000612b6a85828601612a78565b9250506020612b7b85828601612a78565b9150509250929050565b600080600060608486031215612b9a57600080fd5b6000612ba886828701612a78565b9350506020612bb986828701612a78565b9250506040612bca86828701612b0b565b9150509250925092565b60008060008060808587031215612bea57600080fd5b6000612bf887828801612a78565b9450506020612c0987828801612a78565b9350506040612c1a87828801612b0b565b925050606085013567ffffffffffffffff811115612c3757600080fd5b612c4387828801612ae1565b91505092959194509250565b60008060408385031215612c6257600080fd5b6000612c7085828601612a78565b9250506020612c8185828601612a8d565b9150509250929050565b60008060408385031215612c9e57600080fd5b6000612cac85828601612a78565b9250506020612cbd85828601612b0b565b9150509250929050565b600060208284031215612cd957600080fd5b6000612ce784828501612aa2565b91505092915050565b60008060408385031215612d0357600080fd5b6000612d1185828601612aa2565b9250506020612d2285828601612a78565b9150509250929050565b60008060408385031215612d3f57600080fd5b6000612d4d85828601612aa2565b9250506020612d5e85828601612b0b565b9150509250929050565b600060208284031215612d7a57600080fd5b6000612d8884828501612ab7565b91505092915050565b600060208284031215612da357600080fd5b6000612db184828501612acc565b91505092915050565b600060208284031215612dcc57600080fd5b6000612dda84828501612b0b565b91505092915050565b612dec81613792565b82525050565b612dfb816137a4565b82525050565b612e0a816137b0565b82525050565b612e19816137b0565b82525050565b6000612e2a8261363a565b612e348185613650565b9350612e4481856020860161381f565b612e4d81613a15565b840191505092915050565b6000612e6382613645565b612e6d8185613661565b9350612e7d81856020860161381f565b612e8681613a15565b840191505092915050565b6000612e9c82613645565b612ea68185613672565b9350612eb681856020860161381f565b80840191505092915050565b6000612ecf602083613661565b9150612eda82613a26565b602082019050919050565b6000612ef2602b83613661565b9150612efd82613a4f565b604082019050919050565b6000612f15603283613661565b9150612f2082613a9e565b604082019050919050565b6000612f38601c83613661565b9150612f4382613aed565b602082019050919050565b6000612f5b602483613661565b9150612f6682613b16565b604082019050919050565b6000612f7e601983613661565b9150612f8982613b65565b602082019050919050565b6000612fa1602c83613661565b9150612fac82613b8e565b604082019050919050565b6000612fc4603883613661565b9150612fcf82613bdd565b604082019050919050565b6000612fe7602a83613661565b9150612ff282613c2c565b604082019050919050565b600061300a602983613661565b915061301582613c7b565b604082019050919050565b600061302d602e83613661565b915061303882613cca565b604082019050919050565b6000613050602083613661565b915061305b82613d19565b602082019050919050565b6000613073603183613661565b915061307e82613d42565b604082019050919050565b6000613096602c83613661565b91506130a182613d91565b604082019050919050565b60006130b9602983613661565b91506130c482613de0565b604082019050919050565b60006130dc602f83613661565b91506130e782613e2f565b604082019050919050565b60006130ff602183613661565b915061310a82613e7e565b604082019050919050565b6000613122603183613661565b915061312d82613ecd565b604082019050919050565b6000613145602c83613661565b915061315082613f1c565b604082019050919050565b6000613168601783613672565b915061317382613f6b565b601782019050919050565b600061318b601183613672565b915061319682613f94565b601182019050919050565b60006131ae602f83613661565b91506131b982613fbd565b604082019050919050565b6040820160008201516131da6000850182612e01565b5060208201516131ed60208501826131f3565b50505050565b6131fc81613806565b82525050565b61320b81613806565b82525050565b600061321d8285612e91565b91506132298284612e91565b91508190509392505050565b60006132408261315b565b915061324c8285612e91565b91506132578261317e565b91506132638284612e91565b91508190509392505050565b60006020820190506132846000830184612de3565b92915050565b600060808201905061329f6000830187612de3565b6132ac6020830186612de3565b6132b96040830185613202565b81810360608301526132cb8184612e1f565b905095945050505050565b60006020820190506132eb6000830184612df2565b92915050565b60006020820190506133066000830184612e10565b92915050565b600060208201905081810360008301526133268184612e58565b905092915050565b6000602082019050818103600083015261334781612ec2565b9050919050565b6000602082019050818103600083015261336781612ee5565b9050919050565b6000602082019050818103600083015261338781612f08565b9050919050565b600060208201905081810360008301526133a781612f2b565b9050919050565b600060208201905081810360008301526133c781612f4e565b9050919050565b600060208201905081810360008301526133e781612f71565b9050919050565b6000602082019050818103600083015261340781612f94565b9050919050565b6000602082019050818103600083015261342781612fb7565b9050919050565b6000602082019050818103600083015261344781612fda565b9050919050565b6000602082019050818103600083015261346781612ffd565b9050919050565b6000602082019050818103600083015261348781613020565b9050919050565b600060208201905081810360008301526134a781613043565b9050919050565b600060208201905081810360008301526134c781613066565b9050919050565b600060208201905081810360008301526134e781613089565b9050919050565b60006020820190508181036000830152613507816130ac565b9050919050565b60006020820190508181036000830152613527816130cf565b9050919050565b60006020820190508181036000830152613547816130f2565b9050919050565b6000602082019050818103600083015261356781613115565b9050919050565b6000602082019050818103600083015261358781613138565b9050919050565b600060208201905081810360008301526135a7816131a1565b9050919050565b60006040820190506135c360008301846131c4565b92915050565b60006020820190506135de6000830184613202565b92915050565b60006135ee6135ff565b90506135fa82826138ae565b919050565b6000604051905090565b600067ffffffffffffffff821115613624576136236139e6565b5b61362d82613a15565b9050602081019050919050565b600081519050919050565b600081519050919050565b600082825260208201905092915050565b600082825260208201905092915050565b600081905092915050565b600061368882613806565b915061369383613806565b9250827fffffffffffffffffffffffffffffffffffffffffffffffffffffffffffffffff038211156136c8576136c7613959565b5b828201905092915050565b60006136de82613806565b91506136e983613806565b9250826136f9576136f8613988565b5b828204905092915050565b600061370f82613806565b915061371a83613806565b9250817fffffffffffffffffffffffffffffffffffffffffffffffffffffffffffffffff048311821515161561375357613752613959565b5b828202905092915050565b600061376982613806565b915061377483613806565b92508282101561378757613786613959565b5b828203905092915050565b600061379d826137e6565b9050919050565b60008115159050919050565b6000819050919050565b60007fffffffff0000000000000000000000000000000000000000000000000000000082169050919050565b600073ffffffffffffffffffffffffffffffffffffffff82169050919050565b6000819050919050565b82818337600083830152505050565b60005b8381101561383d578082015181840152602081019050613822565b8381111561384c576000848401525b50505050565b600061385d82613806565b9150600082141561387157613870613959565b5b600182039050919050565b6000600282049050600182168061389457607f821691505b602082108114156138a8576138a76139b7565b5b50919050565b6138b782613a15565b810181811067ffffffffffffffff821117156138d6576138d56139e6565b5b80604052505050565b60006138ea82613806565b91507fffffffffffffffffffffffffffffffffffffffffffffffffffffffffffffffff82141561391d5761391c613959565b5b600182019050919050565b600061393382613806565b915061393e83613806565b92508261394e5761394d613988565b5b828206905092915050565b7f4e487b7100000000000000000000000000000000000000000000000000000000600052601160045260246000fd5b7f4e487b7100000000000000000000000000000000000000000000000000000000600052601260045260246000fd5b7f4e487b7100000000000000000000000000000000000000000000000000000000600052602260045260246000fd5b7f4e487b7100000000000000000000000000000000000000000000000000000000600052604160045260246000fd5b6000601f19601f8301169050919050565b7f537472696e67733a20686578206c656e67746820696e73756666696369656e74600082015250565b7f455243373231456e756d657261626c653a206f776e657220696e646578206f7560008201527f74206f6620626f756e6473000000000000000000000000000000000000000000602082015250565b7f4552433732313a207472616e7366657220746f206e6f6e20455243373231526560008201527f63656976657220696d706c656d656e7465720000000000000000000000000000602082015250565b7f4552433732313a20746f6b656e20616c7265616479206d696e74656400000000600082015250565b7f4552433732313a207472616e7366657220746f20746865207a65726f2061646460008201527f7265737300000000000000000000000000000000000000000000000000000000602082015250565b7f4552433732313a20617070726f766520746f2063616c6c657200000000000000600082015250565b7f4552433732313a206f70657261746f7220717565727920666f72206e6f6e657860008201527f697374656e7420746f6b656e0000000000000000000000000000000000000000602082015250565b7f4552433732313a20617070726f76652063616c6c6572206973206e6f74206f7760008201527f6e6572206e6f7220617070726f76656420666f7220616c6c0000000000000000602082015250565b7f4552433732313a2062616c616e636520717565727920666f7220746865207a6560008201527f726f206164647265737300000000000000000000000000000000000000000000602082015250565b7f4552433732313a206f776e657220717565727920666f72206e6f6e657869737460008201527f656e7420746f6b656e0000000000000000000000000000000000000000000000602082015250565b7f45524337323155524953746f726167653a2055524920736574206f66206e6f6e60008201527f6578697374656e7420746f6b656e000000000000000000000000000000000000602082015250565b7f4552433732313a206d696e7420746f20746865207a65726f2061646472657373600082015250565b7f45524337323155524953746f726167653a2055524920717565727920666f722060008201527f6e6f6e6578697374656e7420746f6b656e000000000000000000000000000000602082015250565b7f4552433732313a20617070726f76656420717565727920666f72206e6f6e657860008201527f697374656e7420746f6b656e0000000000000000000000000000000000000000602082015250565b7f4552433732313a207472616e73666572206f6620746f6b656e2074686174206960008201527f73206e6f74206f776e0000000000000000000000000000000000000000000000602082015250565b7f4552433732314d657461646174613a2055524920717565727920666f72206e6f60008201527f6e6578697374656e7420746f6b656e0000000000000000000000000000000000602082015250565b7f4552433732313a20617070726f76616c20746f2063757272656e74206f776e6560008201527f7200000000000000000000000000000000000000000000000000000000000000602082015250565b7f4552433732313a207472616e736665722063616c6c6572206973206e6f74206f60008201527f776e6572206e6f7220617070726f766564000000000000000000000000000000602082015250565b7f455243373231456e756d657261626c653a20676c6f62616c20696e646578206f60008201527f7574206f6620626f756e64730000000000000000000000000000000000000000602082015250565b7f416363657373436f6e74726f6c3a206163636f756e7420000000000000000000600082015250565b7f206973206d697373696e6720726f6c6520000000000000000000000000000000600082015250565b7f416363657373436f6e74726f6c3a2063616e206f6e6c792072656e6f756e636560008201527f20726f6c657320666f722073656c660000000000000000000000000000000000602082015250565b61401581613792565b811461402057600080fd5b50565b61402c816137a4565b811461403757600080fd5b50565b614043816137b0565b811461404e57600080fd5b50565b61405a816137ba565b811461406557600080fd5b50565b61407181613806565b811461407c57600080fd5b5056fea2646970667358221220b55db58434c42bb7a1f211ded33d1c45386aec07ff80acfc59792fa5761a0aec64736f6c63430008040033",
  "linkReferences": {},
  "deployedLinkReferences": {}
}