{
  "_format": "hh-sol-artifact-1",
  "contractName": "PublicationMagnet",
  "sourceName": "contracts/PublicationMagnet.sol",
  "abi": [
    {
      "inputs": [],
      "stateMutability": "nonpayable",
      "type": "constructor"
    },
    {
      "anonymous": false,
      "inputs": [
        {
          "indexed": true,
          "internalType": "address",
          "name": "owner",
          "type": "address"
        },
        {
          "indexed": true,
          "internalType": "address",
          "name": "approved",
          "type": "address"
        },
        {
          "indexed": true,
          "internalType": "uint256",
          "name": "tokenId",
          "type": "uint256"
        }
      ],
      "name": "Approval",
      "type": "event"
    },
    {
      "anonymous": false,
      "inputs": [
        {
          "indexed": true,
          "internalType": "address",
          "name": "owner",
          "type": "address"
        },
        {
          "indexed": true,
          "internalType": "address",
          "name": "operator",
          "type": "address"
        },
        {
          "indexed": false,
          "internalType": "bool",
          "name": "approved",
          "type": "bool"
        }
      ],
      "name": "ApprovalForAll",
      "type": "event"
    },
    {
      "anonymous": false,
      "inputs": [
        {
          "indexed": true,
          "internalType": "address",
          "name": "writer",
          "type": "address"
        },
        {
          "indexed": false,
          "internalType": "string",
          "name": "content",
          "type": "string"
        }
      ],
      "name": "Published",
      "type": "event"
    },
    {
      "anonymous": false,
      "inputs": [
        {
          "indexed": true,
          "internalType": "address",
          "name": "from",
          "type": "address"
        },
        {
          "indexed": true,
          "internalType": "address",
          "name": "to",
          "type": "address"
        },
        {
          "indexed": true,
          "internalType": "uint256",
          "name": "tokenId",
          "type": "uint256"
        }
      ],
      "name": "Transfer",
      "type": "event"
    },
    {
      "inputs": [
        {
          "internalType": "address",
          "name": "to",
          "type": "address"
        },
        {
          "internalType": "uint256",
          "name": "tokenId",
          "type": "uint256"
        }
      ],
      "name": "approve",
      "outputs": [],
      "stateMutability": "nonpayable",
      "type": "function"
    },
    {
      "inputs": [
        {
          "internalType": "address",
          "name": "owner",
          "type": "address"
        }
      ],
      "name": "balanceOf",
      "outputs": [
        {
          "internalType": "uint256",
          "name": "",
          "type": "uint256"
        }
      ],
      "stateMutability": "view",
      "type": "function"
    },
    {
      "inputs": [
        {
          "internalType": "uint256",
          "name": "tokenId",
          "type": "uint256"
        }
      ],
      "name": "getApproved",
      "outputs": [
        {
          "internalType": "address",
          "name": "",
          "type": "address"
        }
      ],
      "stateMutability": "view",
      "type": "function"
    },
    {
      "inputs": [
        {
          "internalType": "bytes32",
          "name": "hashContent",
          "type": "bytes32"
        }
      ],
      "name": "getIdByHash",
      "outputs": [
        {
          "internalType": "uint256",
          "name": "",
          "type": "uint256"
        }
      ],
      "stateMutability": "view",
      "type": "function"
    },
    {
      "inputs": [
        {
          "internalType": "uint256",
          "name": "id",
          "type": "uint256"
        }
      ],
      "name": "getPublicationById",
      "outputs": [
        {
          "components": [
            {
              "internalType": "string",
              "name": "content",
              "type": "string"
            },
            {
              "internalType": "bytes32",
              "name": "hashContent",
              "type": "bytes32"
            },
            {
              "internalType": "uint256",
              "name": "date",
              "type": "uint256"
            }
          ],
          "internalType": "struct PublicationMagnet.Publication",
          "name": "",
          "type": "tuple"
        }
      ],
      "stateMutability": "view",
      "type": "function"
    },
    {
      "inputs": [
        {
          "internalType": "address",
          "name": "owner",
          "type": "address"
        },
        {
          "internalType": "address",
          "name": "operator",
          "type": "address"
        }
      ],
      "name": "isApprovedForAll",
      "outputs": [
        {
          "internalType": "bool",
          "name": "",
          "type": "bool"
        }
      ],
      "stateMutability": "view",
      "type": "function"
    },
    {
      "inputs": [],
      "name": "name",
      "outputs": [
        {
          "internalType": "string",
          "name": "",
          "type": "string"
        }
      ],
      "stateMutability": "view",
      "type": "function"
    },
    {
      "inputs": [
        {
          "internalType": "uint256",
          "name": "tokenId",
          "type": "uint256"
        }
      ],
      "name": "ownerOf",
      "outputs": [
        {
          "internalType": "address",
          "name": "",
          "type": "address"
        }
      ],
      "stateMutability": "view",
      "type": "function"
    },
    {
      "inputs": [
        {
          "internalType": "string",
          "name": "content",
          "type": "string"
        },
        {
          "internalType": "bytes32",
          "name": "hashContent",
          "type": "bytes32"
        },
        {
          "internalType": "uint256",
          "name": "uriId",
          "type": "uint256"
        }
      ],
      "name": "publish",
      "outputs": [
        {
          "internalType": "uint256",
          "name": "",
          "type": "uint256"
        }
      ],
      "stateMutability": "nonpayable",
      "type": "function"
    },
    {
      "inputs": [
        {
          "internalType": "address",
          "name": "from",
          "type": "address"
        },
        {
          "internalType": "address",
          "name": "to",
          "type": "address"
        },
        {
          "internalType": "uint256",
          "name": "tokenId",
          "type": "uint256"
        }
      ],
      "name": "safeTransferFrom",
      "outputs": [],
      "stateMutability": "nonpayable",
      "type": "function"
    },
    {
      "inputs": [
        {
          "internalType": "address",
          "name": "from",
          "type": "address"
        },
        {
          "internalType": "address",
          "name": "to",
          "type": "address"
        },
        {
          "internalType": "uint256",
          "name": "tokenId",
          "type": "uint256"
        },
        {
          "internalType": "bytes",
          "name": "_data",
          "type": "bytes"
        }
      ],
      "name": "safeTransferFrom",
      "outputs": [],
      "stateMutability": "nonpayable",
      "type": "function"
    },
    {
      "inputs": [
        {
          "internalType": "address",
          "name": "operator",
          "type": "address"
        },
        {
          "internalType": "bool",
          "name": "approved",
          "type": "bool"
        }
      ],
      "name": "setApprovalForAll",
      "outputs": [],
      "stateMutability": "nonpayable",
      "type": "function"
    },
    {
      "inputs": [
        {
          "internalType": "bytes4",
          "name": "interfaceId",
          "type": "bytes4"
        }
      ],
      "name": "supportsInterface",
      "outputs": [
        {
          "internalType": "bool",
          "name": "",
          "type": "bool"
        }
      ],
      "stateMutability": "view",
      "type": "function"
    },
    {
      "inputs": [],
      "name": "symbol",
      "outputs": [
        {
          "internalType": "string",
          "name": "",
          "type": "string"
        }
      ],
      "stateMutability": "view",
      "type": "function"
    },
    {
      "inputs": [
        {
          "internalType": "uint256",
          "name": "index",
          "type": "uint256"
        }
      ],
      "name": "tokenByIndex",
      "outputs": [
        {
          "internalType": "uint256",
          "name": "",
          "type": "uint256"
        }
      ],
      "stateMutability": "view",
      "type": "function"
    },
    {
      "inputs": [
        {
          "internalType": "address",
          "name": "owner",
          "type": "address"
        },
        {
          "internalType": "uint256",
          "name": "index",
          "type": "uint256"
        }
      ],
      "name": "tokenOfOwnerByIndex",
      "outputs": [
        {
          "internalType": "uint256",
          "name": "",
          "type": "uint256"
        }
      ],
      "stateMutability": "view",
      "type": "function"
    },
    {
      "inputs": [
        {
          "internalType": "uint256",
          "name": "tokenId",
          "type": "uint256"
        }
      ],
      "name": "tokenURI",
      "outputs": [
        {
          "internalType": "string",
          "name": "",
          "type": "string"
        }
      ],
      "stateMutability": "view",
      "type": "function"
    },
    {
      "inputs": [],
      "name": "totalSupply",
      "outputs": [
        {
          "internalType": "uint256",
          "name": "",
          "type": "uint256"
        }
      ],
      "stateMutability": "view",
      "type": "function"
    },
    {
      "inputs": [
        {
          "internalType": "address",
          "name": "from",
          "type": "address"
        },
        {
          "internalType": "address",
          "name": "to",
          "type": "address"
        },
        {
          "internalType": "uint256",
          "name": "tokenId",
          "type": "uint256"
        }
      ],
      "name": "transferFrom",
      "outputs": [],
      "stateMutability": "nonpayable",
      "type": "function"
    }
  ],
  "bytecode": "0x60806040523480156200001157600080fd5b506040518060400160405280600b81526020017f5075626c69636174696f6e0000000000000000000000000000000000000000008152506040518060400160405280600381526020017f5055420000000000000000000000000000000000000000000000000000000000815250816000908051906020019062000096929190620000b8565b508060019080519060200190620000af929190620000b8565b505050620001cd565b828054620000c69062000168565b90600052602060002090601f016020900481019282620000ea576000855562000136565b82601f106200010557805160ff191683800117855562000136565b8280016001018555821562000136579182015b828111156200013557825182559160200191906001019062000118565b5b50905062000145919062000149565b5090565b5b80821115620001645760008160009055506001016200014a565b5090565b600060028204905060018216806200018157607f821691505b602082108114156200019857620001976200019e565b5b50919050565b7f4e487b7100000000000000000000000000000000000000000000000000000000600052602260045260246000fd5b61386b80620001dd6000396000f3fe608060405234801561001057600080fd5b50600436106101215760003560e01c80634f6ccce7116100ad578063a22cb46511610071578063a22cb46514610354578063b88d4fde14610370578063c87b56dd1461038c578063e985e9c5146103bc578063f2dd4be8146103ec57610121565b80634f6ccce7146102765780636352211e146102a657806370a08231146102d657806395d89b41146103065780639fc53f301461032457610121565b806318160ddd116100f457806318160ddd146101c057806323b872dd146101de5780632f745c59146101fa57806337950cfb1461022a57806342842e0e1461025a57610121565b806301ffc9a71461012657806306fdde0314610156578063081812fc14610174578063095ea7b3146101a4575b600080fd5b610140600480360381019061013b9190612600565b61041c565b60405161014d9190612b7d565b60405180910390f35b61015e61042e565b60405161016b9190612b98565b60405180910390f35b61018e600480360381019061018991906126b9565b6104c0565b60405161019b9190612b16565b60405180910390f35b6101be60048036038101906101b9919061259b565b610545565b005b6101c861065d565b6040516101d59190612e3c565b60405180910390f35b6101f860048036038101906101f39190612495565b61066a565b005b610214600480360381019061020f919061259b565b6106ca565b6040516102219190612e3c565b60405180910390f35b610244600480360381019061023f91906126b9565b61076f565b6040516102519190612e1a565b60405180910390f35b610274600480360381019061026f9190612495565b610842565b005b610290600480360381019061028b91906126b9565b610862565b60405161029d9190612e3c565b60405180910390f35b6102c060048036038101906102bb91906126b9565b6108f9565b6040516102cd9190612b16565b60405180910390f35b6102f060048036038101906102eb9190612430565b6109ab565b6040516102fd9190612e3c565b60405180910390f35b61030e610a63565b60405161031b9190612b98565b60405180910390f35b61033e600480360381019061033991906125d7565b610af5565b60405161034b9190612e3c565b60405180910390f35b61036e6004803603810190610369919061255f565b610b12565b005b61038a600480360381019061038591906124e4565b610c93565b005b6103a660048036038101906103a191906126b9565b610cf5565b6040516103b39190612b98565b60405180910390f35b6103d660048036038101906103d19190612459565b610d07565b6040516103e39190612b7d565b60405180910390f35b61040660048036038101906104019190612652565b610d9b565b6040516104139190612e3c565b60405180910390f35b600061042782610ef3565b9050919050565b60606000805461043d906130ad565b80601f0160208091040260200160405190810160405280929190818152602001828054610469906130ad565b80156104b65780601f1061048b576101008083540402835291602001916104b6565b820191906000526020600020905b81548152906001019060200180831161049957829003601f168201915b5050505050905090565b60006104cb82610f6d565b61050a576040517f08c379a000000000000000000000000000000000000000000000000000000000815260040161050190612d5a565b60405180910390fd5b6004600083815260200190815260200160002060009054906101000a900473ffffffffffffffffffffffffffffffffffffffff169050919050565b6000610550826108f9565b90508073ffffffffffffffffffffffffffffffffffffffff168373ffffffffffffffffffffffffffffffffffffffff1614156105c1576040517f08c379a00000000000000000000000000000000000000000000000000000000081526004016105b890612dba565b60405180910390fd5b8073ffffffffffffffffffffffffffffffffffffffff166105e0610fd9565b73ffffffffffffffffffffffffffffffffffffffff16148061060f575061060e81610609610fd9565b610d07565b5b61064e576040517f08c379a000000000000000000000000000000000000000000000000000000000815260040161064590612c9a565b60405180910390fd5b6106588383610fe1565b505050565b6000600880549050905090565b61067b610675610fd9565b8261109a565b6106ba576040517f08c379a00000000000000000000000000000000000000000000000000000000081526004016106b190612dda565b60405180910390fd5b6106c5838383611178565b505050565b60006106d5836109ab565b8210610716576040517f08c379a000000000000000000000000000000000000000000000000000000000815260040161070d90612bba565b60405180910390fd5b600660008473ffffffffffffffffffffffffffffffffffffffff1673ffffffffffffffffffffffffffffffffffffffff168152602001908152602001600020600083815260200190815260200160002054905092915050565b61077761221b565b600d60008381526020019081526020016000206040518060600160405290816000820180546107a5906130ad565b80601f01602080910402602001604051908101604052809291908181526020018280546107d1906130ad565b801561081e5780601f106107f35761010080835404028352916020019161081e565b820191906000526020600020905b81548152906001019060200180831161080157829003601f168201915b50505050508152602001600182015481526020016002820154815250509050919050565b61085d83838360405180602001604052806000815250610c93565b505050565b600061086c61065d565b82106108ad576040517f08c379a00000000000000000000000000000000000000000000000000000000081526004016108a490612dfa565b60405180910390fd5b600882815481106108e7577f4e487b7100000000000000000000000000000000000000000000000000000000600052603260045260246000fd5b90600052602060002001549050919050565b6000806002600084815260200190815260200160002060009054906101000a900473ffffffffffffffffffffffffffffffffffffffff169050600073ffffffffffffffffffffffffffffffffffffffff168173ffffffffffffffffffffffffffffffffffffffff1614156109a2576040517f08c379a000000000000000000000000000000000000000000000000000000000815260040161099990612cda565b60405180910390fd5b80915050919050565b60008073ffffffffffffffffffffffffffffffffffffffff168273ffffffffffffffffffffffffffffffffffffffff161415610a1c576040517f08c379a0000000000000000000000000000000000000000000000000000000008152600401610a1390612cba565b60405180910390fd5b600360008373ffffffffffffffffffffffffffffffffffffffff1673ffffffffffffffffffffffffffffffffffffffff168152602001908152602001600020549050919050565b606060018054610a72906130ad565b80601f0160208091040260200160405190810160405280929190818152602001828054610a9e906130ad565b8015610aeb5780601f10610ac057610100808354040283529160200191610aeb565b820191906000526020600020905b815481529060010190602001808311610ace57829003601f168201915b5050505050905090565b6000600c6000838152602001908152602001600020549050919050565b610b1a610fd9565b73ffffffffffffffffffffffffffffffffffffffff168273ffffffffffffffffffffffffffffffffffffffff161415610b88576040517f08c379a0000000000000000000000000000000000000000000000000000000008152600401610b7f90612c3a565b60405180910390fd5b8060056000610b95610fd9565b73ffffffffffffffffffffffffffffffffffffffff1673ffffffffffffffffffffffffffffffffffffffff16815260200190815260200160002060008473ffffffffffffffffffffffffffffffffffffffff1673ffffffffffffffffffffffffffffffffffffffff16815260200190815260200160002060006101000a81548160ff0219169083151502179055508173ffffffffffffffffffffffffffffffffffffffff16610c42610fd9565b73ffffffffffffffffffffffffffffffffffffffff167f17307eab39ab6107e8899845ad3d59bd9653f200f220920489ca2b5937696c3183604051610c879190612b7d565b60405180910390a35050565b610ca4610c9e610fd9565b8361109a565b610ce3576040517f08c379a0000000000000000000000000000000000000000000000000000000008152600401610cda90612dda565b60405180910390fd5b610cef848484846113d4565b50505050565b6060610d0082611430565b9050919050565b6000600560008473ffffffffffffffffffffffffffffffffffffffff1673ffffffffffffffffffffffffffffffffffffffff16815260200190815260200160002060008373ffffffffffffffffffffffffffffffffffffffff1673ffffffffffffffffffffffffffffffffffffffff16815260200190815260200160002060009054906101000a900460ff16905092915050565b600060011515610daa84611582565b151514610dec576040517f08c379a0000000000000000000000000000000000000000000000000000000008152600401610de390612c5a565b60405180910390fd5b610df6600b61158d565b6000610e02600b6115a3565b9050610e0e33826115b1565b610e2081610e1b8561177f565b61192c565b80600c600086815260200190815260200160002081905550604051806060016040528086815260200185815260200142815250600d60008381526020019081526020016000206000820151816000019080519060200190610e8292919061223f565b5060208201518160010155604082015181600201559050503373ffffffffffffffffffffffffffffffffffffffff167faff28e6a8ee2c33dbe0b399f58eea0ec9f932b8aabc63bcccbb4776cb658c99286604051610ee09190612b98565b60405180910390a2809150509392505050565b60007f780e9d63000000000000000000000000000000000000000000000000000000007bffffffffffffffffffffffffffffffffffffffffffffffffffffffff1916827bffffffffffffffffffffffffffffffffffffffffffffffffffffffff19161480610f665750610f65826119a0565b5b9050919050565b60008073ffffffffffffffffffffffffffffffffffffffff166002600084815260200190815260200160002060009054906101000a900473ffffffffffffffffffffffffffffffffffffffff1673ffffffffffffffffffffffffffffffffffffffff1614159050919050565b600033905090565b816004600083815260200190815260200160002060006101000a81548173ffffffffffffffffffffffffffffffffffffffff021916908373ffffffffffffffffffffffffffffffffffffffff160217905550808273ffffffffffffffffffffffffffffffffffffffff16611054836108f9565b73ffffffffffffffffffffffffffffffffffffffff167f8c5be1e5ebec7d5bd14f71427d1e84f3dd0314c0f7b2291e5b200ac8c7c3b92560405160405180910390a45050565b60006110a582610f6d565b6110e4576040517f08c379a00000000000000000000000000000000000000000000000000000000081526004016110db90612c7a565b60405180910390fd5b60006110ef836108f9565b90508073ffffffffffffffffffffffffffffffffffffffff168473ffffffffffffffffffffffffffffffffffffffff16148061115e57508373ffffffffffffffffffffffffffffffffffffffff16611146846104c0565b73ffffffffffffffffffffffffffffffffffffffff16145b8061116f575061116e8185610d07565b5b91505092915050565b8273ffffffffffffffffffffffffffffffffffffffff16611198826108f9565b73ffffffffffffffffffffffffffffffffffffffff16146111ee576040517f08c379a00000000000000000000000000000000000000000000000000000000081526004016111e590612d7a565b60405180910390fd5b600073ffffffffffffffffffffffffffffffffffffffff168273ffffffffffffffffffffffffffffffffffffffff16141561125e576040517f08c379a000000000000000000000000000000000000000000000000000000000815260040161125590612c1a565b60405180910390fd5b611269838383611a82565b611274600082610fe1565b6001600360008573ffffffffffffffffffffffffffffffffffffffff1673ffffffffffffffffffffffffffffffffffffffff16815260200190815260200160002060008282546112c49190612fb9565b925050819055506001600360008473ffffffffffffffffffffffffffffffffffffffff1673ffffffffffffffffffffffffffffffffffffffff168152602001908152602001600020600082825461131b9190612f32565b92505081905550816002600083815260200190815260200160002060006101000a81548173ffffffffffffffffffffffffffffffffffffffff021916908373ffffffffffffffffffffffffffffffffffffffff160217905550808273ffffffffffffffffffffffffffffffffffffffff168473ffffffffffffffffffffffffffffffffffffffff167fddf252ad1be2c89b69c2b068fc378daa952ba7f163c4a11628f55a4df523b3ef60405160405180910390a4505050565b6113df848484611178565b6113eb84848484611a92565b61142a576040517f08c379a000000000000000000000000000000000000000000000000000000000815260040161142190612bda565b60405180910390fd5b50505050565b606061143b82610f6d565b61147a576040517f08c379a000000000000000000000000000000000000000000000000000000000815260040161147190612d3a565b60405180910390fd5b6000600a6000848152602001908152602001600020805461149a906130ad565b80601f01602080910402602001604051908101604052809291908181526020018280546114c6906130ad565b80156115135780601f106114e857610100808354040283529160200191611513565b820191906000526020600020905b8154815290600101906020018083116114f657829003601f168201915b505050505090506000611524611c29565b905060008151141561153a57819250505061157d565b60008251111561156f578082604051602001611557929190612af2565b6040516020818303038152906040529250505061157d565b61157884611c66565b925050505b919050565b600060019050919050565b6001816000016000828254019250508190555050565b600081600001549050919050565b600073ffffffffffffffffffffffffffffffffffffffff168273ffffffffffffffffffffffffffffffffffffffff161415611621576040517f08c379a000000000000000000000000000000000000000000000000000000000815260040161161890612d1a565b60405180910390fd5b61162a81610f6d565b1561166a576040517f08c379a000000000000000000000000000000000000000000000000000000000815260040161166190612bfa565b60405180910390fd5b61167660008383611a82565b6001600360008473ffffffffffffffffffffffffffffffffffffffff1673ffffffffffffffffffffffffffffffffffffffff16815260200190815260200160002060008282546116c69190612f32565b92505081905550816002600083815260200190815260200160002060006101000a81548173ffffffffffffffffffffffffffffffffffffffff021916908373ffffffffffffffffffffffffffffffffffffffff160217905550808273ffffffffffffffffffffffffffffffffffffffff16600073ffffffffffffffffffffffffffffffffffffffff167fddf252ad1be2c89b69c2b068fc378daa952ba7f163c4a11628f55a4df523b3ef60405160405180910390a45050565b606060008214156117c7576040518060400160405280600181526020017f30000000000000000000000000000000000000000000000000000000000000008152509050611927565b600082905060005b600082146117f95780806117e290613110565b915050600a826117f29190612f88565b91506117cf565b60008167ffffffffffffffff81111561183b577f4e487b7100000000000000000000000000000000000000000000000000000000600052604160045260246000fd5b6040519080825280601f01601f19166020018201604052801561186d5781602001600182028036833780820191505090505b5090505b60008514611920576001826118869190612fb9565b9150600a856118959190613159565b60306118a19190612f32565b60f81b8183815181106118dd577f4e487b7100000000000000000000000000000000000000000000000000000000600052603260045260246000fd5b60200101907effffffffffffffffffffffffffffffffffffffffffffffffffffffffffffff1916908160001a905350600a856119199190612f88565b9450611871565b8093505050505b919050565b61193582610f6d565b611974576040517f08c379a000000000000000000000000000000000000000000000000000000000815260040161196b90612cfa565b60405180910390fd5b80600a6000848152602001908152602001600020908051906020019061199b92919061223f565b505050565b60007f80ac58cd000000000000000000000000000000000000000000000000000000007bffffffffffffffffffffffffffffffffffffffffffffffffffffffff1916827bffffffffffffffffffffffffffffffffffffffffffffffffffffffff19161480611a6b57507f5b5e139f000000000000000000000000000000000000000000000000000000007bffffffffffffffffffffffffffffffffffffffffffffffffffffffff1916827bffffffffffffffffffffffffffffffffffffffffffffffffffffffff1916145b80611a7b5750611a7a82611d0d565b5b9050919050565b611a8d838383611d77565b505050565b6000611ab38473ffffffffffffffffffffffffffffffffffffffff16611e8b565b15611c1c578373ffffffffffffffffffffffffffffffffffffffff1663150b7a02611adc610fd9565b8786866040518563ffffffff1660e01b8152600401611afe9493929190612b31565b602060405180830381600087803b158015611b1857600080fd5b505af1925050508015611b4957506040513d601f19601f82011682018060405250810190611b469190612629565b60015b611bcc573d8060008114611b79576040519150601f19603f3d011682016040523d82523d6000602084013e611b7e565b606091505b50600081511415611bc4576040517f08c379a0000000000000000000000000000000000000000000000000000000008152600401611bbb90612bda565b60405180910390fd5b805181602001fd5b63150b7a0260e01b7bffffffffffffffffffffffffffffffffffffffffffffffffffffffff1916817bffffffffffffffffffffffffffffffffffffffffffffffffffffffff191614915050611c21565b600190505b949350505050565b60606040518060400160405280602081526020017f68747470733a2f2f7777772e7075626c69636174696f6e2e636f6d2f6e66742f815250905090565b6060611c7182610f6d565b611cb0576040517f08c379a0000000000000000000000000000000000000000000000000000000008152600401611ca790612d9a565b60405180910390fd5b6000611cba611c29565b90506000815111611cda5760405180602001604052806000815250611d05565b80611ce48461177f565b604051602001611cf5929190612af2565b6040516020818303038152906040525b915050919050565b60007f01ffc9a7000000000000000000000000000000000000000000000000000000007bffffffffffffffffffffffffffffffffffffffffffffffffffffffff1916827bffffffffffffffffffffffffffffffffffffffffffffffffffffffff1916149050919050565b611d82838383611e9e565b600073ffffffffffffffffffffffffffffffffffffffff168373ffffffffffffffffffffffffffffffffffffffff161415611dc557611dc081611ea3565b611e04565b8173ffffffffffffffffffffffffffffffffffffffff168373ffffffffffffffffffffffffffffffffffffffff1614611e0357611e028382611eec565b5b5b600073ffffffffffffffffffffffffffffffffffffffff168273ffffffffffffffffffffffffffffffffffffffff161415611e4757611e4281612059565b611e86565b8273ffffffffffffffffffffffffffffffffffffffff168273ffffffffffffffffffffffffffffffffffffffff1614611e8557611e84828261219c565b5b5b505050565b600080823b905060008111915050919050565b505050565b6008805490506009600083815260200190815260200160002081905550600881908060018154018082558091505060019003906000526020600020016000909190919091505550565b60006001611ef9846109ab565b611f039190612fb9565b9050600060076000848152602001908152602001600020549050818114611fe8576000600660008673ffffffffffffffffffffffffffffffffffffffff1673ffffffffffffffffffffffffffffffffffffffff168152602001908152602001600020600084815260200190815260200160002054905080600660008773ffffffffffffffffffffffffffffffffffffffff1673ffffffffffffffffffffffffffffffffffffffff168152602001908152602001600020600084815260200190815260200160002081905550816007600083815260200190815260200160002081905550505b6007600084815260200190815260200160002060009055600660008573ffffffffffffffffffffffffffffffffffffffff1673ffffffffffffffffffffffffffffffffffffffff16815260200190815260200160002060008381526020019081526020016000206000905550505050565b6000600160088054905061206d9190612fb9565b90506000600960008481526020019081526020016000205490506000600883815481106120c3577f4e487b7100000000000000000000000000000000000000000000000000000000600052603260045260246000fd5b90600052602060002001549050806008838154811061210b577f4e487b7100000000000000000000000000000000000000000000000000000000600052603260045260246000fd5b906000526020600020018190555081600960008381526020019081526020016000208190555060096000858152602001908152602001600020600090556008805480612180577f4e487b7100000000000000000000000000000000000000000000000000000000600052603160045260246000fd5b6001900381819060005260206000200160009055905550505050565b60006121a7836109ab565b905081600660008573ffffffffffffffffffffffffffffffffffffffff1673ffffffffffffffffffffffffffffffffffffffff168152602001908152602001600020600083815260200190815260200160002081905550806007600084815260200190815260200160002081905550505050565b60405180606001604052806060815260200160008019168152602001600081525090565b82805461224b906130ad565b90600052602060002090601f01602090048101928261226d57600085556122b4565b82601f1061228657805160ff19168380011785556122b4565b828001600101855582156122b4579182015b828111156122b3578251825591602001919060010190612298565b5b5090506122c191906122c5565b5090565b5b808211156122de5760008160009055506001016122c6565b5090565b60006122f56122f084612e7c565b612e57565b90508281526020810184848401111561230d57600080fd5b61231884828561306b565b509392505050565b600061233361232e84612ead565b612e57565b90508281526020810184848401111561234b57600080fd5b61235684828561306b565b509392505050565b60008135905061236d816137c2565b92915050565b600081359050612382816137d9565b92915050565b600081359050612397816137f0565b92915050565b6000813590506123ac81613807565b92915050565b6000815190506123c181613807565b92915050565b600082601f8301126123d857600080fd5b81356123e88482602086016122e2565b91505092915050565b600082601f83011261240257600080fd5b8135612412848260208601612320565b91505092915050565b60008135905061242a8161381e565b92915050565b60006020828403121561244257600080fd5b60006124508482850161235e565b91505092915050565b6000806040838503121561246c57600080fd5b600061247a8582860161235e565b925050602061248b8582860161235e565b9150509250929050565b6000806000606084860312156124aa57600080fd5b60006124b88682870161235e565b93505060206124c98682870161235e565b92505060406124da8682870161241b565b9150509250925092565b600080600080608085870312156124fa57600080fd5b60006125088782880161235e565b94505060206125198782880161235e565b935050604061252a8782880161241b565b925050606085013567ffffffffffffffff81111561254757600080fd5b612553878288016123c7565b91505092959194509250565b6000806040838503121561257257600080fd5b60006125808582860161235e565b925050602061259185828601612373565b9150509250929050565b600080604083850312156125ae57600080fd5b60006125bc8582860161235e565b92505060206125cd8582860161241b565b9150509250929050565b6000602082840312156125e957600080fd5b60006125f784828501612388565b91505092915050565b60006020828403121561261257600080fd5b60006126208482850161239d565b91505092915050565b60006020828403121561263b57600080fd5b6000612649848285016123b2565b91505092915050565b60008060006060848603121561266757600080fd5b600084013567ffffffffffffffff81111561268157600080fd5b61268d868287016123f1565b935050602061269e86828701612388565b92505060406126af8682870161241b565b9150509250925092565b6000602082840312156126cb57600080fd5b60006126d98482850161241b565b91505092915050565b6126eb81612fed565b82525050565b6126fa81612fff565b82525050565b6127098161300b565b82525050565b600061271a82612ede565b6127248185612ef4565b935061273481856020860161307a565b61273d81613246565b840191505092915050565b600061275382612ee9565b61275d8185612f05565b935061276d81856020860161307a565b61277681613246565b840191505092915050565b600061278c82612ee9565b6127968185612f16565b93506127a681856020860161307a565b6127af81613246565b840191505092915050565b60006127c582612ee9565b6127cf8185612f27565b93506127df81856020860161307a565b80840191505092915050565b60006127f8602b83612f16565b915061280382613257565b604082019050919050565b600061281b603283612f16565b9150612826826132a6565b604082019050919050565b600061283e601c83612f16565b9150612849826132f5565b602082019050919050565b6000612861602483612f16565b915061286c8261331e565b604082019050919050565b6000612884601983612f16565b915061288f8261336d565b602082019050919050565b60006128a7603b83612f16565b91506128b282613396565b604082019050919050565b60006128ca602c83612f16565b91506128d5826133e5565b604082019050919050565b60006128ed603883612f16565b91506128f882613434565b604082019050919050565b6000612910602a83612f16565b915061291b82613483565b604082019050919050565b6000612933602983612f16565b915061293e826134d2565b604082019050919050565b6000612956602e83612f16565b915061296182613521565b604082019050919050565b6000612979602083612f16565b915061298482613570565b602082019050919050565b600061299c603183612f16565b91506129a782613599565b604082019050919050565b60006129bf602c83612f16565b91506129ca826135e8565b604082019050919050565b60006129e2602983612f16565b91506129ed82613637565b604082019050919050565b6000612a05602f83612f16565b9150612a1082613686565b604082019050919050565b6000612a28602183612f16565b9150612a33826136d5565b604082019050919050565b6000612a4b603183612f16565b9150612a5682613724565b604082019050919050565b6000612a6e602c83612f16565b9150612a7982613773565b604082019050919050565b60006060830160008301518482036000860152612aa18282612748565b9150506020830151612ab66020860182612700565b506040830151612ac96040860182612ad4565b508091505092915050565b612add81613061565b82525050565b612aec81613061565b82525050565b6000612afe82856127ba565b9150612b0a82846127ba565b91508190509392505050565b6000602082019050612b2b60008301846126e2565b92915050565b6000608082019050612b4660008301876126e2565b612b5360208301866126e2565b612b606040830185612ae3565b8181036060830152612b72818461270f565b905095945050505050565b6000602082019050612b9260008301846126f1565b92915050565b60006020820190508181036000830152612bb28184612781565b905092915050565b60006020820190508181036000830152612bd3816127eb565b9050919050565b60006020820190508181036000830152612bf38161280e565b9050919050565b60006020820190508181036000830152612c1381612831565b9050919050565b60006020820190508181036000830152612c3381612854565b9050919050565b60006020820190508181036000830152612c5381612877565b9050919050565b60006020820190508181036000830152612c738161289a565b9050919050565b60006020820190508181036000830152612c93816128bd565b9050919050565b60006020820190508181036000830152612cb3816128e0565b9050919050565b60006020820190508181036000830152612cd381612903565b9050919050565b60006020820190508181036000830152612cf381612926565b9050919050565b60006020820190508181036000830152612d1381612949565b9050919050565b60006020820190508181036000830152612d338161296c565b9050919050565b60006020820190508181036000830152612d538161298f565b9050919050565b60006020820190508181036000830152612d73816129b2565b9050919050565b60006020820190508181036000830152612d93816129d5565b9050919050565b60006020820190508181036000830152612db3816129f8565b9050919050565b60006020820190508181036000830152612dd381612a1b565b9050919050565b60006020820190508181036000830152612df381612a3e565b9050919050565b60006020820190508181036000830152612e1381612a61565b9050919050565b60006020820190508181036000830152612e348184612a84565b905092915050565b6000602082019050612e516000830184612ae3565b92915050565b6000612e61612e72565b9050612e6d82826130df565b919050565b6000604051905090565b600067ffffffffffffffff821115612e9757612e96613217565b5b612ea082613246565b9050602081019050919050565b600067ffffffffffffffff821115612ec857612ec7613217565b5b612ed182613246565b9050602081019050919050565b600081519050919050565b600081519050919050565b600082825260208201905092915050565b600082825260208201905092915050565b600082825260208201905092915050565b600081905092915050565b6000612f3d82613061565b9150612f4883613061565b9250827fffffffffffffffffffffffffffffffffffffffffffffffffffffffffffffffff03821115612f7d57612f7c61318a565b5b828201905092915050565b6000612f9382613061565b9150612f9e83613061565b925082612fae57612fad6131b9565b5b828204905092915050565b6000612fc482613061565b9150612fcf83613061565b925082821015612fe257612fe161318a565b5b828203905092915050565b6000612ff882613041565b9050919050565b60008115159050919050565b6000819050919050565b60007fffffffff0000000000000000000000000000000000000000000000000000000082169050919050565b600073ffffffffffffffffffffffffffffffffffffffff82169050919050565b6000819050919050565b82818337600083830152505050565b60005b8381101561309857808201518184015260208101905061307d565b838111156130a7576000848401525b50505050565b600060028204905060018216806130c557607f821691505b602082108114156130d9576130d86131e8565b5b50919050565b6130e882613246565b810181811067ffffffffffffffff8211171561310757613106613217565b5b80604052505050565b600061311b82613061565b91507fffffffffffffffffffffffffffffffffffffffffffffffffffffffffffffffff82141561314e5761314d61318a565b5b600182019050919050565b600061316482613061565b915061316f83613061565b92508261317f5761317e6131b9565b5b828206905092915050565b7f4e487b7100000000000000000000000000000000000000000000000000000000600052601160045260246000fd5b7f4e487b7100000000000000000000000000000000000000000000000000000000600052601260045260246000fd5b7f4e487b7100000000000000000000000000000000000000000000000000000000600052602260045260246000fd5b7f4e487b7100000000000000000000000000000000000000000000000000000000600052604160045260246000fd5b6000601f19601f8301169050919050565b7f455243373231456e756d657261626c653a206f776e657220696e646578206f7560008201527f74206f6620626f756e6473000000000000000000000000000000000000000000602082015250565b7f4552433732313a207472616e7366657220746f206e6f6e20455243373231526560008201527f63656976657220696d706c656d656e7465720000000000000000000000000000602082015250565b7f4552433732313a20746f6b656e20616c7265616479206d696e74656400000000600082015250565b7f4552433732313a207472616e7366657220746f20746865207a65726f2061646460008201527f7265737300000000000000000000000000000000000000000000000000000000602082015250565b7f4552433732313a20617070726f766520746f2063616c6c657200000000000000600082015250565b7f5075626c69636174696f6e4d61676e6572203a207468697320636f6e74656e7460008201527f2068617320616c7265616479206265656e207075626c69736865640000000000602082015250565b7f4552433732313a206f70657261746f7220717565727920666f72206e6f6e657860008201527f697374656e7420746f6b656e0000000000000000000000000000000000000000602082015250565b7f4552433732313a20617070726f76652063616c6c6572206973206e6f74206f7760008201527f6e6572206e6f7220617070726f76656420666f7220616c6c0000000000000000602082015250565b7f4552433732313a2062616c616e636520717565727920666f7220746865207a6560008201527f726f206164647265737300000000000000000000000000000000000000000000602082015250565b7f4552433732313a206f776e657220717565727920666f72206e6f6e657869737460008201527f656e7420746f6b656e0000000000000000000000000000000000000000000000602082015250565b7f45524337323155524953746f726167653a2055524920736574206f66206e6f6e60008201527f6578697374656e7420746f6b656e000000000000000000000000000000000000602082015250565b7f4552433732313a206d696e7420746f20746865207a65726f2061646472657373600082015250565b7f45524337323155524953746f726167653a2055524920717565727920666f722060008201527f6e6f6e6578697374656e7420746f6b656e000000000000000000000000000000602082015250565b7f4552433732313a20617070726f76656420717565727920666f72206e6f6e657860008201527f697374656e7420746f6b656e0000000000000000000000000000000000000000602082015250565b7f4552433732313a207472616e73666572206f6620746f6b656e2074686174206960008201527f73206e6f74206f776e0000000000000000000000000000000000000000000000602082015250565b7f4552433732314d657461646174613a2055524920717565727920666f72206e6f60008201527f6e6578697374656e7420746f6b656e0000000000000000000000000000000000602082015250565b7f4552433732313a20617070726f76616c20746f2063757272656e74206f776e6560008201527f7200000000000000000000000000000000000000000000000000000000000000602082015250565b7f4552433732313a207472616e736665722063616c6c6572206973206e6f74206f60008201527f776e6572206e6f7220617070726f766564000000000000000000000000000000602082015250565b7f455243373231456e756d657261626c653a20676c6f62616c20696e646578206f60008201527f7574206f6620626f756e64730000000000000000000000000000000000000000602082015250565b6137cb81612fed565b81146137d657600080fd5b50565b6137e281612fff565b81146137ed57600080fd5b50565b6137f98161300b565b811461380457600080fd5b50565b61381081613015565b811461381b57600080fd5b50565b61382781613061565b811461383257600080fd5b5056fea26469706673582212203c8b61f071c04d3530542e48b16021fb7e0a2419e5ca668986f07a55d5e6315e64736f6c63430008040033",
  "linkReferences": {},
  "deployedLinkReferences": {}
}